Archive member included to satisfy reference by file (symbol)

c:/st/stm32cubeide_1.9.0/stm32cubeide/plugins/com.st.stm32cube.ide.mcu.externaltools.gnu-tools-for-stm32.10.3-2021.10.win32_1.0.200.202301161003/tools/bin/../lib/gcc/arm-none-eabi/10.3.1/../../../../arm-none-eabi/lib/thumb/v7e-m+fp/hard\libc_nano.a(lib_a-atoi.o)
                              ./Middlewares/Third_Party/LwIP/src/core/netif.o (atoi)
c:/st/stm32cubeide_1.9.0/stm32cubeide/plugins/com.st.stm32cube.ide.mcu.externaltools.gnu-tools-for-stm32.10.3-2021.10.win32_1.0.200.202301161003/tools/bin/../lib/gcc/arm-none-eabi/10.3.1/../../../../arm-none-eabi/lib/thumb/v7e-m+fp/hard\libc_nano.a(lib_a-ctype_.o)
                              ./Middlewares/Third_Party/LwIP/src/core/ipv4/ip4_addr.o (_ctype_)
c:/st/stm32cubeide_1.9.0/stm32cubeide/plugins/com.st.stm32cube.ide.mcu.externaltools.gnu-tools-for-stm32.10.3-2021.10.win32_1.0.200.202301161003/tools/bin/../lib/gcc/arm-none-eabi/10.3.1/../../../../arm-none-eabi/lib/thumb/v7e-m+fp/hard\libc_nano.a(lib_a-exit.o)
                              c:/st/stm32cubeide_1.9.0/stm32cubeide/plugins/com.st.stm32cube.ide.mcu.externaltools.gnu-tools-for-stm32.10.3-2021.10.win32_1.0.200.202301161003/tools/bin/../lib/gcc/arm-none-eabi/10.3.1/../../../../arm-none-eabi/lib/thumb/v7e-m+fp/hard/crt0.o (exit)
c:/st/stm32cubeide_1.9.0/stm32cubeide/plugins/com.st.stm32cube.ide.mcu.externaltools.gnu-tools-for-stm32.10.3-2021.10.win32_1.0.200.202301161003/tools/bin/../lib/gcc/arm-none-eabi/10.3.1/../../../../arm-none-eabi/lib/thumb/v7e-m+fp/hard\libc_nano.a(lib_a-impure.o)
                              c:/st/stm32cubeide_1.9.0/stm32cubeide/plugins/com.st.stm32cube.ide.mcu.externaltools.gnu-tools-for-stm32.10.3-2021.10.win32_1.0.200.202301161003/tools/bin/../lib/gcc/arm-none-eabi/10.3.1/../../../../arm-none-eabi/lib/thumb/v7e-m+fp/hard\libc_nano.a(lib_a-exit.o) (_global_impure_ptr)
c:/st/stm32cubeide_1.9.0/stm32cubeide/plugins/com.st.stm32cube.ide.mcu.externaltools.gnu-tools-for-stm32.10.3-2021.10.win32_1.0.200.202301161003/tools/bin/../lib/gcc/arm-none-eabi/10.3.1/../../../../arm-none-eabi/lib/thumb/v7e-m+fp/hard\libc_nano.a(lib_a-init.o)
                              c:/st/stm32cubeide_1.9.0/stm32cubeide/plugins/com.st.stm32cube.ide.mcu.externaltools.gnu-tools-for-stm32.10.3-2021.10.win32_1.0.200.202301161003/tools/bin/../lib/gcc/arm-none-eabi/10.3.1/../../../../arm-none-eabi/lib/thumb/v7e-m+fp/hard/crt0.o (__libc_init_array)
c:/st/stm32cubeide_1.9.0/stm32cubeide/plugins/com.st.stm32cube.ide.mcu.externaltools.gnu-tools-for-stm32.10.3-2021.10.win32_1.0.200.202301161003/tools/bin/../lib/gcc/arm-none-eabi/10.3.1/../../../../arm-none-eabi/lib/thumb/v7e-m+fp/hard\libc_nano.a(lib_a-memcmp.o)
                              ./Core/Src/CY15B104QSN.o (memcmp)
c:/st/stm32cubeide_1.9.0/stm32cubeide/plugins/com.st.stm32cube.ide.mcu.externaltools.gnu-tools-for-stm32.10.3-2021.10.win32_1.0.200.202301161003/tools/bin/../lib/gcc/arm-none-eabi/10.3.1/../../../../arm-none-eabi/lib/thumb/v7e-m+fp/hard\libc_nano.a(lib_a-memcpy-stub.o)
                              ./Core/Src/CY15B104QSN.o (memcpy)
c:/st/stm32cubeide_1.9.0/stm32cubeide/plugins/com.st.stm32cube.ide.mcu.externaltools.gnu-tools-for-stm32.10.3-2021.10.win32_1.0.200.202301161003/tools/bin/../lib/gcc/arm-none-eabi/10.3.1/../../../../arm-none-eabi/lib/thumb/v7e-m+fp/hard\libc_nano.a(lib_a-memmove.o)
                              ./Middlewares/Third_Party/LwIP/src/core/def.o (memmove)
c:/st/stm32cubeide_1.9.0/stm32cubeide/plugins/com.st.stm32cube.ide.mcu.externaltools.gnu-tools-for-stm32.10.3-2021.10.win32_1.0.200.202301161003/tools/bin/../lib/gcc/arm-none-eabi/10.3.1/../../../../arm-none-eabi/lib/thumb/v7e-m+fp/hard\libc_nano.a(lib_a-memset.o)
                              c:/st/stm32cubeide_1.9.0/stm32cubeide/plugins/com.st.stm32cube.ide.mcu.externaltools.gnu-tools-for-stm32.10.3-2021.10.win32_1.0.200.202301161003/tools/bin/../lib/gcc/arm-none-eabi/10.3.1/../../../../arm-none-eabi/lib/thumb/v7e-m+fp/hard/crt0.o (memset)
c:/st/stm32cubeide_1.9.0/stm32cubeide/plugins/com.st.stm32cube.ide.mcu.externaltools.gnu-tools-for-stm32.10.3-2021.10.win32_1.0.200.202301161003/tools/bin/../lib/gcc/arm-none-eabi/10.3.1/../../../../arm-none-eabi/lib/thumb/v7e-m+fp/hard\libc_nano.a(lib_a-printf.o)
                              ./Core/Src/tcpServerRAW.o (printf)
c:/st/stm32cubeide_1.9.0/stm32cubeide/plugins/com.st.stm32cube.ide.mcu.externaltools.gnu-tools-for-stm32.10.3-2021.10.win32_1.0.200.202301161003/tools/bin/../lib/gcc/arm-none-eabi/10.3.1/../../../../arm-none-eabi/lib/thumb/v7e-m+fp/hard\libc_nano.a(lib_a-rand.o)
                              ./Middlewares/Third_Party/LwIP/src/core/tcp.o (rand)
c:/st/stm32cubeide_1.9.0/stm32cubeide/plugins/com.st.stm32cube.ide.mcu.externaltools.gnu-tools-for-stm32.10.3-2021.10.win32_1.0.200.202301161003/tools/bin/../lib/gcc/arm-none-eabi/10.3.1/../../../../arm-none-eabi/lib/thumb/v7e-m+fp/hard\libc_nano.a(lib_a-reent.o)
                              ./Core/Src/syscalls.o (errno)
c:/st/stm32cubeide_1.9.0/stm32cubeide/plugins/com.st.stm32cube.ide.mcu.externaltools.gnu-tools-for-stm32.10.3-2021.10.win32_1.0.200.202301161003/tools/bin/../lib/gcc/arm-none-eabi/10.3.1/../../../../arm-none-eabi/lib/thumb/v7e-m+fp/hard\libc_nano.a(lib_a-sprintf.o)
                              ./Core/Src/tcpServerRAW.o (sprintf)
c:/st/stm32cubeide_1.9.0/stm32cubeide/plugins/com.st.stm32cube.ide.mcu.externaltools.gnu-tools-for-stm32.10.3-2021.10.win32_1.0.200.202301161003/tools/bin/../lib/gcc/arm-none-eabi/10.3.1/../../../../arm-none-eabi/lib/thumb/v7e-m+fp/hard\libc_nano.a(lib_a-strlen.o)
                              ./Core/Src/tcpServerRAW.o (strlen)
c:/st/stm32cubeide_1.9.0/stm32cubeide/plugins/com.st.stm32cube.ide.mcu.externaltools.gnu-tools-for-stm32.10.3-2021.10.win32_1.0.200.202301161003/tools/bin/../lib/gcc/arm-none-eabi/10.3.1/../../../../arm-none-eabi/lib/thumb/v7e-m+fp/hard\libc_nano.a(lib_a-strncmp.o)
                              ./Middlewares/Third_Party/LwIP/src/core/def.o (strncmp)
c:/st/stm32cubeide_1.9.0/stm32cubeide/plugins/com.st.stm32cube.ide.mcu.externaltools.gnu-tools-for-stm32.10.3-2021.10.win32_1.0.200.202301161003/tools/bin/../lib/gcc/arm-none-eabi/10.3.1/../../../../arm-none-eabi/lib/thumb/v7e-m+fp/hard\libc_nano.a(lib_a-strncpy.o)
                              ./Core/Src/tcpServerRAW.o (strncpy)
c:/st/stm32cubeide_1.9.0/stm32cubeide/plugins/com.st.stm32cube.ide.mcu.externaltools.gnu-tools-for-stm32.10.3-2021.10.win32_1.0.200.202301161003/tools/bin/../lib/gcc/arm-none-eabi/10.3.1/../../../../arm-none-eabi/lib/thumb/v7e-m+fp/hard\libc_nano.a(lib_a-strtok.o)
                              ./Core/Src/tcpServerRAW.o (strtok)
c:/st/stm32cubeide_1.9.0/stm32cubeide/plugins/com.st.stm32cube.ide.mcu.externaltools.gnu-tools-for-stm32.10.3-2021.10.win32_1.0.200.202301161003/tools/bin/../lib/gcc/arm-none-eabi/10.3.1/../../../../arm-none-eabi/lib/thumb/v7e-m+fp/hard\libc_nano.a(lib_a-strtok_r.o)
                              c:/st/stm32cubeide_1.9.0/stm32cubeide/plugins/com.st.stm32cube.ide.mcu.externaltools.gnu-tools-for-stm32.10.3-2021.10.win32_1.0.200.202301161003/tools/bin/../lib/gcc/arm-none-eabi/10.3.1/../../../../arm-none-eabi/lib/thumb/v7e-m+fp/hard\libc_nano.a(lib_a-strtok.o) (__strtok_r)
c:/st/stm32cubeide_1.9.0/stm32cubeide/plugins/com.st.stm32cube.ide.mcu.externaltools.gnu-tools-for-stm32.10.3-2021.10.win32_1.0.200.202301161003/tools/bin/../lib/gcc/arm-none-eabi/10.3.1/../../../../arm-none-eabi/lib/thumb/v7e-m+fp/hard\libc_nano.a(lib_a-strtol.o)
                              c:/st/stm32cubeide_1.9.0/stm32cubeide/plugins/com.st.stm32cube.ide.mcu.externaltools.gnu-tools-for-stm32.10.3-2021.10.win32_1.0.200.202301161003/tools/bin/../lib/gcc/arm-none-eabi/10.3.1/../../../../arm-none-eabi/lib/thumb/v7e-m+fp/hard\libc_nano.a(lib_a-atoi.o) (_strtol_r)
c:/st/stm32cubeide_1.9.0/stm32cubeide/plugins/com.st.stm32cube.ide.mcu.externaltools.gnu-tools-for-stm32.10.3-2021.10.win32_1.0.200.202301161003/tools/bin/../lib/gcc/arm-none-eabi/10.3.1/../../../../arm-none-eabi/lib/thumb/v7e-m+fp/hard\libc_nano.a(lib_a-assert.o)
                              c:/st/stm32cubeide_1.9.0/stm32cubeide/plugins/com.st.stm32cube.ide.mcu.externaltools.gnu-tools-for-stm32.10.3-2021.10.win32_1.0.200.202301161003/tools/bin/../lib/gcc/arm-none-eabi/10.3.1/../../../../arm-none-eabi/lib/thumb/v7e-m+fp/hard\libc_nano.a(lib_a-rand.o) (__assert_func)
c:/st/stm32cubeide_1.9.0/stm32cubeide/plugins/com.st.stm32cube.ide.mcu.externaltools.gnu-tools-for-stm32.10.3-2021.10.win32_1.0.200.202301161003/tools/bin/../lib/gcc/arm-none-eabi/10.3.1/../../../../arm-none-eabi/lib/thumb/v7e-m+fp/hard\libc_nano.a(lib_a-errno.o)
                              c:/st/stm32cubeide_1.9.0/stm32cubeide/plugins/com.st.stm32cube.ide.mcu.externaltools.gnu-tools-for-stm32.10.3-2021.10.win32_1.0.200.202301161003/tools/bin/../lib/gcc/arm-none-eabi/10.3.1/../../../../arm-none-eabi/lib/thumb/v7e-m+fp/hard\libc_nano.a(lib_a-strtol.o) (__errno)
c:/st/stm32cubeide_1.9.0/stm32cubeide/plugins/com.st.stm32cube.ide.mcu.externaltools.gnu-tools-for-stm32.10.3-2021.10.win32_1.0.200.202301161003/tools/bin/../lib/gcc/arm-none-eabi/10.3.1/../../../../arm-none-eabi/lib/thumb/v7e-m+fp/hard\libc_nano.a(lib_a-findfp.o)
                              c:/st/stm32cubeide_1.9.0/stm32cubeide/plugins/com.st.stm32cube.ide.mcu.externaltools.gnu-tools-for-stm32.10.3-2021.10.win32_1.0.200.202301161003/tools/bin/../lib/gcc/arm-none-eabi/10.3.1/../../../../arm-none-eabi/lib/thumb/v7e-m+fp/hard\libc_nano.a(lib_a-printf.o) (__sinit)
c:/st/stm32cubeide_1.9.0/stm32cubeide/plugins/com.st.stm32cube.ide.mcu.externaltools.gnu-tools-for-stm32.10.3-2021.10.win32_1.0.200.202301161003/tools/bin/../lib/gcc/arm-none-eabi/10.3.1/../../../../arm-none-eabi/lib/thumb/v7e-m+fp/hard\libc_nano.a(lib_a-fprintf.o)
                              c:/st/stm32cubeide_1.9.0/stm32cubeide/plugins/com.st.stm32cube.ide.mcu.externaltools.gnu-tools-for-stm32.10.3-2021.10.win32_1.0.200.202301161003/tools/bin/../lib/gcc/arm-none-eabi/10.3.1/../../../../arm-none-eabi/lib/thumb/v7e-m+fp/hard\libc_nano.a(lib_a-assert.o) (fiprintf)
c:/st/stm32cubeide_1.9.0/stm32cubeide/plugins/com.st.stm32cube.ide.mcu.externaltools.gnu-tools-for-stm32.10.3-2021.10.win32_1.0.200.202301161003/tools/bin/../lib/gcc/arm-none-eabi/10.3.1/../../../../arm-none-eabi/lib/thumb/v7e-m+fp/hard\libc_nano.a(lib_a-fwalk.o)
                              c:/st/stm32cubeide_1.9.0/stm32cubeide/plugins/com.st.stm32cube.ide.mcu.externaltools.gnu-tools-for-stm32.10.3-2021.10.win32_1.0.200.202301161003/tools/bin/../lib/gcc/arm-none-eabi/10.3.1/../../../../arm-none-eabi/lib/thumb/v7e-m+fp/hard\libc_nano.a(lib_a-findfp.o) (_fwalk)
c:/st/stm32cubeide_1.9.0/stm32cubeide/plugins/com.st.stm32cube.ide.mcu.externaltools.gnu-tools-for-stm32.10.3-2021.10.win32_1.0.200.202301161003/tools/bin/../lib/gcc/arm-none-eabi/10.3.1/../../../../arm-none-eabi/lib/thumb/v7e-m+fp/hard\libc_nano.a(lib_a-lock.o)
                              c:/st/stm32cubeide_1.9.0/stm32cubeide/plugins/com.st.stm32cube.ide.mcu.externaltools.gnu-tools-for-stm32.10.3-2021.10.win32_1.0.200.202301161003/tools/bin/../lib/gcc/arm-none-eabi/10.3.1/../../../../arm-none-eabi/lib/thumb/v7e-m+fp/hard\libc_nano.a(lib_a-findfp.o) (__retarget_lock_init_recursive)
c:/st/stm32cubeide_1.9.0/stm32cubeide/plugins/com.st.stm32cube.ide.mcu.externaltools.gnu-tools-for-stm32.10.3-2021.10.win32_1.0.200.202301161003/tools/bin/../lib/gcc/arm-none-eabi/10.3.1/../../../../arm-none-eabi/lib/thumb/v7e-m+fp/hard\libc_nano.a(lib_a-malloc.o)
                              c:/st/stm32cubeide_1.9.0/stm32cubeide/plugins/com.st.stm32cube.ide.mcu.externaltools.gnu-tools-for-stm32.10.3-2021.10.win32_1.0.200.202301161003/tools/bin/../lib/gcc/arm-none-eabi/10.3.1/../../../../arm-none-eabi/lib/thumb/v7e-m+fp/hard\libc_nano.a(lib_a-rand.o) (malloc)
c:/st/stm32cubeide_1.9.0/stm32cubeide/plugins/com.st.stm32cube.ide.mcu.externaltools.gnu-tools-for-stm32.10.3-2021.10.win32_1.0.200.202301161003/tools/bin/../lib/gcc/arm-none-eabi/10.3.1/../../../../arm-none-eabi/lib/thumb/v7e-m+fp/hard\libc_nano.a(lib_a-nano-freer.o)
                              c:/st/stm32cubeide_1.9.0/stm32cubeide/plugins/com.st.stm32cube.ide.mcu.externaltools.gnu-tools-for-stm32.10.3-2021.10.win32_1.0.200.202301161003/tools/bin/../lib/gcc/arm-none-eabi/10.3.1/../../../../arm-none-eabi/lib/thumb/v7e-m+fp/hard\libc_nano.a(lib_a-reent.o) (_free_r)
c:/st/stm32cubeide_1.9.0/stm32cubeide/plugins/com.st.stm32cube.ide.mcu.externaltools.gnu-tools-for-stm32.10.3-2021.10.win32_1.0.200.202301161003/tools/bin/../lib/gcc/arm-none-eabi/10.3.1/../../../../arm-none-eabi/lib/thumb/v7e-m+fp/hard\libc_nano.a(lib_a-nano-mallocr.o)
                              c:/st/stm32cubeide_1.9.0/stm32cubeide/plugins/com.st.stm32cube.ide.mcu.externaltools.gnu-tools-for-stm32.10.3-2021.10.win32_1.0.200.202301161003/tools/bin/../lib/gcc/arm-none-eabi/10.3.1/../../../../arm-none-eabi/lib/thumb/v7e-m+fp/hard\libc_nano.a(lib_a-findfp.o) (_malloc_r)
c:/st/stm32cubeide_1.9.0/stm32cubeide/plugins/com.st.stm32cube.ide.mcu.externaltools.gnu-tools-for-stm32.10.3-2021.10.win32_1.0.200.202301161003/tools/bin/../lib/gcc/arm-none-eabi/10.3.1/../../../../arm-none-eabi/lib/thumb/v7e-m+fp/hard\libc_nano.a(lib_a-nano-svfprintf.o)
                              c:/st/stm32cubeide_1.9.0/stm32cubeide/plugins/com.st.stm32cube.ide.mcu.externaltools.gnu-tools-for-stm32.10.3-2021.10.win32_1.0.200.202301161003/tools/bin/../lib/gcc/arm-none-eabi/10.3.1/../../../../arm-none-eabi/lib/thumb/v7e-m+fp/hard\libc_nano.a(lib_a-sprintf.o) (_svfprintf_r)
c:/st/stm32cubeide_1.9.0/stm32cubeide/plugins/com.st.stm32cube.ide.mcu.externaltools.gnu-tools-for-stm32.10.3-2021.10.win32_1.0.200.202301161003/tools/bin/../lib/gcc/arm-none-eabi/10.3.1/../../../../arm-none-eabi/lib/thumb/v7e-m+fp/hard\libc_nano.a(lib_a-nano-vfprintf.o)
                              c:/st/stm32cubeide_1.9.0/stm32cubeide/plugins/com.st.stm32cube.ide.mcu.externaltools.gnu-tools-for-stm32.10.3-2021.10.win32_1.0.200.202301161003/tools/bin/../lib/gcc/arm-none-eabi/10.3.1/../../../../arm-none-eabi/lib/thumb/v7e-m+fp/hard\libc_nano.a(lib_a-printf.o) (_vfprintf_r)
c:/st/stm32cubeide_1.9.0/stm32cubeide/plugins/com.st.stm32cube.ide.mcu.externaltools.gnu-tools-for-stm32.10.3-2021.10.win32_1.0.200.202301161003/tools/bin/../lib/gcc/arm-none-eabi/10.3.1/../../../../arm-none-eabi/lib/thumb/v7e-m+fp/hard\libc_nano.a(lib_a-nano-vfprintf_i.o)
                              c:/st/stm32cubeide_1.9.0/stm32cubeide/plugins/com.st.stm32cube.ide.mcu.externaltools.gnu-tools-for-stm32.10.3-2021.10.win32_1.0.200.202301161003/tools/bin/../lib/gcc/arm-none-eabi/10.3.1/../../../../arm-none-eabi/lib/thumb/v7e-m+fp/hard\libc_nano.a(lib_a-nano-svfprintf.o) (_printf_i)
c:/st/stm32cubeide_1.9.0/stm32cubeide/plugins/com.st.stm32cube.ide.mcu.externaltools.gnu-tools-for-stm32.10.3-2021.10.win32_1.0.200.202301161003/tools/bin/../lib/gcc/arm-none-eabi/10.3.1/../../../../arm-none-eabi/lib/thumb/v7e-m+fp/hard\libc_nano.a(lib_a-sbrkr.o)
                              c:/st/stm32cubeide_1.9.0/stm32cubeide/plugins/com.st.stm32cube.ide.mcu.externaltools.gnu-tools-for-stm32.10.3-2021.10.win32_1.0.200.202301161003/tools/bin/../lib/gcc/arm-none-eabi/10.3.1/../../../../arm-none-eabi/lib/thumb/v7e-m+fp/hard\libc_nano.a(lib_a-nano-mallocr.o) (_sbrk_r)
c:/st/stm32cubeide_1.9.0/stm32cubeide/plugins/com.st.stm32cube.ide.mcu.externaltools.gnu-tools-for-stm32.10.3-2021.10.win32_1.0.200.202301161003/tools/bin/../lib/gcc/arm-none-eabi/10.3.1/../../../../arm-none-eabi/lib/thumb/v7e-m+fp/hard\libc_nano.a(lib_a-stdio.o)
                              c:/st/stm32cubeide_1.9.0/stm32cubeide/plugins/com.st.stm32cube.ide.mcu.externaltools.gnu-tools-for-stm32.10.3-2021.10.win32_1.0.200.202301161003/tools/bin/../lib/gcc/arm-none-eabi/10.3.1/../../../../arm-none-eabi/lib/thumb/v7e-m+fp/hard\libc_nano.a(lib_a-findfp.o) (__sread)
c:/st/stm32cubeide_1.9.0/stm32cubeide/plugins/com.st.stm32cube.ide.mcu.externaltools.gnu-tools-for-stm32.10.3-2021.10.win32_1.0.200.202301161003/tools/bin/../lib/gcc/arm-none-eabi/10.3.1/../../../../arm-none-eabi/lib/thumb/v7e-m+fp/hard\libc_nano.a(lib_a-wbuf.o)
                              c:/st/stm32cubeide_1.9.0/stm32cubeide/plugins/com.st.stm32cube.ide.mcu.externaltools.gnu-tools-for-stm32.10.3-2021.10.win32_1.0.200.202301161003/tools/bin/../lib/gcc/arm-none-eabi/10.3.1/../../../../arm-none-eabi/lib/thumb/v7e-m+fp/hard\libc_nano.a(lib_a-nano-vfprintf.o) (__swbuf_r)
c:/st/stm32cubeide_1.9.0/stm32cubeide/plugins/com.st.stm32cube.ide.mcu.externaltools.gnu-tools-for-stm32.10.3-2021.10.win32_1.0.200.202301161003/tools/bin/../lib/gcc/arm-none-eabi/10.3.1/../../../../arm-none-eabi/lib/thumb/v7e-m+fp/hard\libc_nano.a(lib_a-writer.o)
                              c:/st/stm32cubeide_1.9.0/stm32cubeide/plugins/com.st.stm32cube.ide.mcu.externaltools.gnu-tools-for-stm32.10.3-2021.10.win32_1.0.200.202301161003/tools/bin/../lib/gcc/arm-none-eabi/10.3.1/../../../../arm-none-eabi/lib/thumb/v7e-m+fp/hard\libc_nano.a(lib_a-stdio.o) (_write_r)
c:/st/stm32cubeide_1.9.0/stm32cubeide/plugins/com.st.stm32cube.ide.mcu.externaltools.gnu-tools-for-stm32.10.3-2021.10.win32_1.0.200.202301161003/tools/bin/../lib/gcc/arm-none-eabi/10.3.1/../../../../arm-none-eabi/lib/thumb/v7e-m+fp/hard\libc_nano.a(lib_a-wsetup.o)
                              c:/st/stm32cubeide_1.9.0/stm32cubeide/plugins/com.st.stm32cube.ide.mcu.externaltools.gnu-tools-for-stm32.10.3-2021.10.win32_1.0.200.202301161003/tools/bin/../lib/gcc/arm-none-eabi/10.3.1/../../../../arm-none-eabi/lib/thumb/v7e-m+fp/hard\libc_nano.a(lib_a-nano-vfprintf.o) (__swsetup_r)
c:/st/stm32cubeide_1.9.0/stm32cubeide/plugins/com.st.stm32cube.ide.mcu.externaltools.gnu-tools-for-stm32.10.3-2021.10.win32_1.0.200.202301161003/tools/bin/../lib/gcc/arm-none-eabi/10.3.1/../../../../arm-none-eabi/lib/thumb/v7e-m+fp/hard\libc_nano.a(lib_a-abort.o)
                              c:/st/stm32cubeide_1.9.0/stm32cubeide/plugins/com.st.stm32cube.ide.mcu.externaltools.gnu-tools-for-stm32.10.3-2021.10.win32_1.0.200.202301161003/tools/bin/../lib/gcc/arm-none-eabi/10.3.1/../../../../arm-none-eabi/lib/thumb/v7e-m+fp/hard\libc_nano.a(lib_a-assert.o) (abort)
c:/st/stm32cubeide_1.9.0/stm32cubeide/plugins/com.st.stm32cube.ide.mcu.externaltools.gnu-tools-for-stm32.10.3-2021.10.win32_1.0.200.202301161003/tools/bin/../lib/gcc/arm-none-eabi/10.3.1/../../../../arm-none-eabi/lib/thumb/v7e-m+fp/hard\libc_nano.a(lib_a-closer.o)
                              c:/st/stm32cubeide_1.9.0/stm32cubeide/plugins/com.st.stm32cube.ide.mcu.externaltools.gnu-tools-for-stm32.10.3-2021.10.win32_1.0.200.202301161003/tools/bin/../lib/gcc/arm-none-eabi/10.3.1/../../../../arm-none-eabi/lib/thumb/v7e-m+fp/hard\libc_nano.a(lib_a-stdio.o) (_close_r)
c:/st/stm32cubeide_1.9.0/stm32cubeide/plugins/com.st.stm32cube.ide.mcu.externaltools.gnu-tools-for-stm32.10.3-2021.10.win32_1.0.200.202301161003/tools/bin/../lib/gcc/arm-none-eabi/10.3.1/../../../../arm-none-eabi/lib/thumb/v7e-m+fp/hard\libc_nano.a(lib_a-fflush.o)
                              c:/st/stm32cubeide_1.9.0/stm32cubeide/plugins/com.st.stm32cube.ide.mcu.externaltools.gnu-tools-for-stm32.10.3-2021.10.win32_1.0.200.202301161003/tools/bin/../lib/gcc/arm-none-eabi/10.3.1/../../../../arm-none-eabi/lib/thumb/v7e-m+fp/hard\libc_nano.a(lib_a-findfp.o) (_fflush_r)
c:/st/stm32cubeide_1.9.0/stm32cubeide/plugins/com.st.stm32cube.ide.mcu.externaltools.gnu-tools-for-stm32.10.3-2021.10.win32_1.0.200.202301161003/tools/bin/../lib/gcc/arm-none-eabi/10.3.1/../../../../arm-none-eabi/lib/thumb/v7e-m+fp/hard\libc_nano.a(lib_a-fvwrite.o)
                              c:/st/stm32cubeide_1.9.0/stm32cubeide/plugins/com.st.stm32cube.ide.mcu.externaltools.gnu-tools-for-stm32.10.3-2021.10.win32_1.0.200.202301161003/tools/bin/../lib/gcc/arm-none-eabi/10.3.1/../../../../arm-none-eabi/lib/thumb/v7e-m+fp/hard\libc_nano.a(lib_a-nano-vfprintf.o) (__sfvwrite_r)
c:/st/stm32cubeide_1.9.0/stm32cubeide/plugins/com.st.stm32cube.ide.mcu.externaltools.gnu-tools-for-stm32.10.3-2021.10.win32_1.0.200.202301161003/tools/bin/../lib/gcc/arm-none-eabi/10.3.1/../../../../arm-none-eabi/lib/thumb/v7e-m+fp/hard\libc_nano.a(lib_a-lseekr.o)
                              c:/st/stm32cubeide_1.9.0/stm32cubeide/plugins/com.st.stm32cube.ide.mcu.externaltools.gnu-tools-for-stm32.10.3-2021.10.win32_1.0.200.202301161003/tools/bin/../lib/gcc/arm-none-eabi/10.3.1/../../../../arm-none-eabi/lib/thumb/v7e-m+fp/hard\libc_nano.a(lib_a-stdio.o) (_lseek_r)
c:/st/stm32cubeide_1.9.0/stm32cubeide/plugins/com.st.stm32cube.ide.mcu.externaltools.gnu-tools-for-stm32.10.3-2021.10.win32_1.0.200.202301161003/tools/bin/../lib/gcc/arm-none-eabi/10.3.1/../../../../arm-none-eabi/lib/thumb/v7e-m+fp/hard\libc_nano.a(lib_a-makebuf.o)
                              c:/st/stm32cubeide_1.9.0/stm32cubeide/plugins/com.st.stm32cube.ide.mcu.externaltools.gnu-tools-for-stm32.10.3-2021.10.win32_1.0.200.202301161003/tools/bin/../lib/gcc/arm-none-eabi/10.3.1/../../../../arm-none-eabi/lib/thumb/v7e-m+fp/hard\libc_nano.a(lib_a-wsetup.o) (__smakebuf_r)
c:/st/stm32cubeide_1.9.0/stm32cubeide/plugins/com.st.stm32cube.ide.mcu.externaltools.gnu-tools-for-stm32.10.3-2021.10.win32_1.0.200.202301161003/tools/bin/../lib/gcc/arm-none-eabi/10.3.1/../../../../arm-none-eabi/lib/thumb/v7e-m+fp/hard\libc_nano.a(lib_a-memchr.o)
                              c:/st/stm32cubeide_1.9.0/stm32cubeide/plugins/com.st.stm32cube.ide.mcu.externaltools.gnu-tools-for-stm32.10.3-2021.10.win32_1.0.200.202301161003/tools/bin/../lib/gcc/arm-none-eabi/10.3.1/../../../../arm-none-eabi/lib/thumb/v7e-m+fp/hard\libc_nano.a(lib_a-nano-svfprintf.o) (memchr)
c:/st/stm32cubeide_1.9.0/stm32cubeide/plugins/com.st.stm32cube.ide.mcu.externaltools.gnu-tools-for-stm32.10.3-2021.10.win32_1.0.200.202301161003/tools/bin/../lib/gcc/arm-none-eabi/10.3.1/../../../../arm-none-eabi/lib/thumb/v7e-m+fp/hard\libc_nano.a(lib_a-mlock.o)
                              c:/st/stm32cubeide_1.9.0/stm32cubeide/plugins/com.st.stm32cube.ide.mcu.externaltools.gnu-tools-for-stm32.10.3-2021.10.win32_1.0.200.202301161003/tools/bin/../lib/gcc/arm-none-eabi/10.3.1/../../../../arm-none-eabi/lib/thumb/v7e-m+fp/hard\libc_nano.a(lib_a-nano-freer.o) (__malloc_lock)
c:/st/stm32cubeide_1.9.0/stm32cubeide/plugins/com.st.stm32cube.ide.mcu.externaltools.gnu-tools-for-stm32.10.3-2021.10.win32_1.0.200.202301161003/tools/bin/../lib/gcc/arm-none-eabi/10.3.1/../../../../arm-none-eabi/lib/thumb/v7e-m+fp/hard\libc_nano.a(lib_a-nano-reallocr.o)
                              c:/st/stm32cubeide_1.9.0/stm32cubeide/plugins/com.st.stm32cube.ide.mcu.externaltools.gnu-tools-for-stm32.10.3-2021.10.win32_1.0.200.202301161003/tools/bin/../lib/gcc/arm-none-eabi/10.3.1/../../../../arm-none-eabi/lib/thumb/v7e-m+fp/hard\libc_nano.a(lib_a-nano-svfprintf.o) (_realloc_r)
c:/st/stm32cubeide_1.9.0/stm32cubeide/plugins/com.st.stm32cube.ide.mcu.externaltools.gnu-tools-for-stm32.10.3-2021.10.win32_1.0.200.202301161003/tools/bin/../lib/gcc/arm-none-eabi/10.3.1/../../../../arm-none-eabi/lib/thumb/v7e-m+fp/hard\libc_nano.a(lib_a-readr.o)
                              c:/st/stm32cubeide_1.9.0/stm32cubeide/plugins/com.st.stm32cube.ide.mcu.externaltools.gnu-tools-for-stm32.10.3-2021.10.win32_1.0.200.202301161003/tools/bin/../lib/gcc/arm-none-eabi/10.3.1/../../../../arm-none-eabi/lib/thumb/v7e-m+fp/hard\libc_nano.a(lib_a-stdio.o) (_read_r)
c:/st/stm32cubeide_1.9.0/stm32cubeide/plugins/com.st.stm32cube.ide.mcu.externaltools.gnu-tools-for-stm32.10.3-2021.10.win32_1.0.200.202301161003/tools/bin/../lib/gcc/arm-none-eabi/10.3.1/../../../../arm-none-eabi/lib/thumb/v7e-m+fp/hard\libc_nano.a(lib_a-signal.o)
                              c:/st/stm32cubeide_1.9.0/stm32cubeide/plugins/com.st.stm32cube.ide.mcu.externaltools.gnu-tools-for-stm32.10.3-2021.10.win32_1.0.200.202301161003/tools/bin/../lib/gcc/arm-none-eabi/10.3.1/../../../../arm-none-eabi/lib/thumb/v7e-m+fp/hard\libc_nano.a(lib_a-abort.o) (raise)
c:/st/stm32cubeide_1.9.0/stm32cubeide/plugins/com.st.stm32cube.ide.mcu.externaltools.gnu-tools-for-stm32.10.3-2021.10.win32_1.0.200.202301161003/tools/bin/../lib/gcc/arm-none-eabi/10.3.1/../../../../arm-none-eabi/lib/thumb/v7e-m+fp/hard\libc_nano.a(lib_a-signalr.o)
                              c:/st/stm32cubeide_1.9.0/stm32cubeide/plugins/com.st.stm32cube.ide.mcu.externaltools.gnu-tools-for-stm32.10.3-2021.10.win32_1.0.200.202301161003/tools/bin/../lib/gcc/arm-none-eabi/10.3.1/../../../../arm-none-eabi/lib/thumb/v7e-m+fp/hard\libc_nano.a(lib_a-signal.o) (_kill_r)
c:/st/stm32cubeide_1.9.0/stm32cubeide/plugins/com.st.stm32cube.ide.mcu.externaltools.gnu-tools-for-stm32.10.3-2021.10.win32_1.0.200.202301161003/tools/bin/../lib/gcc/arm-none-eabi/10.3.1/../../../../arm-none-eabi/lib/thumb/v7e-m+fp/hard\libc_nano.a(lib_a-fstatr.o)
                              c:/st/stm32cubeide_1.9.0/stm32cubeide/plugins/com.st.stm32cube.ide.mcu.externaltools.gnu-tools-for-stm32.10.3-2021.10.win32_1.0.200.202301161003/tools/bin/../lib/gcc/arm-none-eabi/10.3.1/../../../../arm-none-eabi/lib/thumb/v7e-m+fp/hard\libc_nano.a(lib_a-makebuf.o) (_fstat_r)
c:/st/stm32cubeide_1.9.0/stm32cubeide/plugins/com.st.stm32cube.ide.mcu.externaltools.gnu-tools-for-stm32.10.3-2021.10.win32_1.0.200.202301161003/tools/bin/../lib/gcc/arm-none-eabi/10.3.1/../../../../arm-none-eabi/lib/thumb/v7e-m+fp/hard\libc_nano.a(lib_a-isattyr.o)
                              c:/st/stm32cubeide_1.9.0/stm32cubeide/plugins/com.st.stm32cube.ide.mcu.externaltools.gnu-tools-for-stm32.10.3-2021.10.win32_1.0.200.202301161003/tools/bin/../lib/gcc/arm-none-eabi/10.3.1/../../../../arm-none-eabi/lib/thumb/v7e-m+fp/hard\libc_nano.a(lib_a-makebuf.o) (_isatty_r)
c:/st/stm32cubeide_1.9.0/stm32cubeide/plugins/com.st.stm32cube.ide.mcu.externaltools.gnu-tools-for-stm32.10.3-2021.10.win32_1.0.200.202301161003/tools/bin/../lib/gcc/arm-none-eabi/10.3.1/../../../../arm-none-eabi/lib/thumb/v7e-m+fp/hard\libc_nano.a(lib_a-nano-msizer.o)
                              c:/st/stm32cubeide_1.9.0/stm32cubeide/plugins/com.st.stm32cube.ide.mcu.externaltools.gnu-tools-for-stm32.10.3-2021.10.win32_1.0.200.202301161003/tools/bin/../lib/gcc/arm-none-eabi/10.3.1/../../../../arm-none-eabi/lib/thumb/v7e-m+fp/hard\libc_nano.a(lib_a-nano-reallocr.o) (_malloc_usable_size_r)
c:/st/stm32cubeide_1.9.0/stm32cubeide/plugins/com.st.stm32cube.ide.mcu.externaltools.gnu-tools-for-stm32.10.3-2021.10.win32_1.0.200.202301161003/tools/bin/../lib/gcc/arm-none-eabi/10.3.1/thumb/v7e-m+fp/hard\libgcc.a(_arm_muldf3.o)
                              ./Core/Src/general.o (__aeabi_dmul)
c:/st/stm32cubeide_1.9.0/stm32cubeide/plugins/com.st.stm32cube.ide.mcu.externaltools.gnu-tools-for-stm32.10.3-2021.10.win32_1.0.200.202301161003/tools/bin/../lib/gcc/arm-none-eabi/10.3.1/thumb/v7e-m+fp/hard\libgcc.a(_arm_addsubdf3.o)
                              ./Core/Src/general.o (__aeabi_dsub)
c:/st/stm32cubeide_1.9.0/stm32cubeide/plugins/com.st.stm32cube.ide.mcu.externaltools.gnu-tools-for-stm32.10.3-2021.10.win32_1.0.200.202301161003/tools/bin/../lib/gcc/arm-none-eabi/10.3.1/thumb/v7e-m+fp/hard\libgcc.a(_arm_truncdfsf2.o)
                              ./Core/Src/general.o (__aeabi_d2f)
c:/st/stm32cubeide_1.9.0/stm32cubeide/plugins/com.st.stm32cube.ide.mcu.externaltools.gnu-tools-for-stm32.10.3-2021.10.win32_1.0.200.202301161003/tools/bin/../lib/gcc/arm-none-eabi/10.3.1/thumb/v7e-m+fp/hard\libgcc.a(_aeabi_ldivmod.o)
                              ./Drivers/STM32F4xx_HAL_Driver/Src/stm32f4xx_hal_rcc.o (__aeabi_ldivmod)
c:/st/stm32cubeide_1.9.0/stm32cubeide/plugins/com.st.stm32cube.ide.mcu.externaltools.gnu-tools-for-stm32.10.3-2021.10.win32_1.0.200.202301161003/tools/bin/../lib/gcc/arm-none-eabi/10.3.1/thumb/v7e-m+fp/hard\libgcc.a(_aeabi_uldivmod.o)
                              ./Drivers/STM32F4xx_HAL_Driver/Src/stm32f4xx_hal_rcc.o (__aeabi_uldivmod)
c:/st/stm32cubeide_1.9.0/stm32cubeide/plugins/com.st.stm32cube.ide.mcu.externaltools.gnu-tools-for-stm32.10.3-2021.10.win32_1.0.200.202301161003/tools/bin/../lib/gcc/arm-none-eabi/10.3.1/thumb/v7e-m+fp/hard\libgcc.a(_udivmoddi4.o)
                              c:/st/stm32cubeide_1.9.0/stm32cubeide/plugins/com.st.stm32cube.ide.mcu.externaltools.gnu-tools-for-stm32.10.3-2021.10.win32_1.0.200.202301161003/tools/bin/../lib/gcc/arm-none-eabi/10.3.1/thumb/v7e-m+fp/hard\libgcc.a(_aeabi_ldivmod.o) (__udivmoddi4)
c:/st/stm32cubeide_1.9.0/stm32cubeide/plugins/com.st.stm32cube.ide.mcu.externaltools.gnu-tools-for-stm32.10.3-2021.10.win32_1.0.200.202301161003/tools/bin/../lib/gcc/arm-none-eabi/10.3.1/thumb/v7e-m+fp/hard\libgcc.a(_dvmd_tls.o)
                              c:/st/stm32cubeide_1.9.0/stm32cubeide/plugins/com.st.stm32cube.ide.mcu.externaltools.gnu-tools-for-stm32.10.3-2021.10.win32_1.0.200.202301161003/tools/bin/../lib/gcc/arm-none-eabi/10.3.1/thumb/v7e-m+fp/hard\libgcc.a(_aeabi_ldivmod.o) (__aeabi_ldiv0)

Discarded input sections

 .text          0x0000000000000000        0x0 c:/st/stm32cubeide_1.9.0/stm32cubeide/plugins/com.st.stm32cube.ide.mcu.externaltools.gnu-tools-for-stm32.10.3-2021.10.win32_1.0.200.202301161003/tools/bin/../lib/gcc/arm-none-eabi/10.3.1/thumb/v7e-m+fp/hard/crti.o
 .data          0x0000000000000000        0x0 c:/st/stm32cubeide_1.9.0/stm32cubeide/plugins/com.st.stm32cube.ide.mcu.externaltools.gnu-tools-for-stm32.10.3-2021.10.win32_1.0.200.202301161003/tools/bin/../lib/gcc/arm-none-eabi/10.3.1/thumb/v7e-m+fp/hard/crti.o
 .bss           0x0000000000000000        0x0 c:/st/stm32cubeide_1.9.0/stm32cubeide/plugins/com.st.stm32cube.ide.mcu.externaltools.gnu-tools-for-stm32.10.3-2021.10.win32_1.0.200.202301161003/tools/bin/../lib/gcc/arm-none-eabi/10.3.1/thumb/v7e-m+fp/hard/crti.o
 .data          0x0000000000000000        0x4 c:/st/stm32cubeide_1.9.0/stm32cubeide/plugins/com.st.stm32cube.ide.mcu.externaltools.gnu-tools-for-stm32.10.3-2021.10.win32_1.0.200.202301161003/tools/bin/../lib/gcc/arm-none-eabi/10.3.1/thumb/v7e-m+fp/hard/crtbegin.o
 .rodata        0x0000000000000000       0x24 c:/st/stm32cubeide_1.9.0/stm32cubeide/plugins/com.st.stm32cube.ide.mcu.externaltools.gnu-tools-for-stm32.10.3-2021.10.win32_1.0.200.202301161003/tools/bin/../lib/gcc/arm-none-eabi/10.3.1/thumb/v7e-m+fp/hard/crtbegin.o
 .text          0x0000000000000000       0x7c c:/st/stm32cubeide_1.9.0/stm32cubeide/plugins/com.st.stm32cube.ide.mcu.externaltools.gnu-tools-for-stm32.10.3-2021.10.win32_1.0.200.202301161003/tools/bin/../lib/gcc/arm-none-eabi/10.3.1/../../../../arm-none-eabi/lib/thumb/v7e-m+fp/hard/crt0.o
 .data          0x0000000000000000        0x0 c:/st/stm32cubeide_1.9.0/stm32cubeide/plugins/com.st.stm32cube.ide.mcu.externaltools.gnu-tools-for-stm32.10.3-2021.10.win32_1.0.200.202301161003/tools/bin/../lib/gcc/arm-none-eabi/10.3.1/../../../../arm-none-eabi/lib/thumb/v7e-m+fp/hard/crt0.o
 .bss           0x0000000000000000        0x0 c:/st/stm32cubeide_1.9.0/stm32cubeide/plugins/com.st.stm32cube.ide.mcu.externaltools.gnu-tools-for-stm32.10.3-2021.10.win32_1.0.200.202301161003/tools/bin/../lib/gcc/arm-none-eabi/10.3.1/../../../../arm-none-eabi/lib/thumb/v7e-m+fp/hard/crt0.o
 .ARM.extab     0x0000000000000000        0x0 c:/st/stm32cubeide_1.9.0/stm32cubeide/plugins/com.st.stm32cube.ide.mcu.externaltools.gnu-tools-for-stm32.10.3-2021.10.win32_1.0.200.202301161003/tools/bin/../lib/gcc/arm-none-eabi/10.3.1/../../../../arm-none-eabi/lib/thumb/v7e-m+fp/hard/crt0.o
 .ARM.exidx     0x0000000000000000       0x10 c:/st/stm32cubeide_1.9.0/stm32cubeide/plugins/com.st.stm32cube.ide.mcu.externaltools.gnu-tools-for-stm32.10.3-2021.10.win32_1.0.200.202301161003/tools/bin/../lib/gcc/arm-none-eabi/10.3.1/../../../../arm-none-eabi/lib/thumb/v7e-m+fp/hard/crt0.o
 .ARM.attributes
                0x0000000000000000       0x1c c:/st/stm32cubeide_1.9.0/stm32cubeide/plugins/com.st.stm32cube.ide.mcu.externaltools.gnu-tools-for-stm32.10.3-2021.10.win32_1.0.200.202301161003/tools/bin/../lib/gcc/arm-none-eabi/10.3.1/../../../../arm-none-eabi/lib/thumb/v7e-m+fp/hard/crt0.o
 .text          0x0000000000000000        0x0 ./Core/Src/CY15B104QSN.o
 .data          0x0000000000000000        0x0 ./Core/Src/CY15B104QSN.o
 .bss           0x0000000000000000        0x0 ./Core/Src/CY15B104QSN.o
 .bss.NUMBER_OF_WROTE_READ_BYTE
                0x0000000000000000        0x4 ./Core/Src/CY15B104QSN.o
 .text          0x0000000000000000        0x0 ./Core/Src/SPI.o
Memory Configuration

Name             Origin             Length             Attributes
CCMRAM           0x0000000010000000 0x0000000000010000 xrw
RAM              0x0000000020000000 0x0000000000030000 xrw
FLASH            0x0000000008000000 0x0000000000200000 xr
*default*        0x0000000000000000 0xffffffffffffffff

Linker script and memory map

LOAD c:/st/stm32cubeide_1.9.0/stm32cubeide/plugins/com.st.stm32cube.ide.mcu.externaltools.gnu-tools-for-stm32.10.3-2021.10.win32_1.0.200.202301161003/tools/bin/../lib/gcc/arm-none-eabi/10.3.1/thumb/v7e-m+fp/hard/crti.o
LOAD c:/st/stm32cubeide_1.9.0/stm32cubeide/plugins/com.st.stm32cube.ide.mcu.externaltools.gnu-tools-for-stm32.10.3-2021.10.win32_1.0.200.202301161003/tools/bin/../lib/gcc/arm-none-eabi/10.3.1/thumb/v7e-m+fp/hard/crtbegin.o
LOAD c:/st/stm32cubeide_1.9.0/stm32cubeide/plugins/com.st.stm32cube.ide.mcu.externaltools.gnu-tools-for-stm32.10.3-2021.10.win32_1.0.200.202301161003/tools/bin/../lib/gcc/arm-none-eabi/10.3.1/../../../../arm-none-eabi/lib/thumb/v7e-m+fp/hard/crt0.o
LOAD ./Core/Src/CY15B104QSN.o
LOAD ./Core/Src/SPI.o
LOAD ./Core/Src/general.o
LOAD ./Core/Src/main.o
LOAD ./Core/Src/stm32f4xx_hal_msp.o
LOAD ./Core/Src/stm32f4xx_it.o
LOAD ./Core/Src/syscalls.o
LOAD ./Core/Src/sysmem.o
LOAD ./Core/Src/system_stm32f4xx.o
LOAD ./Core/Src/tcpServerRAW.o
LOAD ./Core/Startup/startup_stm32f439zitx.o
LOAD ./Drivers/BSP/Components/lan8742/lan8742.o
LOAD ./Drivers/STM32F4xx_HAL_Driver/Src/stm32f4xx_hal.o
LOAD ./Drivers/STM32F4xx_HAL_Driver/Src/stm32f4xx_hal_adc.o
LOAD ./Drivers/STM32F4xx_HAL_Driver/Src/stm32f4xx_hal_adc_ex.o
LOAD ./Drivers/STM32F4xx_HAL_Driver/Src/stm32f4xx_hal_cortex.o
LOAD ./Drivers/STM32F4xx_HAL_Driver/Src/stm32f4xx_hal_dma.o
LOAD ./Drivers/STM32F4xx_HAL_Driver/Src/stm32f4xx_hal_dma_ex.o
LOAD ./Drivers/STM32F4xx_HAL_Driver/Src/stm32f4xx_hal_eth.o
LOAD ./Drivers/STM32F4xx_HAL_Driver/Src/stm32f4xx_hal_exti.o
LOAD ./Drivers/STM32F4xx_HAL_Driver/Src/stm32f4xx_hal_flash.o
LOAD ./Drivers/STM32F4xx_HAL_Driver/Src/stm32f4xx_hal_flash_ex.o
LOAD ./Drivers/STM32F4xx_HAL_Driver/Src/stm32f4xx_hal_flash_ramfunc.o
LOAD ./Drivers/STM32F4xx_HAL_Driver/Src/stm32f4xx_hal_gpio.o
LOAD ./Drivers/STM32F4xx_HAL_Driver/Src/stm32f4xx_hal_i2c.o
LOAD ./Drivers/STM32F4xx_HAL_Driver/Src/stm32f4xx_hal_i2c_ex.o
LOAD ./Drivers/STM32F4xx_HAL_Driver/Src/stm32f4xx_hal_pcd.o
LOAD ./Drivers/STM32F4xx_HAL_Driver/Src/stm32f4xx_hal_pcd_ex.o
LOAD ./Drivers/STM32F4xx_HAL_Driver/Src/stm32f4xx_hal_pwr.o
LOAD ./Drivers/STM32F4xx_HAL_Driver/Src/stm32f4xx_hal_pwr_ex.o
LOAD ./Drivers/STM32F4xx_HAL_Driver/Src/stm32f4xx_hal_rcc.o
LOAD ./Drivers/STM32F4xx_HAL_Driver/Src/stm32f4xx_hal_rcc_ex.o
LOAD ./Drivers/STM32F4xx_HAL_Driver/Src/stm32f4xx_hal_spi.o
LOAD ./Drivers/STM32F4xx_HAL_Driver/Src/stm32f4xx_hal_tim.o
LOAD ./Drivers/STM32F4xx_HAL_Driver/Src/stm32f4xx_hal_tim_ex.o
LOAD ./Drivers/STM32F4xx_HAL_Driver/Src/stm32f4xx_hal_uart.o
LOAD ./Drivers/STM32F4xx_HAL_Driver/Src/stm32f4xx_ll_adc.o
LOAD ./Drivers/STM32F4xx_HAL_Driver/Src/stm32f4xx_ll_usb.o
LOAD ./LWIP/App/lwip.o
LOAD ./LWIP/Target/ethernetif.o
LOAD ./Middlewares/Third_Party/LwIP/src/api/api_lib.o
LOAD ./Middlewares/Third_Party/LwIP/src/api/api_msg.o
LOAD ./Middlewares/Third_Party/LwIP/src/api/err.o
LOAD ./Middlewares/Third_Party/LwIP/src/api/if_api.o
LOAD ./Middlewares/Third_Party/LwIP/src/api/netbuf.o
LOAD ./Middlewares/Third_Party/LwIP/src/api/netdb.o
LOAD ./Middlewares/Third_Party/LwIP/src/api/netifapi.o
LOAD ./Middlewares/Third_Party/LwIP/src/api/sockets.o
LOAD ./Middlewares/Third_Party/LwIP/src/api/tcpip.o
LOAD ./Middlewares/Third_Party/LwIP/src/apps/mqtt/mqtt.o
LOAD ./Middlewares/Third_Party/LwIP/src/core/altcp.o
LOAD ./Middlewares/Third_Party/LwIP/src/core/altcp_alloc.o
LOAD ./Middlewares/Third_Party/LwIP/src/core/altcp_tcp.o
LOAD ./Middlewares/Third_Party/LwIP/src/core/def.o
LOAD ./Middlewares/Third_Party/LwIP/src/core/dns.o
LOAD ./Middlewares/Third_Party/LwIP/src/core/inet_chksum.o
LOAD ./Middlewares/Third_Party/LwIP/src/core/init.o
LOAD ./Middlewares/Third_Party/LwIP/src/core/ip.o
LOAD ./Middlewares/Third_Party/LwIP/src/core/mem.o
LOAD ./Middlewares/Third_Party/LwIP/src/core/memp.o
LOAD ./Middlewares/Third_Party/LwIP/src/core/netif.o
LOAD ./Middlewares/Third_Party/LwIP/src/core/pbuf.o
LOAD ./Middlewares/Third_Party/LwIP/src/core/raw.o
LOAD ./Middlewares/Third_Party/LwIP/src/core/stats.o
LOAD ./Middlewares/Third_Party/LwIP/src/core/sys.o
LOAD ./Middlewares/Third_Party/LwIP/src/core/tcp.o
LOAD ./Middlewares/Third_Party/LwIP/src/core/tcp_in.o
LOAD ./Middlewares/Third_Party/LwIP/src/core/tcp_out.o
LOAD ./Middlewares/Third_Party/LwIP/src/core/timeouts.o
LOAD ./Middlewares/Third_Party/LwIP/src/core/udp.o
LOAD ./Middlewares/Third_Party/LwIP/src/core/ipv4/autoip.o
LOAD ./Middlewares/Third_Party/LwIP/src/core/ipv4/dhcp.o
LOAD ./Middlewares/Third_Party/LwIP/src/core/ipv4/etharp.o
LOAD ./Middlewares/Third_Party/LwIP/src/core/ipv4/icmp.o
LOAD ./Middlewares/Third_Party/LwIP/src/core/ipv4/igmp.o
LOAD ./Middlewares/Third_Party/LwIP/src/core/ipv4/ip4.o
LOAD ./Middlewares/Third_Party/LwIP/src/core/ipv4/ip4_addr.o
LOAD ./Middlewares/Third_Party/LwIP/src/core/ipv4/ip4_frag.o
LOAD ./Middlewares/Third_Party/LwIP/src/core/ipv6/dhcp6.o
LOAD ./Middlewares/Third_Party/LwIP/src/core/ipv6/ethip6.o
LOAD ./Middlewares/Third_Party/LwIP/src/core/ipv6/icmp6.o
LOAD ./Middlewares/Third_Party/LwIP/src/core/ipv6/inet6.o
LOAD ./Middlewares/Third_Party/LwIP/src/core/ipv6/ip6.o
LOAD ./Middlewares/Third_Party/LwIP/src/core/ipv6/ip6_addr.o
LOAD ./Middlewares/Third_Party/LwIP/src/core/ipv6/ip6_frag.o
LOAD ./Middlewares/Third_Party/LwIP/src/core/ipv6/mld6.o
LOAD ./Middlewares/Third_Party/LwIP/src/core/ipv6/nd6.o
LOAD ./Middlewares/Third_Party/LwIP/src/netif/bridgeif.o
LOAD ./Middlewares/Third_Party/LwIP/src/netif/bridgeif_fdb.o
LOAD ./Middlewares/Third_Party/LwIP/src/netif/ethernet.o
LOAD ./Middlewares/Third_Party/LwIP/src/netif/lowpan6.o
LOAD ./Middlewares/Third_Party/LwIP/src/netif/lowpan6_ble.o
LOAD ./Middlewares/Third_Party/LwIP/src/netif/lowpan6_common.o
LOAD ./Middlewares/Third_Party/LwIP/src/netif/slipif.o
LOAD ./Middlewares/Third_Party/LwIP/src/netif/zepif.o
LOAD ./Middlewares/Third_Party/LwIP/src/netif/ppp/auth.o
LOAD ./Middlewares/Third_Party/LwIP/src/netif/ppp/ccp.o
LOAD ./Middlewares/Third_Party/LwIP/src/netif/ppp/chap-md5.o
LOAD ./Middlewares/Third_Party/LwIP/src/netif/ppp/chap-new.o
LOAD ./Middlewares/Third_Party/LwIP/src/netif/ppp/chap_ms.o
LOAD ./Middlewares/Third_Party/LwIP/src/netif/ppp/demand.o
LOAD ./Middlewares/Third_Party/LwIP/src/netif/ppp/eap.o
LOAD ./Middlewares/Third_Party/LwIP/src/netif/ppp/ecp.o
LOAD ./Middlewares/Third_Party/LwIP/src/netif/ppp/eui64.o
LOAD ./Middlewares/Third_Party/LwIP/src/netif/ppp/fsm.o
LOAD ./Middlewares/Third_Party/LwIP/src/netif/ppp/ipcp.o
LOAD ./Middlewares/Third_Party/LwIP/src/netif/ppp/ipv6cp.o
LOAD ./Middlewares/Third_Party/LwIP/src/netif/ppp/lcp.o
LOAD ./Middlewares/Third_Party/LwIP/src/netif/ppp/magic.o
LOAD ./Middlewares/Third_Party/LwIP/src/netif/ppp/mppe.o
LOAD ./Middlewares/Third_Party/LwIP/src/netif/ppp/multilink.o
LOAD ./Middlewares/Third_Party/LwIP/src/netif/ppp/ppp.o
LOAD ./Middlewares/Third_Party/LwIP/src/netif/ppp/pppapi.o
LOAD ./Middlewares/Third_Party/LwIP/src/netif/ppp/pppcrypt.o
LOAD ./Middlewares/Third_Party/LwIP/src/netif/ppp/pppoe.o
LOAD ./Middlewares/Third_Party/LwIP/src/netif/ppp/pppol2tp.o
LOAD ./Middlewares/Third_Party/LwIP/src/netif/ppp/pppos.o
LOAD ./Middlewares/Third_Party/LwIP/src/netif/ppp/upap.o
LOAD ./Middlewares/Third_Party/LwIP/src/netif/ppp/utils.o
LOAD ./Middlewares/Third_Party/LwIP/src/netif/ppp/vj.o
START GROUP
LOAD c:/st/stm32cubeide_1.9.0/stm32cubeide/plugins/com.st.stm32cube.ide.mcu.externaltools.gnu-tools-for-stm32.10.3-2021.10.win32_1.0.200.202301161003/tools/bin/../lib/gcc/arm-none-eabi/10.3.1/../../../../arm-none-eabi/lib/thumb/v7e-m+fp/hard\libc_nano.a
LOAD c:/st/stm32cubeide_1.9.0/stm32cubeide/plugins/com.st.stm32cube.ide.mcu.externaltools.gnu-tools-for-stm32.10.3-2021.10.win32_1.0.200.202301161003/tools/bin/../lib/gcc/arm-none-eabi/10.3.1/../../../../arm-none-eabi/lib/thumb/v7e-m+fp/hard\libm.a
END GROUP
START GROUP
LOAD c:/st/stm32cubeide_1.9.0/stm32cubeide/plugins/com.st.stm32cube.ide.mcu.externaltools.gnu-tools-for-stm32.10.3-2021.10.win32_1.0.200.202301161003/tools/bin/../lib/gcc/arm-none-eabi/10.3.1/thumb/v7e-m+fp/hard\libgcc.a
LOAD c:/st/stm32cubeide_1.9.0/stm32cubeide/plugins/com.st.stm32cube.ide.mcu.externaltools.gnu-tools-for-stm32.10.3-2021.10.win32_1.0.200.202301161003/tools/bin/../lib/gcc/arm-none-eabi/10.3.1/../../../../arm-none-eabi/lib/thumb/v7e-m+fp/hard\libc_nano.a
END GROUP
START GROUP
LOAD c:/st/stm32cubeide_1.9.0/stm32cubeide/plugins/com.st.stm32cube.ide.mcu.externaltools.gnu-tools-for-stm32.10.3-2021.10.win32_1.0.200.202301161003/tools/bin/../lib/gcc/arm-none-eabi/10.3.1/thumb/v7e-m+fp/hard\libgcc.a
LOAD c:/st/stm32cubeide_1.9.0/stm32cubeide/plugins/com.st.stm32cube.ide.mcu.externaltools.gnu-tools-for-stm32.10.3-2021.10.win32_1.0.200.202301161003/tools/bin/../lib/gcc/arm-none-eabi/10.3.1/../../../../arm-none-eabi/lib/thumb/v7e-m+fp/hard\libc_nano.a
LOAD c:/st/stm32cubeide_1.9.0/stm32cubeide/plugins/com.st.stm32cube.ide.mcu.externaltools.gnu-tools-for-stm32.10.3-2021.10.win32_1.0.200.202301161003/tools/bin/../lib/gcc/arm-none-eabi/10.3.1/../../../../arm-none-eabi/lib/thumb/v7e-m+fp/hard\libnosys.a
END GROUP
START GROUP
LOAD c:/st/stm32cubeide_1.9.0/stm32cubeide/plugins/com.st.stm32cube.ide.mcu.externaltools.gnu-tools-for-stm32.10.3-2021.10.win32_1.0.200.202301161003/tools/bin/../lib/gcc/arm-none-eabi/10.3.1/thumb/v7e-m+fp/hard\libgcc.a
LOAD c:/st/stm32cubeide_1.9.0/stm32cubeide/plugins/com.st.stm32cube.ide.mcu.externaltools.gnu-tools-for-stm32.10.3-2021.10.win32_1.0.200.202301161003/tools/bin/../lib/gcc/arm-none-eabi/10.3.1/../../../../arm-none-eabi/lib/thumb/v7e-m+fp/hard\libc_nano.a
LOAD c:/st/stm32cubeide_1.9.0/stm32cubeide/plugins/com.st.stm32cube.ide.mcu.externaltools.gnu-tools-for-stm32.10.3-2021.10.win32_1.0.200.202301161003/tools/bin/../lib/gcc/arm-none-eabi/10.3.1/../../../../arm-none-eabi/lib/thumb/v7e-m+fp/hard\libnosys.a
END GROUP
LOAD c:/st/stm32cubeide_1.9.0/stm32cubeide/plugins/com.st.stm32cube.ide.mcu.externaltools.gnu-tools-for-stm32.10.3-2021.10.win32_1.0.200.202301161003/tools/bin/../lib/gcc/arm-none-eabi/10.3.1/thumb/v7e-m+fp/hard/crtend.o
LOAD c:/st/stm32cubeide_1.9.0/stm32cubeide/plugins/com.st.stm32cube.ide.mcu.externaltools.gnu-tools-for-stm32.10.3-2021.10.win32_1.0.200.202301161003/tools/bin/../lib/gcc/arm-none-eabi/10.3.1/thumb/v7e-m+fp/hard/crtn.o
                0x0000000020030000                _estack = (ORIGIN (RAM) + LENGTH (RAM))
                0x0000000000000200                _Min_Heap_Size = 0x200
                0x0000000000000400                _Min_Stack_Size = 0x400

.isr_vector     0x0000000008000000      0x1ac
                0x0000000008000000                . = ALIGN (0x4)
 *(.isr_vector)
 .isr_vector    0x0000000008000000      0x1ac ./Core/Startup/startup_stm32f439zitx.o
                0x0000000008000000                g_pfnVectors
                0x00000000080001ac                . = ALIGN (0x4)

.text           0x00000000080001b0     0xd5c8
                0x00000000080001b0                . = ALIGN (0x4)
 *(.text)
 .text          0x00000000080001b0       0x40 c:/st/stm32cubeide_1.9.0/stm32cubeide/plugins/com.st.stm32cube.ide.mcu.externaltools.gnu-tools-for-stm32.10.3-2021.10.win32_1.0.200.202301161003/tools/bin/../lib/gcc/arm-none-eabi/10.3.1/thumb/v7e-m+fp/hard/crtbegin.o
 .text          0x00000000080001f0       0x10 c:/st/stm32cubeide_1.9.0/stm32cubeide/plugins/com.st.stm32cube.ide.mcu.externaltools.gnu-tools-for-stm32.10.3-2021.10.win32_1.0.200.202301161003/tools/bin/../lib/gcc/arm-none-eabi/10.3.1/../../../../arm-none-eabi/lib/thumb/v7e-m+fp/hard\libc_nano.a(lib_a-strlen.o)
                0x00000000080001f0                strlen
 .text          0x0000000008000200       0xa0 c:/st/stm32cubeide_1.9.0/stm32cubeide/plugins/com.st.stm32cube.ide.mcu.externaltools.gnu-tools-for-stm32.10.3-2021.10.win32_1.0.200.202301161003/tools/bin/../lib/gcc/arm-none-eabi/10.3.1/../../../../arm-none-eabi/lib/thumb/v7e-m+fp/hard\libc_nano.a(lib_a-memchr.o)
                0x0000000008000200                memchr
 .text          0x00000000080002a0      0x254 c:/st/stm32cubeide_1.9.0/stm32cubeide/plugins/com.st.stm32cube.ide.mcu.externaltools.gnu-tools-for-stm32.10.3-2021.10.win32_1.0.200.202301161003/tools/bin/../lib/gcc/arm-none-eabi/10.3.1/thumb/v7e-m+fp/hard\libgcc.a(_arm_muldf3.o)
                0x00000000080002a0                __muldf3
                0x00000000080002a0                __aeabi_dmul
 .text          0x00000000080004f4      0x378 c:/st/stm32cubeide_1.9.0/stm32cubeide/plugins/com.st.stm32cube.ide.mcu.externaltools.gnu-tools-for-stm32.10.3-2021.10.win32_1.0.200.202301161003/tools/bin/../lib/gcc/arm-none-eabi/10.3.1/thumb/v7e-m+fp/hard\libgcc.a(_arm_addsubdf3.o)
                0x00000000080004f4                __aeabi_drsub
                0x00000000080004fc                __aeabi_dsub
                0x00000000080004fc                __subdf3
                0x0000000008000500                __aeabi_dadd
                0x0000000008000500                __adddf3
                0x0000000008000778                __floatunsidf
                0x0000000008000778                __aeabi_ui2d
                0x0000000008000798                __floatsidf
                0x0000000008000798                __aeabi_i2d
                0x00000000080007bc                __aeabi_f2d
                0x00000000080007bc                __extendsfdf2
                0x0000000008000800                __floatundidf
                0x0000000008000800                __aeabi_ul2d
                0x0000000008000810                __floatdidf
                0x0000000008000810                __aeabi_l2d
 .text          0x000000000800086c       0xa0 c:/st/stm32cubeide_1.9.0/stm32cubeide/plugins/com.st.stm32cube.ide.mcu.externaltools.gnu-tools-for-stm32.10.3-2021.10.win32_1.0.200.202301161003/tools/bin/../lib/gcc/arm-none-eabi/10.3.1/thumb/v7e-m+fp/hard\libgcc.a(_arm_truncdfsf2.o)
                0x000000000800086c                __truncdfsf2
                0x000000000800086c                __aeabi_d2f
 .text          0x000000000800090c       0x30 c:/st/stm32cubeide_1.9.0/stm32cubeide/plugins/com.st.stm32cube.ide.mcu.externaltools.gnu-tools-for-stm32.10.3-2021.10.win32_1.0.200.202301161003/tools/bin/../lib/gcc/arm-none-eabi/10.3.1/thumb/v7e-m+fp/hard\libgcc.a(_aeabi_uldivmod.o)
                0x000000000800090c                __aeabi_uldivmod
 .text          0x000000000800093c      0x2d0 c:/st/stm32cubeide_1.9.0/stm32cubeide/plugins/com.st.stm32cube.ide.mcu.externaltools.gnu-tools-for-stm32.10.3-2021.10.win32_1.0.200.202301161003/tools/bin/../lib/gcc/arm-none-eabi/10.3.1/thumb/v7e-m+fp/hard\libgcc.a(_udivmoddi4.o)
                0x000000000800093c                __udivmoddi4
 .text          0x0000000008000c0c        0x4 c:/st/stm32cubeide_1.9.0/stm32cubeide/plugins/com.st.stm32cube.ide.mcu.externaltools.gnu-tools-for-stm32.10.3-2021.10.win32_1.0.200.202301161003/tools/bin/../lib/gcc/arm-none-eabi/10.3.1/thumb/v7e-m+fp/hard\libgcc.a(_dvmd_tls.o)
                0x0000000008000c0c                __aeabi_idiv0
                0x0000000008000c0c                __aeabi_ldiv0
 *(.text*)
 .text.DeviceInit
                0x0000000008000c10       0x1c ./Core/Src/CY15B104QSN.o
                0x0000000008000c10                DeviceInit
 .text.DeviceCreateConstantData
                0x0000000008000c2c       0x10 ./Core/Src/CY15B104QSN.o
                0x0000000008000c2c                DeviceCreateConstantData
 .text.DeviceCreateVariableData
                0x0000000008000c3c       0x18 ./Core/Src/CY15B104QSN.o
                0x0000000008000c3c                DeviceCreateVariableData
 .text.DeviceWriteData
                0x0000000008000c54       0x70 ./Core/Src/CY15B104QSN.o
                0x0000000008000c54                DeviceWriteData
 .text.DeviceReadData
                0x0000000008000cc4       0x84 ./Core/Src/CY15B104QSN.o
                0x0000000008000cc4                DeviceReadData
 .text.DeviceStartWrite
                0x0000000008000d48       0x2c ./Core/Src/CY15B104QSN.o
                0x0000000008000d48                DeviceStartWrite
 .text.DeviceWriteDone
                0x0000000008000d74       0x64 ./Core/Src/CY15B104QSN.o
                0x0000000008000d74                DeviceWriteDone
 .text.DeviceStartRead
                0x0000000008000dd8       0x30 ./Core/Src/CY15B104QSN.o
                0x0000000008000dd8                DeviceStartRead
 .text.DeviceChange_NUMBER_READ_TEST
                0x0000000008000e08        0xc ./Core/Src/CY15B104QSN.o
                0x0000000008000e08                DeviceChange_NUMBER_READ_TEST
 .text.DeviceValidate
                0x0000000008000e14       0x40 ./Core/Src/CY15B104QSN.o
                0x0000000008000e14                DeviceValidate
 .text.CY15B104QSN_ClearECCRegister
                0x0000000008000e54       0x44 ./Core/Src/CY15B104QSN.o
                0x0000000008000e54                CY15B104QSN_ClearECCRegister
 .text.CY15B104QSN_ReadECCRegister
                0x0000000008000e98       0x4c ./Core/Src/CY15B104QSN.o
                0x0000000008000e98                CY15B104QSN_ReadECCRegister
 .text.DeviceReadDone
                0x0000000008000ee4       0x8c ./Core/Src/CY15B104QSN.o
                0x0000000008000ee4                DeviceReadDone
 .text.SetChipSelect
                0x0000000008000f70       0x70 ./Core/Src/SPI.o
                0x0000000008000f70                SetChipSelect
 .text.__io_putchar
                0x0000000008000fe0       0x20 ./Core/Src/general.o
                0x0000000008000fe0                __io_putchar
 .text.ModuleSetSupply
                0x0000000008001000       0x74 ./Core/Src/general.o
                0x0000000008001000                ModuleSetSupply
 .text.ModuleResetSupply
                0x0000000008001074       0x16 ./Core/Src/general.o
                0x0000000008001074                ModuleResetSupply
 *fill*         0x000000000800108a        0x2 
 .text.ProcessADC
                0x000000000800108c      0x29c ./Core/Src/general.o
                0x000000000800108c                ProcessADC
 .text.HAL_ADC_ConvCpltCallback
                0x0000000008001328       0x28 ./Core/Src/main.o
                0x0000000008001328                HAL_ADC_ConvCpltCallback
 .text.HAL_SPI_TxCpltCallback
                0x0000000008001350       0x14 ./Core/Src/main.o
                0x0000000008001350                HAL_SPI_TxCpltCallback
 .text.HAL_SPI_TxRxCpltCallback
                0x0000000008001364       0x14 ./Core/Src/main.o
                0x0000000008001364                HAL_SPI_TxRxCpltCallback
 .text.SystemClock_Config
                0x0000000008001378       0xa4 ./Core/Src/main.o
                0x0000000008001378                SystemClock_Config
 .text.startup.main
                0x000000000800141c      0x574 ./Core/Src/main.o
                0x000000000800141c                main
 .text.Error_Handler
                0x0000000008001990        0x4 ./Core/Src/main.o
                0x0000000008001990                Error_Handler
 .text.HAL_MspInit
                0x0000000008001994       0x38 ./Core/Src/stm32f4xx_hal_msp.o
                0x0000000008001994                HAL_MspInit
 .text.HAL_ADC_MspInit
                0x00000000080019cc      0x168 ./Core/Src/stm32f4xx_hal_msp.o
                0x00000000080019cc                HAL_ADC_MspInit
 .text.HAL_I2C_MspInit
                0x0000000008001b34       0x6c ./Core/Src/stm32f4xx_hal_msp.o
                0x0000000008001b34                HAL_I2C_MspInit
 .text.HAL_SPI_MspInit
                0x0000000008001ba0       0xe0 ./Core/Src/stm32f4xx_hal_msp.o
                0x0000000008001ba0                HAL_SPI_MspInit
 .text.HAL_TIM_Base_MspInit
                0x0000000008001c80       0x74 ./Core/Src/stm32f4xx_hal_msp.o
                0x0000000008001c80                HAL_TIM_Base_MspInit
 .text.HAL_UART_MspInit
                0x0000000008001cf4       0x6c ./Core/Src/stm32f4xx_hal_msp.o
                0x0000000008001cf4                HAL_UART_MspInit
 .text.HAL_PCD_MspInit
                0x0000000008001d60       0x84 ./Core/Src/stm32f4xx_hal_msp.o
                0x0000000008001d60                HAL_PCD_MspInit
 .text.NMI_Handler
                0x0000000008001de4        0x2 ./Core/Src/stm32f4xx_it.o
                0x0000000008001de4                NMI_Handler
 .text.HardFault_Handler
                0x0000000008001de6        0x2 ./Core/Src/stm32f4xx_it.o
                0x0000000008001de6                HardFault_Handler
 .text.MemManage_Handler
                0x0000000008001de8        0x2 ./Core/Src/stm32f4xx_it.o
                0x0000000008001de8                MemManage_Handler
 .text.BusFault_Handler
                0x0000000008001dea        0x2 ./Core/Src/stm32f4xx_it.o
                0x0000000008001dea                BusFault_Handler
 .text.UsageFault_Handler
                0x0000000008001dec        0x2 ./Core/Src/stm32f4xx_it.o
                0x0000000008001dec                UsageFault_Handler
 .text.SVC_Handler
                0x0000000008001dee        0x2 ./Core/Src/stm32f4xx_it.o
                0x0000000008001dee                SVC_Handler
 .text.DebugMon_Handler
                0x0000000008001df0        0x2 ./Core/Src/stm32f4xx_it.o
                0x0000000008001df0                DebugMon_Handler
 .text.PendSV_Handler
                0x0000000008001df2        0x2 ./Core/Src/stm32f4xx_it.o
                0x0000000008001df2                PendSV_Handler
 .text.SysTick_Handler
                0x0000000008001df4        0x4 ./Core/Src/stm32f4xx_it.o
                0x0000000008001df4                SysTick_Handler
 .text.TIM6_DAC_IRQHandler
                0x0000000008001df8        0xc ./Core/Src/stm32f4xx_it.o
                0x0000000008001df8                TIM6_DAC_IRQHandler
 .text.TIM7_IRQHandler
                0x0000000008001e04        0xc ./Core/Src/stm32f4xx_it.o
                0x0000000008001e04                TIM7_IRQHandler
 .text.DMA2_Stream0_IRQHandler
                0x0000000008001e10        0xc ./Core/Src/stm32f4xx_it.o
                0x0000000008001e10                DMA2_Stream0_IRQHandler
 .text.DMA2_Stream1_IRQHandler
                0x0000000008001e1c        0xc ./Core/Src/stm32f4xx_it.o
                0x0000000008001e1c                DMA2_Stream1_IRQHandler
 .text.DMA2_Stream2_IRQHandler
                0x0000000008001e28        0xc ./Core/Src/stm32f4xx_it.o
                0x0000000008001e28                DMA2_Stream2_IRQHandler
 .text.DMA2_Stream3_IRQHandler
                0x0000000008001e34        0xc ./Core/Src/stm32f4xx_it.o
                0x0000000008001e34                DMA2_Stream3_IRQHandler
 .text._getpid  0x0000000008001e40        0x4 ./Core/Src/syscalls.o
                0x0000000008001e40                _getpid
 .text._kill    0x0000000008001e44       0x10 ./Core/Src/syscalls.o
                0x0000000008001e44                _kill
 .text._exit    0x0000000008001e54        0xc ./Core/Src/syscalls.o
                0x0000000008001e54                _exit
 .text._read    0x0000000008001e60       0x1c ./Core/Src/syscalls.o
                0x0000000008001e60                _read
 .text._write   0x0000000008001e7c       0x1c ./Core/Src/syscalls.o
                0x0000000008001e7c                _write
 .text._close   0x0000000008001e98        0x6 ./Core/Src/syscalls.o
                0x0000000008001e98                _close
 .text._fstat   0x0000000008001e9e        0xa ./Core/Src/syscalls.o
                0x0000000008001e9e                _fstat
 .text._isatty  0x0000000008001ea8        0x4 ./Core/Src/syscalls.o
                0x0000000008001ea8                _isatty
 .text._lseek   0x0000000008001eac        0x4 ./Core/Src/syscalls.o
                0x0000000008001eac                _lseek
 .text._sbrk    0x0000000008001eb0       0x40 ./Core/Src/sysmem.o
                0x0000000008001eb0                _sbrk
 .text.SystemInit
                0x0000000008001ef0       0x14 ./Core/Src/system_stm32f4xx.o
                0x0000000008001ef0                SystemInit
 .text.tcp_server_acknowledge
                0x0000000008001f04       0x28 ./Core/Src/tcpServerRAW.o
 .text.tcp_server_send
                0x0000000008001f2c       0x32 ./Core/Src/tcpServerRAW.o
 .text.tcp_server_error
                0x0000000008001f5e        0x8 ./Core/Src/tcpServerRAW.o
 *fill*         0x0000000008001f66        0x2 
 .text.tcp_server_handle
                0x0000000008001f68      0x160 ./Core/Src/tcpServerRAW.o
 .text.tcp_server_connection_close
                0x00000000080020c8       0x40 ./Core/Src/tcpServerRAW.o
 .text.tcp_server_accept
                0x0000000008002108       0x5c ./Core/Src/tcpServerRAW.o
 .text.tcp_server_recv
                0x0000000008002164       0xa0 ./Core/Src/tcpServerRAW.o
 .text.tcp_server_poll
                0x0000000008002204       0x44 ./Core/Src/tcpServerRAW.o
 .text.tcp_server_sent
                0x0000000008002248       0x38 ./Core/Src/tcpServerRAW.o
 .text.tcp_server_init
                0x0000000008002280       0x3c ./Core/Src/tcpServerRAW.o
                0x0000000008002280                tcp_server_init
 .text.Reset_Handler
                0x00000000080022bc       0x50 ./Core/Startup/startup_stm32f439zitx.o
                0x00000000080022bc                Reset_Handler
 .text.Default_Handler
                0x000000000800230c        0x2 ./Core/Startup/startup_stm32f439zitx.o
                0x000000000800230c                RTC_Alarm_IRQHandler
                0x000000000800230c                HASH_RNG_IRQHandler
                0x000000000800230c                EXTI2_IRQHandler
                0x000000000800230c                TIM8_CC_IRQHandler
                0x000000000800230c                UART8_IRQHandler
                0x000000000800230c                SPI4_IRQHandler
                0x000000000800230c                TIM1_CC_IRQHandler
                0x000000000800230c                DMA2_Stream5_IRQHandler
                0x000000000800230c                DMA1_Stream5_IRQHandler
                0x000000000800230c                PVD_IRQHandler
                0x000000000800230c                SDIO_IRQHandler
                0x000000000800230c                TAMP_STAMP_IRQHandler
                0x000000000800230c                CAN2_RX1_IRQHandler
                0x000000000800230c                EXTI3_IRQHandler
                0x000000000800230c                TIM8_TRG_COM_TIM14_IRQHandler
                0x000000000800230c                TIM1_UP_TIM10_IRQHandler
                0x000000000800230c                TIM8_UP_TIM13_IRQHandler
                0x000000000800230c                I2C3_ER_IRQHandler
                0x000000000800230c                EXTI0_IRQHandler
                0x000000000800230c                I2C2_EV_IRQHandler
                0x000000000800230c                DMA1_Stream2_IRQHandler
                0x000000000800230c                CAN1_RX0_IRQHandler
                0x000000000800230c                FPU_IRQHandler
                0x000000000800230c                OTG_HS_WKUP_IRQHandler
                0x000000000800230c                LTDC_ER_IRQHandler
                0x000000000800230c                CAN2_SCE_IRQHandler
                0x000000000800230c                SPI1_IRQHandler
                0x000000000800230c                TIM1_BRK_TIM9_IRQHandler
                0x000000000800230c                DCMI_IRQHandler
                0x000000000800230c                CAN2_RX0_IRQHandler
                0x000000000800230c                USART6_IRQHandler
                0x000000000800230c                USART3_IRQHandler
                0x000000000800230c                CRYP_IRQHandler
                0x000000000800230c                CAN1_RX1_IRQHandler
                0x000000000800230c                UART5_IRQHandler
                0x000000000800230c                TIM4_IRQHandler
                0x000000000800230c                I2C1_EV_IRQHandler
                0x000000000800230c                DMA1_Stream6_IRQHandler
                0x000000000800230c                DMA1_Stream1_IRQHandler
                0x000000000800230c                UART4_IRQHandler
                0x000000000800230c                TIM3_IRQHandler
                0x000000000800230c                RCC_IRQHandler
                0x000000000800230c                TIM8_BRK_TIM12_IRQHandler
                0x000000000800230c                Default_Handler
                0x000000000800230c                EXTI15_10_IRQHandler
                0x000000000800230c                ADC_IRQHandler
                0x000000000800230c                DMA1_Stream7_IRQHandler
                0x000000000800230c                SPI5_IRQHandler
                0x000000000800230c                CAN2_TX_IRQHandler
                0x000000000800230c                TIM5_IRQHandler
                0x000000000800230c                DMA2_Stream7_IRQHandler
                0x000000000800230c                I2C3_EV_IRQHandler
                0x000000000800230c                EXTI9_5_IRQHandler
                0x000000000800230c                RTC_WKUP_IRQHandler
                0x000000000800230c                LTDC_IRQHandler
                0x000000000800230c                ETH_WKUP_IRQHandler
                0x000000000800230c                SPI2_IRQHandler
                0x000000000800230c                OTG_HS_EP1_IN_IRQHandler
                0x000000000800230c                DMA1_Stream0_IRQHandler
                0x000000000800230c                CAN1_TX_IRQHandler
                0x000000000800230c                EXTI4_IRQHandler
                0x000000000800230c                ETH_IRQHandler
                0x000000000800230c                OTG_HS_EP1_OUT_IRQHandler
                0x000000000800230c                WWDG_IRQHandler
                0x000000000800230c                SPI6_IRQHandler
                0x000000000800230c                TIM2_IRQHandler
                0x000000000800230c                OTG_FS_WKUP_IRQHandler
                0x000000000800230c                TIM1_TRG_COM_TIM11_IRQHandler
                0x000000000800230c                OTG_HS_IRQHandler
                0x000000000800230c                DMA2D_IRQHandler
                0x000000000800230c                EXTI1_IRQHandler
                0x000000000800230c                UART7_IRQHandler
                0x000000000800230c                USART2_IRQHandler
                0x000000000800230c                I2C2_ER_IRQHandler
                0x000000000800230c                CAN1_SCE_IRQHandler
                0x000000000800230c                FLASH_IRQHandler
                0x000000000800230c                DMA2_Stream4_IRQHandler
                0x000000000800230c                USART1_IRQHandler
                0x000000000800230c                OTG_FS_IRQHandler
                0x000000000800230c                SPI3_IRQHandler
                0x000000000800230c                DMA1_Stream4_IRQHandler
                0x000000000800230c                I2C1_ER_IRQHandler
                0x000000000800230c                FMC_IRQHandler
                0x000000000800230c                DMA2_Stream6_IRQHandler
                0x000000000800230c                SAI1_IRQHandler
                0x000000000800230c                DMA1_Stream3_IRQHandler
 .text.LAN8742_RegisterBusIO
                0x000000000800230e       0x28 ./Drivers/BSP/Components/lan8742/lan8742.o
                0x000000000800230e                LAN8742_RegisterBusIO
 .text.LAN8742_Init
                0x0000000008002336       0xc2 ./Drivers/BSP/Components/lan8742/lan8742.o
                0x0000000008002336                LAN8742_Init
 .text.LAN8742_GetLinkState
                0x00000000080023f8       0x94 ./Drivers/BSP/Components/lan8742/lan8742.o
                0x00000000080023f8                LAN8742_GetLinkState
 .text.HAL_InitTick
                0x000000000800248c       0x48 ./Drivers/STM32F4xx_HAL_Driver/Src/stm32f4xx_hal.o
                0x000000000800248c                HAL_InitTick
 .text.HAL_Init
                0x00000000080024d4       0x34 ./Drivers/STM32F4xx_HAL_Driver/Src/stm32f4xx_hal.o
                0x00000000080024d4                HAL_Init
 .text.HAL_IncTick
                0x0000000008002508       0x18 ./Drivers/STM32F4xx_HAL_Driver/Src/stm32f4xx_hal.o
                0x0000000008002508                HAL_IncTick
 .text.HAL_GetTick
                0x0000000008002520        0xc ./Drivers/STM32F4xx_HAL_Driver/Src/stm32f4xx_hal.o
                0x0000000008002520                HAL_GetTick
 .text.HAL_Delay
                0x000000000800252c       0x28 ./Drivers/STM32F4xx_HAL_Driver/Src/stm32f4xx_hal.o
                0x000000000800252c                HAL_Delay
 .text.HAL_ADC_Init
                0x0000000008002554      0x14c ./Drivers/STM32F4xx_HAL_Driver/Src/stm32f4xx_hal_adc.o
                0x0000000008002554                HAL_ADC_Init
 .text.HAL_ADC_Start_DMA
                0x00000000080026a0      0x154 ./Drivers/STM32F4xx_HAL_Driver/Src/stm32f4xx_hal_adc.o
                0x00000000080026a0                HAL_ADC_Start_DMA
 .text.HAL_ADC_ConvHalfCpltCallback
                0x00000000080027f4        0x2 ./Drivers/STM32F4xx_HAL_Driver/Src/stm32f4xx_hal_adc.o
                0x00000000080027f4                HAL_ADC_ConvHalfCpltCallback
 .text.ADC_DMAHalfConvCplt
                0x00000000080027f6        0xa ./Drivers/STM32F4xx_HAL_Driver/Src/stm32f4xx_hal_adc.o
 .text.HAL_ADC_ErrorCallback
                0x0000000008002800        0x2 ./Drivers/STM32F4xx_HAL_Driver/Src/stm32f4xx_hal_adc.o
                0x0000000008002800                HAL_ADC_ErrorCallback
 .text.ADC_DMAError
                0x0000000008002802       0x16 ./Drivers/STM32F4xx_HAL_Driver/Src/stm32f4xx_hal_adc.o
 .text.ADC_DMAConvCplt
                0x0000000008002818       0x6c ./Drivers/STM32F4xx_HAL_Driver/Src/stm32f4xx_hal_adc.o
 .text.HAL_ADC_ConfigChannel
                0x0000000008002884      0x138 ./Drivers/STM32F4xx_HAL_Driver/Src/stm32f4xx_hal_adc.o
                0x0000000008002884                HAL_ADC_ConfigChannel
 .text.HAL_NVIC_SetPriorityGrouping
                0x00000000080029bc       0x24 ./Drivers/STM32F4xx_HAL_Driver/Src/stm32f4xx_hal_cortex.o
                0x00000000080029bc                HAL_NVIC_SetPriorityGrouping
 .text.HAL_NVIC_SetPriority
                0x00000000080029e0       0x64 ./Drivers/STM32F4xx_HAL_Driver/Src/stm32f4xx_hal_cortex.o
                0x00000000080029e0                HAL_NVIC_SetPriority
 .text.HAL_NVIC_EnableIRQ
                0x0000000008002a44       0x1c ./Drivers/STM32F4xx_HAL_Driver/Src/stm32f4xx_hal_cortex.o
                0x0000000008002a44                HAL_NVIC_EnableIRQ
 .text.HAL_SYSTICK_Config
                0x0000000008002a60       0x28 ./Drivers/STM32F4xx_HAL_Driver/Src/stm32f4xx_hal_cortex.o
                0x0000000008002a60                HAL_SYSTICK_Config
 .text.DMA_CalcBaseAndBitshift
                0x0000000008002a88       0x2c ./Drivers/STM32F4xx_HAL_Driver/Src/stm32f4xx_hal_dma.o
 .text.HAL_DMA_Init
                0x0000000008002ab4      0x100 ./Drivers/STM32F4xx_HAL_Driver/Src/stm32f4xx_hal_dma.o
                0x0000000008002ab4                HAL_DMA_Init
 .text.HAL_DMA_Start_IT
                0x0000000008002bb4       0x74 ./Drivers/STM32F4xx_HAL_Driver/Src/stm32f4xx_hal_dma.o
                0x0000000008002bb4                HAL_DMA_Start_IT
 .text.HAL_DMA_IRQHandler
                0x0000000008002c28      0x17c ./Drivers/STM32F4xx_HAL_Driver/Src/stm32f4xx_hal_dma.o
                0x0000000008002c28                HAL_DMA_IRQHandler
 .text.ETH_Prepare_Tx_Descriptors
                0x0000000008002da4      0x154 ./Drivers/STM32F4xx_HAL_Driver/Src/stm32f4xx_hal_eth.o
 .text.ETH_SetMACConfig
                0x0000000008002ef8      0x108 ./Drivers/STM32F4xx_HAL_Driver/Src/stm32f4xx_hal_eth.o
 .text.ETH_SetDMAConfig
                0x0000000008003000       0xac ./Drivers/STM32F4xx_HAL_Driver/Src/stm32f4xx_hal_eth.o
 .text.ETH_FlushTransmitFIFO
                0x00000000080030ac       0x2e ./Drivers/STM32F4xx_HAL_Driver/Src/stm32f4xx_hal_eth.o
 *fill*         0x00000000080030da        0x2 
 .text.ETH_UpdateDescriptor
                0x00000000080030dc       0x90 ./Drivers/STM32F4xx_HAL_Driver/Src/stm32f4xx_hal_eth.o
 .text.HAL_ETH_Init
                0x000000000800316c      0x1d4 ./Drivers/STM32F4xx_HAL_Driver/Src/stm32f4xx_hal_eth.o
                0x000000000800316c                HAL_ETH_Init
 .text.HAL_ETH_Start
                0x0000000008003340       0x6c ./Drivers/STM32F4xx_HAL_Driver/Src/stm32f4xx_hal_eth.o
                0x0000000008003340                HAL_ETH_Start
 .text.HAL_ETH_Stop
                0x00000000080033ac       0x64 ./Drivers/STM32F4xx_HAL_Driver/Src/stm32f4xx_hal_eth.o
                0x00000000080033ac                HAL_ETH_Stop
 .text.HAL_ETH_Transmit
                0x0000000008003410       0xb0 ./Drivers/STM32F4xx_HAL_Driver/Src/stm32f4xx_hal_eth.o
                0x0000000008003410                HAL_ETH_Transmit
 .text.HAL_ETH_ReadData
                0x00000000080034c0       0xfa ./Drivers/STM32F4xx_HAL_Driver/Src/stm32f4xx_hal_eth.o
                0x00000000080034c0                HAL_ETH_ReadData
 .text.HAL_ETH_ReadPHYRegister
                0x00000000080035ba       0x50 ./Drivers/STM32F4xx_HAL_Driver/Src/stm32f4xx_hal_eth.o
                0x00000000080035ba                HAL_ETH_ReadPHYRegister
 .text.HAL_ETH_WritePHYRegister
                0x000000000800360a       0x4a ./Drivers/STM32F4xx_HAL_Driver/Src/stm32f4xx_hal_eth.o
                0x000000000800360a                HAL_ETH_WritePHYRegister
 .text.HAL_ETH_GetMACConfig
                0x0000000008003654       0xc4 ./Drivers/STM32F4xx_HAL_Driver/Src/stm32f4xx_hal_eth.o
                0x0000000008003654                HAL_ETH_GetMACConfig
 .text.HAL_ETH_SetMACConfig
                0x0000000008003718       0x18 ./Drivers/STM32F4xx_HAL_Driver/Src/stm32f4xx_hal_eth.o
                0x0000000008003718                HAL_ETH_SetMACConfig
 .text.HAL_ETH_SetMDIOClockRange
                0x0000000008003730       0x74 ./Drivers/STM32F4xx_HAL_Driver/Src/stm32f4xx_hal_eth.o
                0x0000000008003730                HAL_ETH_SetMDIOClockRange
 .text.HAL_GPIO_Init
                0x00000000080037a4      0x1cc ./Drivers/STM32F4xx_HAL_Driver/Src/stm32f4xx_hal_gpio.o
                0x00000000080037a4                HAL_GPIO_Init
 .text.HAL_GPIO_WritePin
                0x0000000008003970        0xa ./Drivers/STM32F4xx_HAL_Driver/Src/stm32f4xx_hal_gpio.o
                0x0000000008003970                HAL_GPIO_WritePin
 .text.I2C_IsAcknowledgeFailed
                0x000000000800397a       0x34 ./Drivers/STM32F4xx_HAL_Driver/Src/stm32f4xx_hal_i2c.o
 .text.I2C_WaitOnFlagUntilTimeout
                0x00000000080039ae       0x64 ./Drivers/STM32F4xx_HAL_Driver/Src/stm32f4xx_hal_i2c.o
 .text.I2C_WaitOnMasterAddressFlagUntilTimeout
                0x0000000008003a12       0x76 ./Drivers/STM32F4xx_HAL_Driver/Src/stm32f4xx_hal_i2c.o
 .text.I2C_WaitOnRXNEFlagUntilTimeout
                0x0000000008003a88       0x5e ./Drivers/STM32F4xx_HAL_Driver/Src/stm32f4xx_hal_i2c.o
 .text.I2C_WaitOnBTFFlagUntilTimeout
                0x0000000008003ae6       0x4c ./Drivers/STM32F4xx_HAL_Driver/Src/stm32f4xx_hal_i2c.o
 .text.I2C_WaitOnTXEFlagUntilTimeout
                0x0000000008003b32       0x4c ./Drivers/STM32F4xx_HAL_Driver/Src/stm32f4xx_hal_i2c.o
 *fill*         0x0000000008003b7e        0x2 
 .text.HAL_I2C_Init
                0x0000000008003b80      0x150 ./Drivers/STM32F4xx_HAL_Driver/Src/stm32f4xx_hal_i2c.o
                0x0000000008003b80                HAL_I2C_Init
 .text.HAL_I2C_Master_Transmit
                0x0000000008003cd0      0x1b0 ./Drivers/STM32F4xx_HAL_Driver/Src/stm32f4xx_hal_i2c.o
                0x0000000008003cd0                HAL_I2C_Master_Transmit
 .text.HAL_I2C_Master_Receive
                0x0000000008003e80      0x2e0 ./Drivers/STM32F4xx_HAL_Driver/Src/stm32f4xx_hal_i2c.o
                0x0000000008003e80                HAL_I2C_Master_Receive
 .text.HAL_I2CEx_ConfigAnalogFilter
                0x0000000008004160       0x3e ./Drivers/STM32F4xx_HAL_Driver/Src/stm32f4xx_hal_i2c_ex.o
                0x0000000008004160                HAL_I2CEx_ConfigAnalogFilter
 .text.HAL_I2CEx_ConfigDigitalFilter
                0x000000000800419e       0x3e ./Drivers/STM32F4xx_HAL_Driver/Src/stm32f4xx_hal_i2c_ex.o
                0x000000000800419e                HAL_I2CEx_ConfigDigitalFilter
 .text.HAL_PCD_Init
                0x00000000080041dc      0x10a ./Drivers/STM32F4xx_HAL_Driver/Src/stm32f4xx_hal_pcd.o
                0x00000000080041dc                HAL_PCD_Init
 *fill*         0x00000000080042e6        0x2 
 .text.HAL_RCC_OscConfig
                0x00000000080042e8      0x360 ./Drivers/STM32F4xx_HAL_Driver/Src/stm32f4xx_hal_rcc.o
                0x00000000080042e8                HAL_RCC_OscConfig
 .text.HAL_RCC_GetSysClockFreq
                0x0000000008004648       0x5c ./Drivers/STM32F4xx_HAL_Driver/Src/stm32f4xx_hal_rcc.o
                0x0000000008004648                HAL_RCC_GetSysClockFreq
 .text.HAL_RCC_ClockConfig
                0x00000000080046a4      0x138 ./Drivers/STM32F4xx_HAL_Driver/Src/stm32f4xx_hal_rcc.o
                0x00000000080046a4                HAL_RCC_ClockConfig
 .text.HAL_RCC_GetHCLKFreq
                0x00000000080047dc        0xc ./Drivers/STM32F4xx_HAL_Driver/Src/stm32f4xx_hal_rcc.o
                0x00000000080047dc                HAL_RCC_GetHCLKFreq
 .text.HAL_RCC_GetPCLK1Freq
                0x00000000080047e8       0x20 ./Drivers/STM32F4xx_HAL_Driver/Src/stm32f4xx_hal_rcc.o
                0x00000000080047e8                HAL_RCC_GetPCLK1Freq
 .text.HAL_RCC_GetPCLK2Freq
                0x0000000008004808       0x20 ./Drivers/STM32F4xx_HAL_Driver/Src/stm32f4xx_hal_rcc.o
                0x0000000008004808                HAL_RCC_GetPCLK2Freq
 .text.SPI_WaitFlagStateUntilTimeout.constprop.0
                0x0000000008004828       0xa8 ./Drivers/STM32F4xx_HAL_Driver/Src/stm32f4xx_hal_spi.o
 .text.SPI_EndRxTransaction
                0x00000000080048d0       0x54 ./Drivers/STM32F4xx_HAL_Driver/Src/stm32f4xx_hal_spi.o
 .text.SPI_EndRxTxTransaction
                0x0000000008004924       0x58 ./Drivers/STM32F4xx_HAL_Driver/Src/stm32f4xx_hal_spi.o
 .text.HAL_SPI_Init
                0x000000000800497c       0xb8 ./Drivers/STM32F4xx_HAL_Driver/Src/stm32f4xx_hal_spi.o
                0x000000000800497c                HAL_SPI_Init
 .text.HAL_SPI_Transmit
                0x0000000008004a34      0x15c ./Drivers/STM32F4xx_HAL_Driver/Src/stm32f4xx_hal_spi.o
                0x0000000008004a34                HAL_SPI_Transmit
 .text.HAL_SPI_TransmitReceive
                0x0000000008004b90      0x1e8 ./Drivers/STM32F4xx_HAL_Driver/Src/stm32f4xx_hal_spi.o
                0x0000000008004b90                HAL_SPI_TransmitReceive
 .text.HAL_SPI_Transmit_DMA
                0x0000000008004d78       0xc8 ./Drivers/STM32F4xx_HAL_Driver/Src/stm32f4xx_hal_spi.o
                0x0000000008004d78                HAL_SPI_Transmit_DMA
 .text.HAL_SPI_TransmitReceive_DMA
                0x0000000008004e40      0x10c ./Drivers/STM32F4xx_HAL_Driver/Src/stm32f4xx_hal_spi.o
                0x0000000008004e40                HAL_SPI_TransmitReceive_DMA
 .text.HAL_SPI_RxCpltCallback
                0x0000000008004f4c        0x2 ./Drivers/STM32F4xx_HAL_Driver/Src/stm32f4xx_hal_spi.o
                0x0000000008004f4c                HAL_SPI_RxCpltCallback
 .text.HAL_SPI_TxHalfCpltCallback
                0x0000000008004f4e        0x2 ./Drivers/STM32F4xx_HAL_Driver/Src/stm32f4xx_hal_spi.o
                0x0000000008004f4e                HAL_SPI_TxHalfCpltCallback
 .text.SPI_DMAHalfTransmitCplt
                0x0000000008004f50        0xa ./Drivers/STM32F4xx_HAL_Driver/Src/stm32f4xx_hal_spi.o
 .text.HAL_SPI_RxHalfCpltCallback
                0x0000000008004f5a        0x2 ./Drivers/STM32F4xx_HAL_Driver/Src/stm32f4xx_hal_spi.o
                0x0000000008004f5a                HAL_SPI_RxHalfCpltCallback
 .text.SPI_DMAHalfReceiveCplt
                0x0000000008004f5c        0xa ./Drivers/STM32F4xx_HAL_Driver/Src/stm32f4xx_hal_spi.o
 .text.HAL_SPI_TxRxHalfCpltCallback
                0x0000000008004f66        0x2 ./Drivers/STM32F4xx_HAL_Driver/Src/stm32f4xx_hal_spi.o
                0x0000000008004f66                HAL_SPI_TxRxHalfCpltCallback
 .text.SPI_DMAHalfTransmitReceiveCplt
                0x0000000008004f68        0xa ./Drivers/STM32F4xx_HAL_Driver/Src/stm32f4xx_hal_spi.o
 .text.HAL_SPI_ErrorCallback
                0x0000000008004f72        0x2 ./Drivers/STM32F4xx_HAL_Driver/Src/stm32f4xx_hal_spi.o
                0x0000000008004f72                HAL_SPI_ErrorCallback
 .text.SPI_DMAError
                0x0000000008004f74       0x22 ./Drivers/STM32F4xx_HAL_Driver/Src/stm32f4xx_hal_spi.o
 .text.SPI_DMATransmitCplt
                0x0000000008004f96       0x6a ./Drivers/STM32F4xx_HAL_Driver/Src/stm32f4xx_hal_spi.o
 .text.SPI_DMAReceiveCplt
                0x0000000008005000       0x66 ./Drivers/STM32F4xx_HAL_Driver/Src/stm32f4xx_hal_spi.o
 .text.SPI_DMATransmitReceiveCplt
                0x0000000008005066       0x5a ./Drivers/STM32F4xx_HAL_Driver/Src/stm32f4xx_hal_spi.o
 .text.HAL_TIM_PeriodElapsedCallback
                0x00000000080050c0        0x2 ./Drivers/STM32F4xx_HAL_Driver/Src/stm32f4xx_hal_tim.o
                0x00000000080050c0                HAL_TIM_PeriodElapsedCallback
 .text.HAL_TIM_OC_DelayElapsedCallback
                0x00000000080050c2        0x2 ./Drivers/STM32F4xx_HAL_Driver/Src/stm32f4xx_hal_tim.o
                0x00000000080050c2                HAL_TIM_OC_DelayElapsedCallback
 .text.HAL_TIM_IC_CaptureCallback
                0x00000000080050c4        0x2 ./Drivers/STM32F4xx_HAL_Driver/Src/stm32f4xx_hal_tim.o
                0x00000000080050c4                HAL_TIM_IC_CaptureCallback
 .text.HAL_TIM_PWM_PulseFinishedCallback
                0x00000000080050c6        0x2 ./Drivers/STM32F4xx_HAL_Driver/Src/stm32f4xx_hal_tim.o
                0x00000000080050c6                HAL_TIM_PWM_PulseFinishedCallback
 .text.HAL_TIM_TriggerCallback
                0x00000000080050c8        0x2 ./Drivers/STM32F4xx_HAL_Driver/Src/stm32f4xx_hal_tim.o
                0x00000000080050c8                HAL_TIM_TriggerCallback
 .text.HAL_TIM_IRQHandler
                0x00000000080050ca      0x144 ./Drivers/STM32F4xx_HAL_Driver/Src/stm32f4xx_hal_tim.o
                0x00000000080050ca                HAL_TIM_IRQHandler
 *fill*         0x000000000800520e        0x2 
 .text.TIM_Base_SetConfig
                0x0000000008005210       0xcc ./Drivers/STM32F4xx_HAL_Driver/Src/stm32f4xx_hal_tim.o
                0x0000000008005210                TIM_Base_SetConfig
 .text.HAL_TIM_Base_Init
                0x00000000080052dc       0x58 ./Drivers/STM32F4xx_HAL_Driver/Src/stm32f4xx_hal_tim.o
                0x00000000080052dc                HAL_TIM_Base_Init
 .text.HAL_TIMEx_MasterConfigSynchronization
                0x0000000008005334       0x7c ./Drivers/STM32F4xx_HAL_Driver/Src/stm32f4xx_hal_tim_ex.o
                0x0000000008005334                HAL_TIMEx_MasterConfigSynchronization
 .text.HAL_TIMEx_CommutCallback
                0x00000000080053b0        0x2 ./Drivers/STM32F4xx_HAL_Driver/Src/stm32f4xx_hal_tim_ex.o
                0x00000000080053b0                HAL_TIMEx_CommutCallback
 .text.HAL_TIMEx_BreakCallback
                0x00000000080053b2        0x2 ./Drivers/STM32F4xx_HAL_Driver/Src/stm32f4xx_hal_tim_ex.o
                0x00000000080053b2                HAL_TIMEx_BreakCallback
 .text.UART_SetConfig
                0x00000000080053b4       0xbc ./Drivers/STM32F4xx_HAL_Driver/Src/stm32f4xx_hal_uart.o
 .text.UART_WaitOnFlagUntilTimeout.constprop.0
                0x0000000008005470       0x6c ./Drivers/STM32F4xx_HAL_Driver/Src/stm32f4xx_hal_uart.o
 .text.HAL_UART_Init
                0x00000000080054dc       0x5c ./Drivers/STM32F4xx_HAL_Driver/Src/stm32f4xx_hal_uart.o
                0x00000000080054dc                HAL_UART_Init
 .text.HAL_UART_Transmit
                0x0000000008005538       0xaa ./Drivers/STM32F4xx_HAL_Driver/Src/stm32f4xx_hal_uart.o
                0x0000000008005538                HAL_UART_Transmit
 *fill*         0x00000000080055e2        0x2 
 .text.USB_CoreReset
                0x00000000080055e4       0x4c ./Drivers/STM32F4xx_HAL_Driver/Src/stm32f4xx_ll_usb.o
 .text.USB_CoreInit
                0x0000000008005630       0x80 ./Drivers/STM32F4xx_HAL_Driver/Src/stm32f4xx_ll_usb.o
                0x0000000008005630                USB_CoreInit
 .text.USB_DisableGlobalInt
                0x00000000080056b0        0xc ./Drivers/STM32F4xx_HAL_Driver/Src/stm32f4xx_ll_usb.o
                0x00000000080056b0                USB_DisableGlobalInt
 .text.USB_SetCurrentMode
                0x00000000080056bc       0x60 ./Drivers/STM32F4xx_HAL_Driver/Src/stm32f4xx_ll_usb.o
                0x00000000080056bc                USB_SetCurrentMode
 .text.USB_FlushTxFifo
                0x000000000800571c       0x4c ./Drivers/STM32F4xx_HAL_Driver/Src/stm32f4xx_ll_usb.o
                0x000000000800571c                USB_FlushTxFifo
 .text.USB_FlushRxFifo
                0x0000000008005768       0x48 ./Drivers/STM32F4xx_HAL_Driver/Src/stm32f4xx_ll_usb.o
                0x0000000008005768                USB_FlushRxFifo
 .text.USB_SetDevSpeed
                0x00000000080057b0        0xe ./Drivers/STM32F4xx_HAL_Driver/Src/stm32f4xx_ll_usb.o
                0x00000000080057b0                USB_SetDevSpeed
 *fill*         0x00000000080057be        0x2 
 .text.USB_DevInit
                0x00000000080057c0      0x170 ./Drivers/STM32F4xx_HAL_Driver/Src/stm32f4xx_ll_usb.o
                0x00000000080057c0                USB_DevInit
 .text.USB_DevDisconnect
                0x0000000008005930       0x1c ./Drivers/STM32F4xx_HAL_Driver/Src/stm32f4xx_ll_usb.o
                0x0000000008005930                USB_DevDisconnect
 .text.ethernet_link_status_updated
                0x000000000800594c        0x2 ./LWIP/App/lwip.o
 *fill*         0x000000000800594e        0x2 
 .text.MX_LWIP_Init
                0x0000000008005950       0xa8 ./LWIP/App/lwip.o
                0x0000000008005950                MX_LWIP_Init
 .text.MX_LWIP_Process
                0x00000000080059f8       0x34 ./LWIP/App/lwip.o
                0x00000000080059f8                MX_LWIP_Process
 .text.ETH_PHY_IO_DeInit
                0x0000000008005a2c        0x4 ./LWIP/Target/ethernetif.o
                0x0000000008005a2c                ETH_PHY_IO_DeInit
 .text.low_level_output
                0x0000000008005a30       0x60 ./LWIP/Target/ethernetif.o
 .text.pbuf_free_custom
                0x0000000008005a90       0x20 ./LWIP/Target/ethernetif.o
                0x0000000008005a90                pbuf_free_custom
 .text.ETH_PHY_IO_GetTick
                0x0000000008005ab0        0x4 ./LWIP/Target/ethernetif.o
                0x0000000008005ab0                ETH_PHY_IO_GetTick
 .text.ETH_PHY_IO_Init
                0x0000000008005ab4       0x10 ./LWIP/Target/ethernetif.o
                0x0000000008005ab4                ETH_PHY_IO_Init
 .text.ETH_PHY_IO_ReadReg
                0x0000000008005ac4       0x1c ./LWIP/Target/ethernetif.o
                0x0000000008005ac4                ETH_PHY_IO_ReadReg
 .text.ETH_PHY_IO_WriteReg
                0x0000000008005ae0       0x1c ./LWIP/Target/ethernetif.o
                0x0000000008005ae0                ETH_PHY_IO_WriteReg
 .text.ethernetif_input
                0x0000000008005afc       0x44 ./LWIP/Target/ethernetif.o
                0x0000000008005afc                ethernetif_input
 .text.sys_now  0x0000000008005b40        0x4 ./LWIP/Target/ethernetif.o
                0x0000000008005b40                sys_now
 .text.HAL_ETH_MspInit
                0x0000000008005b44      0x11c ./LWIP/Target/ethernetif.o
                0x0000000008005b44                HAL_ETH_MspInit
 .text.ethernet_link_check_state
                0x0000000008005c60       0x8c ./LWIP/Target/ethernetif.o
                0x0000000008005c60                ethernet_link_check_state
 .text.ethernetif_init
                0x0000000008005cec      0x124 ./LWIP/Target/ethernetif.o
                0x0000000008005cec                ethernetif_init
 .text.HAL_ETH_RxAllocateCallback
                0x0000000008005e10       0x44 ./LWIP/Target/ethernetif.o
                0x0000000008005e10                HAL_ETH_RxAllocateCallback
 .text.HAL_ETH_RxLinkCallback
                0x0000000008005e54       0x32 ./LWIP/Target/ethernetif.o
                0x0000000008005e54                HAL_ETH_RxLinkCallback
 .text.lwip_htons
                0x0000000008005e86        0x6 ./Middlewares/Third_Party/LwIP/src/core/def.o
                0x0000000008005e86                lwip_htons
 .text.lwip_htonl
                0x0000000008005e8c        0x4 ./Middlewares/Third_Party/LwIP/src/core/def.o
                0x0000000008005e8c                lwip_htonl
 .text.lwip_init
                0x0000000008005e90       0x1e ./Middlewares/Third_Party/LwIP/src/core/init.o
                0x0000000008005e90                lwip_init
 *fill*         0x0000000008005eae        0x2 
 .text.mem_init
                0x0000000008005eb0       0x44 ./Middlewares/Third_Party/LwIP/src/core/mem.o
                0x0000000008005eb0                mem_init
 .text.mem_free
                0x0000000008005ef4      0x170 ./Middlewares/Third_Party/LwIP/src/core/mem.o
                0x0000000008005ef4                mem_free
 .text.mem_trim
                0x0000000008006064      0x148 ./Middlewares/Third_Party/LwIP/src/core/mem.o
                0x0000000008006064                mem_trim
 .text.mem_malloc
                0x00000000080061ac      0x150 ./Middlewares/Third_Party/LwIP/src/core/mem.o
                0x00000000080061ac                mem_malloc
 .text.do_memp_free_pool
                0x00000000080062fc       0x30 ./Middlewares/Third_Party/LwIP/src/core/memp.o
 .text.do_memp_malloc_pool.isra.0
                0x000000000800632c       0x2c ./Middlewares/Third_Party/LwIP/src/core/memp.o
 .text.memp_init_pool
                0x0000000008006358       0x26 ./Middlewares/Third_Party/LwIP/src/core/memp.o
                0x0000000008006358                memp_init_pool
 *fill*         0x000000000800637e        0x2 
 .text.memp_init
                0x0000000008006380       0x1c ./Middlewares/Third_Party/LwIP/src/core/memp.o
                0x0000000008006380                memp_init
 .text.memp_malloc_pool
                0x000000000800639c       0x30 ./Middlewares/Third_Party/LwIP/src/core/memp.o
                0x000000000800639c                memp_malloc_pool
 .text.memp_malloc
                0x00000000080063cc       0x38 ./Middlewares/Third_Party/LwIP/src/core/memp.o
                0x00000000080063cc                memp_malloc
 .text.memp_free_pool
                0x0000000008006404       0x28 ./Middlewares/Third_Party/LwIP/src/core/memp.o
                0x0000000008006404                memp_free_pool
 .text.memp_free
                0x000000000800642c       0x30 ./Middlewares/Third_Party/LwIP/src/core/memp.o
                0x000000000800642c                memp_free
 .text.netif_null_output_ip4
                0x000000000800645c        0x6 ./Middlewares/Third_Party/LwIP/src/core/netif.o
 *fill*         0x0000000008006462        0x2 
 .text.netif_issue_reports
                0x0000000008006464       0x44 ./Middlewares/Third_Party/LwIP/src/core/netif.o
 .text.netif_do_set_ipaddr.isra.0
                0x00000000080064a8       0x50 ./Middlewares/Third_Party/LwIP/src/core/netif.o
 .text.netif_init
                0x00000000080064f8        0x2 ./Middlewares/Third_Party/LwIP/src/core/netif.o
                0x00000000080064f8                netif_init
 *fill*         0x00000000080064fa        0x2 
 .text.netif_set_addr
                0x00000000080064fc       0x58 ./Middlewares/Third_Party/LwIP/src/core/netif.o
                0x00000000080064fc                netif_set_addr
 .text.netif_add
                0x0000000008006554      0x12c ./Middlewares/Third_Party/LwIP/src/core/netif.o
                0x0000000008006554                netif_add
 .text.netif_set_default
                0x0000000008006680        0xc ./Middlewares/Third_Party/LwIP/src/core/netif.o
                0x0000000008006680                netif_set_default
 .text.netif_set_up
                0x000000000800668c       0x34 ./Middlewares/Third_Party/LwIP/src/core/netif.o
                0x000000000800668c                netif_set_up
 .text.netif_set_down
                0x00000000080066c0       0x38 ./Middlewares/Third_Party/LwIP/src/core/netif.o
                0x00000000080066c0                netif_set_down
 .text.netif_set_link_up
                0x00000000080066f8       0x48 ./Middlewares/Third_Party/LwIP/src/core/netif.o
                0x00000000080066f8                netif_set_link_up
 .text.netif_set_link_down
                0x0000000008006740       0x34 ./Middlewares/Third_Party/LwIP/src/core/netif.o
                0x0000000008006740                netif_set_link_down
 .text.netif_set_link_callback
                0x0000000008006774        0x6 ./Middlewares/Third_Party/LwIP/src/core/netif.o
                0x0000000008006774                netif_set_link_callback
 *fill*         0x000000000800677a        0x2 
 .text.netif_get_by_index
                0x000000000800677c       0x24 ./Middlewares/Third_Party/LwIP/src/core/netif.o
                0x000000000800677c                netif_get_by_index
 .text.pbuf_add_header_impl
                0x00000000080067a0       0x64 ./Middlewares/Third_Party/LwIP/src/core/pbuf.o
 .text.pbuf_free_ooseq
                0x0000000008006804       0x24 ./Middlewares/Third_Party/LwIP/src/core/pbuf.o
                0x0000000008006804                pbuf_free_ooseq
 .text.pbuf_alloc_reference
                0x0000000008006828       0x48 ./Middlewares/Third_Party/LwIP/src/core/pbuf.o
                0x0000000008006828                pbuf_alloc_reference
 .text.pbuf_alloced_custom
                0x0000000008006870       0x34 ./Middlewares/Third_Party/LwIP/src/core/pbuf.o
                0x0000000008006870                pbuf_alloced_custom
 .text.pbuf_add_header
                0x00000000080068a4        0x6 ./Middlewares/Third_Party/LwIP/src/core/pbuf.o
                0x00000000080068a4                pbuf_add_header
 *fill*         0x00000000080068aa        0x2 
 .text.pbuf_remove_header
                0x00000000080068ac       0x58 ./Middlewares/Third_Party/LwIP/src/core/pbuf.o
                0x00000000080068ac                pbuf_remove_header
 .text.pbuf_header_force
                0x0000000008006904       0x10 ./Middlewares/Third_Party/LwIP/src/core/pbuf.o
                0x0000000008006904                pbuf_header_force
 .text.pbuf_free
                0x0000000008006914       0xc8 ./Middlewares/Third_Party/LwIP/src/core/pbuf.o
                0x0000000008006914                pbuf_free
 .text.pbuf_alloc
                0x00000000080069dc      0x100 ./Middlewares/Third_Party/LwIP/src/core/pbuf.o
                0x00000000080069dc                pbuf_alloc
 .text.pbuf_realloc
                0x0000000008006adc       0xb0 ./Middlewares/Third_Party/LwIP/src/core/pbuf.o
                0x0000000008006adc                pbuf_realloc
 .text.pbuf_clen
                0x0000000008006b8c       0x10 ./Middlewares/Third_Party/LwIP/src/core/pbuf.o
                0x0000000008006b8c                pbuf_clen
 .text.pbuf_ref
                0x0000000008006b9c       0x28 ./Middlewares/Third_Party/LwIP/src/core/pbuf.o
                0x0000000008006b9c                pbuf_ref
 .text.pbuf_cat
                0x0000000008006bc4       0x74 ./Middlewares/Third_Party/LwIP/src/core/pbuf.o
                0x0000000008006bc4                pbuf_cat
 .text.pbuf_chain
                0x0000000008006c38       0x12 ./Middlewares/Third_Party/LwIP/src/core/pbuf.o
                0x0000000008006c38                pbuf_chain
 *fill*         0x0000000008006c4a        0x2 
 .text.pbuf_copy
                0x0000000008006c4c      0x104 ./Middlewares/Third_Party/LwIP/src/core/pbuf.o
                0x0000000008006c4c                pbuf_copy
 .text.pbuf_copy_partial
                0x0000000008006d50       0x8c ./Middlewares/Third_Party/LwIP/src/core/pbuf.o
                0x0000000008006d50                pbuf_copy_partial
 .text.pbuf_clone
                0x0000000008006ddc       0x38 ./Middlewares/Third_Party/LwIP/src/core/pbuf.o
                0x0000000008006ddc                pbuf_clone
 .text.tcp_new_port
                0x0000000008006e14       0x54 ./Middlewares/Third_Party/LwIP/src/core/tcp.o
 .text.tcp_close_shutdown_fin
                0x0000000008006e68       0x60 ./Middlewares/Third_Party/LwIP/src/core/tcp.o
 .text.tcp_init
                0x0000000008006ec8       0x18 ./Middlewares/Third_Party/LwIP/src/core/tcp.o
                0x0000000008006ec8                tcp_init
 .text.tcp_free
                0x0000000008006ee0       0x30 ./Middlewares/Third_Party/LwIP/src/core/tcp.o
                0x0000000008006ee0                tcp_free
 .text.tcp_bind
                0x0000000008006f10       0xac ./Middlewares/Third_Party/LwIP/src/core/tcp.o
                0x0000000008006f10                tcp_bind
 .text.tcp_listen_with_backlog_and_err
                0x0000000008006fbc       0xcc ./Middlewares/Third_Party/LwIP/src/core/tcp.o
                0x0000000008006fbc                tcp_listen_with_backlog_and_err
 .text.tcp_listen_with_backlog
                0x0000000008007088        0x6 ./Middlewares/Third_Party/LwIP/src/core/tcp.o
                0x0000000008007088                tcp_listen_with_backlog
 *fill*         0x000000000800708e        0x2 
 .text.tcp_update_rcv_ann_wnd
                0x0000000008007090       0x6c ./Middlewares/Third_Party/LwIP/src/core/tcp.o
                0x0000000008007090                tcp_update_rcv_ann_wnd
 .text.tcp_recved
                0x00000000080070fc       0x7c ./Middlewares/Third_Party/LwIP/src/core/tcp.o
                0x00000000080070fc                tcp_recved
 .text.tcp_seg_free
                0x0000000008007178       0x1c ./Middlewares/Third_Party/LwIP/src/core/tcp.o
                0x0000000008007178                tcp_seg_free
 .text.tcp_segs_free
                0x0000000008007194       0x10 ./Middlewares/Third_Party/LwIP/src/core/tcp.o
                0x0000000008007194                tcp_segs_free
 .text.tcp_setprio
                0x00000000080071a4       0x20 ./Middlewares/Third_Party/LwIP/src/core/tcp.o
                0x00000000080071a4                tcp_setprio
 .text.tcp_seg_copy
                0x00000000080071c4       0x48 ./Middlewares/Third_Party/LwIP/src/core/tcp.o
                0x00000000080071c4                tcp_seg_copy
 .text.tcp_arg  0x000000000800720c        0x6 ./Middlewares/Third_Party/LwIP/src/core/tcp.o
                0x000000000800720c                tcp_arg
 *fill*         0x0000000008007212        0x2 
 .text.tcp_recv
                0x0000000008007214       0x30 ./Middlewares/Third_Party/LwIP/src/core/tcp.o
                0x0000000008007214                tcp_recv
 .text.tcp_sent
                0x0000000008007244       0x30 ./Middlewares/Third_Party/LwIP/src/core/tcp.o
                0x0000000008007244                tcp_sent
 .text.tcp_err  0x0000000008007274       0x30 ./Middlewares/Third_Party/LwIP/src/core/tcp.o
                0x0000000008007274                tcp_err
 .text.tcp_accept
                0x00000000080072a4        0xc ./Middlewares/Third_Party/LwIP/src/core/tcp.o
                0x00000000080072a4                tcp_accept
 .text.tcp_poll
                0x00000000080072b0       0x48 ./Middlewares/Third_Party/LwIP/src/core/tcp.o
                0x00000000080072b0                tcp_poll
 .text.tcp_next_iss
                0x00000000080072f8       0x34 ./Middlewares/Third_Party/LwIP/src/core/tcp.o
                0x00000000080072f8                tcp_next_iss
 .text.tcp_eff_send_mss_netif
                0x000000000800732c       0x3c ./Middlewares/Third_Party/LwIP/src/core/tcp.o
                0x000000000800732c                tcp_eff_send_mss_netif
 .text.tcp_free_ooseq
                0x0000000008007368       0x12 ./Middlewares/Third_Party/LwIP/src/core/tcp.o
                0x0000000008007368                tcp_free_ooseq
 *fill*         0x000000000800737a        0x2 
 .text.tcp_pcb_purge
                0x000000000800737c       0x64 ./Middlewares/Third_Party/LwIP/src/core/tcp.o
                0x000000000800737c                tcp_pcb_purge
 .text.tcp_pcb_remove
                0x00000000080073e0       0xcc ./Middlewares/Third_Party/LwIP/src/core/tcp.o
                0x00000000080073e0                tcp_pcb_remove
 .text.tcp_abandon
                0x00000000080074ac      0x104 ./Middlewares/Third_Party/LwIP/src/core/tcp.o
                0x00000000080074ac                tcp_abandon
 .text.tcp_abort
                0x00000000080075b0        0x6 ./Middlewares/Third_Party/LwIP/src/core/tcp.o
                0x00000000080075b0                tcp_abort
 *fill*         0x00000000080075b6        0x2 
 .text.tcp_accept_null
                0x00000000080075b8       0x2c ./Middlewares/Third_Party/LwIP/src/core/tcp.o
 .text.tcp_netif_ip_addr_changed_pcblist
                0x00000000080075e4       0x3c ./Middlewares/Third_Party/LwIP/src/core/tcp.o
 .text.tcp_netif_ip_addr_changed
                0x0000000008007620       0x48 ./Middlewares/Third_Party/LwIP/src/core/tcp.o
                0x0000000008007620                tcp_netif_ip_addr_changed
 .text.tcp_kill_state
                0x0000000008007668       0x3c ./Middlewares/Third_Party/LwIP/src/core/tcp.o
 .text.tcp_alloc
                0x00000000080076a4      0x134 ./Middlewares/Third_Party/LwIP/src/core/tcp.o
                0x00000000080076a4                tcp_alloc
 .text.tcp_new  0x00000000080077d8        0x6 ./Middlewares/Third_Party/LwIP/src/core/tcp.o
                0x00000000080077d8                tcp_new
 *fill*         0x00000000080077de        0x2 
 .text.tcp_close_shutdown
                0x00000000080077e0      0x164 ./Middlewares/Third_Party/LwIP/src/core/tcp.o
 .text.tcp_close
                0x0000000008007944       0x3c ./Middlewares/Third_Party/LwIP/src/core/tcp.o
                0x0000000008007944                tcp_close
 .text.tcp_recv_null
                0x0000000008007980       0x48 ./Middlewares/Third_Party/LwIP/src/core/tcp.o
                0x0000000008007980                tcp_recv_null
 .text.tcp_process_refused_data
                0x00000000080079c8       0x88 ./Middlewares/Third_Party/LwIP/src/core/tcp.o
                0x00000000080079c8                tcp_process_refused_data
 .text.tcp_fasttmr
                0x0000000008007a50       0x80 ./Middlewares/Third_Party/LwIP/src/core/tcp.o
                0x0000000008007a50                tcp_fasttmr
 .text.tcp_slowtmr
                0x0000000008007ad0      0x43c ./Middlewares/Third_Party/LwIP/src/core/tcp.o
                0x0000000008007ad0                tcp_slowtmr
 .text.tcp_tmr  0x0000000008007f0c       0x24 ./Middlewares/Third_Party/LwIP/src/core/tcp.o
                0x0000000008007f0c                tcp_tmr
 .text.tcp_get_next_optbyte
                0x0000000008007f30       0x38 ./Middlewares/Third_Party/LwIP/src/core/tcp_in.o
 .text.tcp_oos_insert_segment
                0x0000000008007f68       0x94 ./Middlewares/Third_Party/LwIP/src/core/tcp_in.o
 .text.tcp_parseopt
                0x0000000008007ffc       0x90 ./Middlewares/Third_Party/LwIP/src/core/tcp_in.o
 .text.tcp_input_delayed_close
                0x000000000800808c       0x58 ./Middlewares/Third_Party/LwIP/src/core/tcp_in.o
 .text.tcp_free_acked_segments.constprop.0
                0x00000000080080e4       0xc4 ./Middlewares/Third_Party/LwIP/src/core/tcp_in.o
 .text.tcp_receive
                0x00000000080081a8      0x860 ./Middlewares/Third_Party/LwIP/src/core/tcp_in.o
 .text.tcp_input
                0x0000000008008a08      0xb04 ./Middlewares/Third_Party/LwIP/src/core/tcp_in.o
                0x0000000008008a08                tcp_input
 .text.tcp_trigger_input_pcb_close
                0x000000000800950c       0x10 ./Middlewares/Third_Party/LwIP/src/core/tcp_in.o
                0x000000000800950c                tcp_trigger_input_pcb_close
 .text.tcp_output_segment_busy
                0x000000000800951c       0x2c ./Middlewares/Third_Party/LwIP/src/core/tcp_out.o
 .text.tcp_pbuf_prealloc
                0x0000000008009548       0x98 ./Middlewares/Third_Party/LwIP/src/core/tcp_out.o
 .text.tcp_create_segment
                0x00000000080095e0       0xe4 ./Middlewares/Third_Party/LwIP/src/core/tcp_out.o
 .text.tcp_output_alloc_header_common.constprop.0
                0x00000000080096c4       0x84 ./Middlewares/Third_Party/LwIP/src/core/tcp_out.o
 .text.tcp_output_alloc_header.constprop.0
                0x0000000008009748       0x4c ./Middlewares/Third_Party/LwIP/src/core/tcp_out.o
 .text.tcp_output_fill_options.constprop.0
                0x0000000008009794       0x20 ./Middlewares/Third_Party/LwIP/src/core/tcp_out.o
 .text.tcp_output_control_segment
                0x00000000080097b4       0x70 ./Middlewares/Third_Party/LwIP/src/core/tcp_out.o
 .text.tcp_write
                0x0000000008009824      0x53c ./Middlewares/Third_Party/LwIP/src/core/tcp_out.o
                0x0000000008009824                tcp_write
 .text.tcp_split_unsent_seg
                0x0000000008009d60      0x198 ./Middlewares/Third_Party/LwIP/src/core/tcp_out.o
                0x0000000008009d60                tcp_split_unsent_seg
 .text.tcp_enqueue_flags
                0x0000000008009ef8      0x128 ./Middlewares/Third_Party/LwIP/src/core/tcp_out.o
                0x0000000008009ef8                tcp_enqueue_flags
 .text.tcp_send_fin
                0x000000000800a020       0x60 ./Middlewares/Third_Party/LwIP/src/core/tcp_out.o
                0x000000000800a020                tcp_send_fin
 .text.tcp_rexmit_rto_prepare
                0x000000000800a080       0x88 ./Middlewares/Third_Party/LwIP/src/core/tcp_out.o
                0x000000000800a080                tcp_rexmit_rto_prepare
 .text.tcp_rexmit
                0x000000000800a108       0x84 ./Middlewares/Third_Party/LwIP/src/core/tcp_out.o
                0x000000000800a108                tcp_rexmit
 .text.tcp_rexmit_fast
                0x000000000800a18c       0x68 ./Middlewares/Third_Party/LwIP/src/core/tcp_out.o
                0x000000000800a18c                tcp_rexmit_fast
 .text.tcp_rst  0x000000000800a1f4       0x8c ./Middlewares/Third_Party/LwIP/src/core/tcp_out.o
                0x000000000800a1f4                tcp_rst
 .text.tcp_send_empty_ack
                0x000000000800a280       0x64 ./Middlewares/Third_Party/LwIP/src/core/tcp_out.o
                0x000000000800a280                tcp_send_empty_ack
 .text.tcp_output
                0x000000000800a2e4      0x354 ./Middlewares/Third_Party/LwIP/src/core/tcp_out.o
                0x000000000800a2e4                tcp_output
 .text.tcp_rexmit_rto_commit
                0x000000000800a638       0x38 ./Middlewares/Third_Party/LwIP/src/core/tcp_out.o
                0x000000000800a638                tcp_rexmit_rto_commit
 .text.tcp_rexmit_rto
                0x000000000800a670       0x34 ./Middlewares/Third_Party/LwIP/src/core/tcp_out.o
                0x000000000800a670                tcp_rexmit_rto
 .text.tcp_keepalive
                0x000000000800a6a4       0x50 ./Middlewares/Third_Party/LwIP/src/core/tcp_out.o
                0x000000000800a6a4                tcp_keepalive
 .text.tcp_zero_window_probe
                0x000000000800a6f4       0xc8 ./Middlewares/Third_Party/LwIP/src/core/tcp_out.o
                0x000000000800a6f4                tcp_zero_window_probe
 .text.sys_timeout_abs
                0x000000000800a7bc       0x64 ./Middlewares/Third_Party/LwIP/src/core/timeouts.o
 .text.lwip_cyclic_timer
                0x000000000800a820       0x34 ./Middlewares/Third_Party/LwIP/src/core/timeouts.o
 .text.sys_timeout
                0x000000000800a854       0x3c ./Middlewares/Third_Party/LwIP/src/core/timeouts.o
                0x000000000800a854                sys_timeout
 .text.tcp_timer_needed
                0x000000000800a890       0x34 ./Middlewares/Third_Party/LwIP/src/core/timeouts.o
                0x000000000800a890                tcp_timer_needed
 .text.tcpip_tcp_timer
                0x000000000800a8c4       0x38 ./Middlewares/Third_Party/LwIP/src/core/timeouts.o
 .text.sys_timeouts_init
                0x000000000800a8fc       0x2c ./Middlewares/Third_Party/LwIP/src/core/timeouts.o
                0x000000000800a8fc                sys_timeouts_init
 .text.sys_check_timeouts
                0x000000000800a928       0x58 ./Middlewares/Third_Party/LwIP/src/core/timeouts.o
                0x000000000800a928                sys_check_timeouts
 .text.udp_init
                0x000000000800a980       0x18 ./Middlewares/Third_Party/LwIP/src/core/udp.o
                0x000000000800a980                udp_init
 .text.udp_input
                0x000000000800a998      0x1b0 ./Middlewares/Third_Party/LwIP/src/core/udp.o
                0x000000000800a998                udp_input
 .text.udp_netif_ip_addr_changed
                0x000000000800ab48       0x2c ./Middlewares/Third_Party/LwIP/src/core/udp.o
                0x000000000800ab48                udp_netif_ip_addr_changed
 .text.etharp_free_entry
                0x000000000800ab74       0x28 ./Middlewares/Third_Party/LwIP/src/core/ipv4/etharp.o
 .text.etharp_find_entry
                0x000000000800ab9c      0x120 ./Middlewares/Third_Party/LwIP/src/core/ipv4/etharp.o
 .text.etharp_raw
                0x000000000800acbc       0xdc ./Middlewares/Third_Party/LwIP/src/core/ipv4/etharp.o
 .text.etharp_cleanup_netif
                0x000000000800ad98       0x28 ./Middlewares/Third_Party/LwIP/src/core/ipv4/etharp.o
                0x000000000800ad98                etharp_cleanup_netif
 .text.etharp_input
                0x000000000800adc0      0x14c ./Middlewares/Third_Party/LwIP/src/core/ipv4/etharp.o
                0x000000000800adc0                etharp_input
 .text.etharp_request
                0x000000000800af0c       0x2c ./Middlewares/Third_Party/LwIP/src/core/ipv4/etharp.o
                0x000000000800af0c                etharp_request
 .text.etharp_tmr
                0x000000000800af38       0x54 ./Middlewares/Third_Party/LwIP/src/core/ipv4/etharp.o
                0x000000000800af38                etharp_tmr
 .text.etharp_output_to_arp_index
                0x000000000800af8c       0xac ./Middlewares/Third_Party/LwIP/src/core/ipv4/etharp.o
 .text.etharp_query
                0x000000000800b038      0x130 ./Middlewares/Third_Party/LwIP/src/core/ipv4/etharp.o
                0x000000000800b038                etharp_query
 .text.etharp_output
                0x000000000800b168      0x144 ./Middlewares/Third_Party/LwIP/src/core/ipv4/etharp.o
                0x000000000800b168                etharp_output
 .text.icmp_send_response
                0x000000000800b2ac       0x90 ./Middlewares/Third_Party/LwIP/src/core/ipv4/icmp.o
 .text.icmp_input
                0x000000000800b33c      0x12c ./Middlewares/Third_Party/LwIP/src/core/ipv4/icmp.o
                0x000000000800b33c                icmp_input
 .text.icmp_dest_unreach
                0x000000000800b468        0x8 ./Middlewares/Third_Party/LwIP/src/core/ipv4/icmp.o
                0x000000000800b468                icmp_dest_unreach
 .text.icmp_time_exceeded
                0x000000000800b470        0x8 ./Middlewares/Third_Party/LwIP/src/core/ipv4/icmp.o
                0x000000000800b470                icmp_time_exceeded
 .text.ip4_input_accept
                0x000000000800b478       0x34 ./Middlewares/Third_Party/LwIP/src/core/ipv4/ip4.o
 .text.ip4_route
                0x000000000800b4ac       0x5c ./Middlewares/Third_Party/LwIP/src/core/ipv4/ip4.o
                0x000000000800b4ac                ip4_route
 .text.ip4_input
                0x000000000800b508      0x168 ./Middlewares/Third_Party/LwIP/src/core/ipv4/ip4.o
                0x000000000800b508                ip4_input
 .text.ip4_output_if_src
                0x000000000800b670       0xf8 ./Middlewares/Third_Party/LwIP/src/core/ipv4/ip4.o
                0x000000000800b670                ip4_output_if_src
 .text.ip4_output_if
                0x000000000800b768       0x22 ./Middlewares/Third_Party/LwIP/src/core/ipv4/ip4.o
                0x000000000800b768                ip4_output_if
 .text.ip4_addr_isbroadcast_u32
                0x000000000800b78a       0x36 ./Middlewares/Third_Party/LwIP/src/core/ipv4/ip4_addr.o
                0x000000000800b78a                ip4_addr_isbroadcast_u32
 .text.ip_reass_dequeue_datagram
                0x000000000800b7c0       0x44 ./Middlewares/Third_Party/LwIP/src/core/ipv4/ip4_frag.o
 .text.ip_reass_free_complete_datagram
                0x000000000800b804       0xe8 ./Middlewares/Third_Party/LwIP/src/core/ipv4/ip4_frag.o
 .text.ip_reass_remove_oldest_datagram
                0x000000000800b8ec       0x78 ./Middlewares/Third_Party/LwIP/src/core/ipv4/ip4_frag.o
 .text.ip_frag_free_pbuf_custom_ref
                0x000000000800b964       0x2c ./Middlewares/Third_Party/LwIP/src/core/ipv4/ip4_frag.o
 .text.ipfrag_free_pbuf_custom
                0x000000000800b990       0x34 ./Middlewares/Third_Party/LwIP/src/core/ipv4/ip4_frag.o
 .text.ip_reass_tmr
                0x000000000800b9c4       0x2c ./Middlewares/Third_Party/LwIP/src/core/ipv4/ip4_frag.o
                0x000000000800b9c4                ip_reass_tmr
 .text.ip4_reass
                0x000000000800b9f0      0x3b4 ./Middlewares/Third_Party/LwIP/src/core/ipv4/ip4_frag.o
                0x000000000800b9f0                ip4_reass
 .text.ip4_frag
                0x000000000800bda4      0x1d8 ./Middlewares/Third_Party/LwIP/src/core/ipv4/ip4_frag.o
                0x000000000800bda4                ip4_frag
 .text.ethernet_input
                0x000000000800bf7c       0xa0 ./Middlewares/Third_Party/LwIP/src/netif/ethernet.o
                0x000000000800bf7c                ethernet_input
 .text.ethernet_output
                0x000000000800c01c       0x70 ./Middlewares/Third_Party/LwIP/src/netif/ethernet.o
                0x000000000800c01c                ethernet_output
 .text.__libc_init_array
                0x000000000800c08c       0x48 c:/st/stm32cubeide_1.9.0/stm32cubeide/plugins/com.st.stm32cube.ide.mcu.externaltools.gnu-tools-for-stm32.10.3-2021.10.win32_1.0.200.202301161003/tools/bin/../lib/gcc/arm-none-eabi/10.3.1/../../../../arm-none-eabi/lib/thumb/v7e-m+fp/hard\libc_nano.a(lib_a-init.o)
                0x000000000800c08c                __libc_init_array
 .text.memcmp   0x000000000800c0d4       0x20 c:/st/stm32cubeide_1.9.0/stm32cubeide/plugins/com.st.stm32cube.ide.mcu.externaltools.gnu-tools-for-stm32.10.3-2021.10.win32_1.0.200.202301161003/tools/bin/../lib/gcc/arm-none-eabi/10.3.1/../../../../arm-none-eabi/lib/thumb/v7e-m+fp/hard\libc_nano.a(lib_a-memcmp.o)
                0x000000000800c0d4                memcmp
 .text.memcpy   0x000000000800c0f4       0x1c c:/st/stm32cubeide_1.9.0/stm32cubeide/plugins/com.st.stm32cube.ide.mcu.externaltools.gnu-tools-for-stm32.10.3-2021.10.win32_1.0.200.202301161003/tools/bin/../lib/gcc/arm-none-eabi/10.3.1/../../../../arm-none-eabi/lib/thumb/v7e-m+fp/hard\libc_nano.a(lib_a-memcpy-stub.o)
                0x000000000800c0f4                memcpy
 .text.memmove  0x000000000800c110       0x34 c:/st/stm32cubeide_1.9.0/stm32cubeide/plugins/com.st.stm32cube.ide.mcu.externaltools.gnu-tools-for-stm32.10.3-2021.10.win32_1.0.200.202301161003/tools/bin/../lib/gcc/arm-none-eabi/10.3.1/../../../../arm-none-eabi/lib/thumb/v7e-m+fp/hard\libc_nano.a(lib_a-memmove.o)
                0x000000000800c110                memmove
 .text.memset   0x000000000800c144       0x10 c:/st/stm32cubeide_1.9.0/stm32cubeide/plugins/com.st.stm32cube.ide.mcu.externaltools.gnu-tools-for-stm32.10.3-2021.10.win32_1.0.200.202301161003/tools/bin/../lib/gcc/arm-none-eabi/10.3.1/../../../../arm-none-eabi/lib/thumb/v7e-m+fp/hard\libc_nano.a(lib_a-memset.o)
                0x000000000800c144                memset
 .text.printf   0x000000000800c154       0x30 c:/st/stm32cubeide_1.9.0/stm32cubeide/plugins/com.st.stm32cube.ide.mcu.externaltools.gnu-tools-for-stm32.10.3-2021.10.win32_1.0.200.202301161003/tools/bin/../lib/gcc/arm-none-eabi/10.3.1/../../../../arm-none-eabi/lib/thumb/v7e-m+fp/hard\libc_nano.a(lib_a-printf.o)
                0x000000000800c154                iprintf
                0x000000000800c154                printf
 .text.rand     0x000000000800c184       0x7c c:/st/stm32cubeide_1.9.0/stm32cubeide/plugins/com.st.stm32cube.ide.mcu.externaltools.gnu-tools-for-stm32.10.3-2021.10.win32_1.0.200.202301161003/tools/bin/../lib/gcc/arm-none-eabi/10.3.1/../../../../arm-none-eabi/lib/thumb/v7e-m+fp/hard\libc_nano.a(lib_a-rand.o)
                0x000000000800c184                rand
 .text.sprintf  0x000000000800c200       0x40 c:/st/stm32cubeide_1.9.0/stm32cubeide/plugins/com.st.stm32cube.ide.mcu.externaltools.gnu-tools-for-stm32.10.3-2021.10.win32_1.0.200.202301161003/tools/bin/../lib/gcc/arm-none-eabi/10.3.1/../../../../arm-none-eabi/lib/thumb/v7e-m+fp/hard\libc_nano.a(lib_a-sprintf.o)
                0x000000000800c200                siprintf
                0x000000000800c200                sprintf
 .text.strncpy  0x000000000800c240       0x26 c:/st/stm32cubeide_1.9.0/stm32cubeide/plugins/com.st.stm32cube.ide.mcu.externaltools.gnu-tools-for-stm32.10.3-2021.10.win32_1.0.200.202301161003/tools/bin/../lib/gcc/arm-none-eabi/10.3.1/../../../../arm-none-eabi/lib/thumb/v7e-m+fp/hard\libc_nano.a(lib_a-strncpy.o)
                0x000000000800c240                strncpy
 *fill*         0x000000000800c266        0x2 
 .text.strtok   0x000000000800c268       0x68 c:/st/stm32cubeide_1.9.0/stm32cubeide/plugins/com.st.stm32cube.ide.mcu.externaltools.gnu-tools-for-stm32.10.3-2021.10.win32_1.0.200.202301161003/tools/bin/../lib/gcc/arm-none-eabi/10.3.1/../../../../arm-none-eabi/lib/thumb/v7e-m+fp/hard\libc_nano.a(lib_a-strtok.o)
                0x000000000800c268                strtok
 .text.__strtok_r
                0x000000000800c2d0       0x50 c:/st/stm32cubeide_1.9.0/stm32cubeide/plugins/com.st.stm32cube.ide.mcu.externaltools.gnu-tools-for-stm32.10.3-2021.10.win32_1.0.200.202301161003/tools/bin/../lib/gcc/arm-none-eabi/10.3.1/../../../../arm-none-eabi/lib/thumb/v7e-m+fp/hard\libc_nano.a(lib_a-strtok_r.o)
                0x000000000800c2d0                __strtok_r
 .text._strtol_l.constprop.0
                0x000000000800c320      0x104 c:/st/stm32cubeide_1.9.0/stm32cubeide/plugins/com.st.stm32cube.ide.mcu.externaltools.gnu-tools-for-stm32.10.3-2021.10.win32_1.0.200.202301161003/tools/bin/../lib/gcc/arm-none-eabi/10.3.1/../../../../arm-none-eabi/lib/thumb/v7e-m+fp/hard\libc_nano.a(lib_a-strtol.o)
 .text.strtol   0x000000000800c424       0x14 c:/st/stm32cubeide_1.9.0/stm32cubeide/plugins/com.st.stm32cube.ide.mcu.externaltools.gnu-tools-for-stm32.10.3-2021.10.win32_1.0.200.202301161003/tools/bin/../lib/gcc/arm-none-eabi/10.3.1/../../../../arm-none-eabi/lib/thumb/v7e-m+fp/hard\libc_nano.a(lib_a-strtol.o)
                0x000000000800c424                strtol
 .text.__assert_func
                0x000000000800c438       0x3c c:/st/stm32cubeide_1.9.0/stm32cubeide/plugins/com.st.stm32cube.ide.mcu.externaltools.gnu-tools-for-stm32.10.3-2021.10.win32_1.0.200.202301161003/tools/bin/../lib/gcc/arm-none-eabi/10.3.1/../../../../arm-none-eabi/lib/thumb/v7e-m+fp/hard\libc_nano.a(lib_a-assert.o)
                0x000000000800c438                __assert_func
 .text.__errno  0x000000000800c474        0xc c:/st/stm32cubeide_1.9.0/stm32cubeide/plugins/com.st.stm32cube.ide.mcu.externaltools.gnu-tools-for-stm32.10.3-2021.10.win32_1.0.200.202301161003/tools/bin/../lib/gcc/arm-none-eabi/10.3.1/../../../../arm-none-eabi/lib/thumb/v7e-m+fp/hard\libc_nano.a(lib_a-errno.o)
                0x000000000800c474                __errno
 .text.std      0x000000000800c480       0x48 c:/st/stm32cubeide_1.9.0/stm32cubeide/plugins/com.st.stm32cube.ide.mcu.externaltools.gnu-tools-for-stm32.10.3-2021.10.win32_1.0.200.202301161003/tools/bin/../lib/gcc/arm-none-eabi/10.3.1/../../../../arm-none-eabi/lib/thumb/v7e-m+fp/hard\libc_nano.a(lib_a-findfp.o)
 .text._cleanup_r
                0x000000000800c4c8        0xc c:/st/stm32cubeide_1.9.0/stm32cubeide/plugins/com.st.stm32cube.ide.mcu.externaltools.gnu-tools-for-stm32.10.3-2021.10.win32_1.0.200.202301161003/tools/bin/../lib/gcc/arm-none-eabi/10.3.1/../../../../arm-none-eabi/lib/thumb/v7e-m+fp/hard\libc_nano.a(lib_a-findfp.o)
                0x000000000800c4c8                _cleanup_r
 .text.__sfmoreglue
                0x000000000800c4d4       0x2c c:/st/stm32cubeide_1.9.0/stm32cubeide/plugins/com.st.stm32cube.ide.mcu.externaltools.gnu-tools-for-stm32.10.3-2021.10.win32_1.0.200.202301161003/tools/bin/../lib/gcc/arm-none-eabi/10.3.1/../../../../arm-none-eabi/lib/thumb/v7e-m+fp/hard\libc_nano.a(lib_a-findfp.o)
                0x000000000800c4d4                __sfmoreglue
 .text.__sfp_lock_acquire
                0x000000000800c500        0xc c:/st/stm32cubeide_1.9.0/stm32cubeide/plugins/com.st.stm32cube.ide.mcu.externaltools.gnu-tools-for-stm32.10.3-2021.10.win32_1.0.200.202301161003/tools/bin/../lib/gcc/arm-none-eabi/10.3.1/../../../../arm-none-eabi/lib/thumb/v7e-m+fp/hard\libc_nano.a(lib_a-findfp.o)
                0x000000000800c500                __sfp_lock_acquire
 .text.__sfp_lock_release
                0x000000000800c50c        0xc c:/st/stm32cubeide_1.9.0/stm32cubeide/plugins/com.st.stm32cube.ide.mcu.externaltools.gnu-tools-for-stm32.10.3-2021.10.win32_1.0.200.202301161003/tools/bin/../lib/gcc/arm-none-eabi/10.3.1/../../../../arm-none-eabi/lib/thumb/v7e-m+fp/hard\libc_nano.a(lib_a-findfp.o)
                0x000000000800c50c                __sfp_lock_release
 .text.__sinit_lock_acquire
                0x000000000800c518        0xc c:/st/stm32cubeide_1.9.0/stm32cubeide/plugins/com.st.stm32cube.ide.mcu.externaltools.gnu-tools-for-stm32.10.3-2021.10.win32_1.0.200.202301161003/tools/bin/../lib/gcc/arm-none-eabi/10.3.1/../../../../arm-none-eabi/lib/thumb/v7e-m+fp/hard\libc_nano.a(lib_a-findfp.o)
                0x000000000800c518                __sinit_lock_acquire
 .text.__sinit_lock_release
                0x000000000800c524        0xc c:/st/stm32cubeide_1.9.0/stm32cubeide/plugins/com.st.stm32cube.ide.mcu.externaltools.gnu-tools-for-stm32.10.3-2021.10.win32_1.0.200.202301161003/tools/bin/../lib/gcc/arm-none-eabi/10.3.1/../../../../arm-none-eabi/lib/thumb/v7e-m+fp/hard\libc_nano.a(lib_a-findfp.o)
                0x000000000800c524                __sinit_lock_release
 .text.__sinit  0x000000000800c530       0x70 c:/st/stm32cubeide_1.9.0/stm32cubeide/plugins/com.st.stm32cube.ide.mcu.externaltools.gnu-tools-for-stm32.10.3-2021.10.win32_1.0.200.202301161003/tools/bin/../lib/gcc/arm-none-eabi/10.3.1/../../../../arm-none-eabi/lib/thumb/v7e-m+fp/hard\libc_nano.a(lib_a-findfp.o)
                0x000000000800c530                __sinit
 .text.__sfp    0x000000000800c5a0       0x8c c:/st/stm32cubeide_1.9.0/stm32cubeide/plugins/com.st.stm32cube.ide.mcu.externaltools.gnu-tools-for-stm32.10.3-2021.10.win32_1.0.200.202301161003/tools/bin/../lib/gcc/arm-none-eabi/10.3.1/../../../../arm-none-eabi/lib/thumb/v7e-m+fp/hard\libc_nano.a(lib_a-findfp.o)
                0x000000000800c5a0                __sfp
 .text.fprintf  0x000000000800c62c       0x24 c:/st/stm32cubeide_1.9.0/stm32cubeide/plugins/com.st.stm32cube.ide.mcu.externaltools.gnu-tools-for-stm32.10.3-2021.10.win32_1.0.200.202301161003/tools/bin/../lib/gcc/arm-none-eabi/10.3.1/../../../../arm-none-eabi/lib/thumb/v7e-m+fp/hard\libc_nano.a(lib_a-fprintf.o)
                0x000000000800c62c                fiprintf
                0x000000000800c62c                fprintf
 .text._fwalk_reent
                0x000000000800c650       0x3e c:/st/stm32cubeide_1.9.0/stm32cubeide/plugins/com.st.stm32cube.ide.mcu.externaltools.gnu-tools-for-stm32.10.3-2021.10.win32_1.0.200.202301161003/tools/bin/../lib/gcc/arm-none-eabi/10.3.1/../../../../arm-none-eabi/lib/thumb/v7e-m+fp/hard\libc_nano.a(lib_a-fwalk.o)
                0x000000000800c650                _fwalk_reent
 .text.__retarget_lock_init_recursive
                0x000000000800c68e        0x2 c:/st/stm32cubeide_1.9.0/stm32cubeide/plugins/com.st.stm32cube.ide.mcu.externaltools.gnu-tools-for-stm32.10.3-2021.10.win32_1.0.200.202301161003/tools/bin/../lib/gcc/arm-none-eabi/10.3.1/../../../../arm-none-eabi/lib/thumb/v7e-m+fp/hard\libc_nano.a(lib_a-lock.o)
                0x000000000800c68e                __retarget_lock_init_recursive
 .text.__retarget_lock_acquire_recursive
                0x000000000800c690        0x2 c:/st/stm32cubeide_1.9.0/stm32cubeide/plugins/com.st.stm32cube.ide.mcu.externaltools.gnu-tools-for-stm32.10.3-2021.10.win32_1.0.200.202301161003/tools/bin/../lib/gcc/arm-none-eabi/10.3.1/../../../../arm-none-eabi/lib/thumb/v7e-m+fp/hard\libc_nano.a(lib_a-lock.o)
                0x000000000800c690                __retarget_lock_acquire_recursive
 .text.__retarget_lock_release_recursive
                0x000000000800c692        0x2 c:/st/stm32cubeide_1.9.0/stm32cubeide/plugins/com.st.stm32cube.ide.mcu.externaltools.gnu-tools-for-stm32.10.3-2021.10.win32_1.0.200.202301161003/tools/bin/../lib/gcc/arm-none-eabi/10.3.1/../../../../arm-none-eabi/lib/thumb/v7e-m+fp/hard\libc_nano.a(lib_a-lock.o)
                0x000000000800c692                __retarget_lock_release_recursive
 .text.malloc   0x000000000800c694       0x10 c:/st/stm32cubeide_1.9.0/stm32cubeide/plugins/com.st.stm32cube.ide.mcu.externaltools.gnu-tools-for-stm32.10.3-2021.10.win32_1.0.200.202301161003/tools/bin/../lib/gcc/arm-none-eabi/10.3.1/../../../../arm-none-eabi/lib/thumb/v7e-m+fp/hard\libc_nano.a(lib_a-malloc.o)
                0x000000000800c694                malloc
 .text._free_r  0x000000000800c6a4       0x98 c:/st/stm32cubeide_1.9.0/stm32cubeide/plugins/com.st.stm32cube.ide.mcu.externaltools.gnu-tools-for-stm32.10.3-2021.10.win32_1.0.200.202301161003/tools/bin/../lib/gcc/arm-none-eabi/10.3.1/../../../../arm-none-eabi/lib/thumb/v7e-m+fp/hard\libc_nano.a(lib_a-nano-freer.o)
                0x000000000800c6a4                _free_r
 .text.sbrk_aligned
                0x000000000800c73c       0x40 c:/st/stm32cubeide_1.9.0/stm32cubeide/plugins/com.st.stm32cube.ide.mcu.externaltools.gnu-tools-for-stm32.10.3-2021.10.win32_1.0.200.202301161003/tools/bin/../lib/gcc/arm-none-eabi/10.3.1/../../../../arm-none-eabi/lib/thumb/v7e-m+fp/hard\libc_nano.a(lib_a-nano-mallocr.o)
 .text._malloc_r
                0x000000000800c77c       0xe8 c:/st/stm32cubeide_1.9.0/stm32cubeide/plugins/com.st.stm32cube.ide.mcu.externaltools.gnu-tools-for-stm32.10.3-2021.10.win32_1.0.200.202301161003/tools/bin/../lib/gcc/arm-none-eabi/10.3.1/../../../../arm-none-eabi/lib/thumb/v7e-m+fp/hard\libc_nano.a(lib_a-nano-mallocr.o)
                0x000000000800c77c                _malloc_r
 .text.__ssputs_r
                0x000000000800c864       0xb6 c:/st/stm32cubeide_1.9.0/stm32cubeide/plugins/com.st.stm32cube.ide.mcu.externaltools.gnu-tools-for-stm32.10.3-2021.10.win32_1.0.200.202301161003/tools/bin/../lib/gcc/arm-none-eabi/10.3.1/../../../../arm-none-eabi/lib/thumb/v7e-m+fp/hard\libc_nano.a(lib_a-nano-svfprintf.o)
                0x000000000800c864                __ssputs_r
 *fill*         0x000000000800c91a        0x2 
 .text._svfprintf_r
                0x000000000800c91c      0x200 c:/st/stm32cubeide_1.9.0/stm32cubeide/plugins/com.st.stm32cube.ide.mcu.externaltools.gnu-tools-for-stm32.10.3-2021.10.win32_1.0.200.202301161003/tools/bin/../lib/gcc/arm-none-eabi/10.3.1/../../../../arm-none-eabi/lib/thumb/v7e-m+fp/hard\libc_nano.a(lib_a-nano-svfprintf.o)
                0x000000000800c91c                _svfiprintf_r
                0x000000000800c91c                _svfprintf_r
 .text.__sfputc_r
                0x000000000800cb1c       0x2e c:/st/stm32cubeide_1.9.0/stm32cubeide/plugins/com.st.stm32cube.ide.mcu.externaltools.gnu-tools-for-stm32.10.3-2021.10.win32_1.0.200.202301161003/tools/bin/../lib/gcc/arm-none-eabi/10.3.1/../../../../arm-none-eabi/lib/thumb/v7e-m+fp/hard\libc_nano.a(lib_a-nano-vfprintf.o)
 .text.__sfputs_r
                0x000000000800cb4a       0x24 c:/st/stm32cubeide_1.9.0/stm32cubeide/plugins/com.st.stm32cube.ide.mcu.externaltools.gnu-tools-for-stm32.10.3-2021.10.win32_1.0.200.202301161003/tools/bin/../lib/gcc/arm-none-eabi/10.3.1/../../../../arm-none-eabi/lib/thumb/v7e-m+fp/hard\libc_nano.a(lib_a-nano-vfprintf.o)
                0x000000000800cb4a                __sfputs_r
 *fill*         0x000000000800cb6e        0x2 
 .text._vfprintf_r
                0x000000000800cb70      0x260 c:/st/stm32cubeide_1.9.0/stm32cubeide/plugins/com.st.stm32cube.ide.mcu.externaltools.gnu-tools-for-stm32.10.3-2021.10.win32_1.0.200.202301161003/tools/bin/../lib/gcc/arm-none-eabi/10.3.1/../../../../arm-none-eabi/lib/thumb/v7e-m+fp/hard\libc_nano.a(lib_a-nano-vfprintf.o)
                0x000000000800cb70                _vfprintf_r
                0x000000000800cb70                _vfiprintf_r
 .text._printf_common
                0x000000000800cdd0       0xda c:/st/stm32cubeide_1.9.0/stm32cubeide/plugins/com.st.stm32cube.ide.mcu.externaltools.gnu-tools-for-stm32.10.3-2021.10.win32_1.0.200.202301161003/tools/bin/../lib/gcc/arm-none-eabi/10.3.1/../../../../arm-none-eabi/lib/thumb/v7e-m+fp/hard\libc_nano.a(lib_a-nano-vfprintf_i.o)
                0x000000000800cdd0                _printf_common
 *fill*         0x000000000800ceaa        0x2 
 .text._printf_i
                0x000000000800ceac      0x24c c:/st/stm32cubeide_1.9.0/stm32cubeide/plugins/com.st.stm32cube.ide.mcu.externaltools.gnu-tools-for-stm32.10.3-2021.10.win32_1.0.200.202301161003/tools/bin/../lib/gcc/arm-none-eabi/10.3.1/../../../../arm-none-eabi/lib/thumb/v7e-m+fp/hard\libc_nano.a(lib_a-nano-vfprintf_i.o)
                0x000000000800ceac                _printf_i
 .text._sbrk_r  0x000000000800d0f8       0x20 c:/st/stm32cubeide_1.9.0/stm32cubeide/plugins/com.st.stm32cube.ide.mcu.externaltools.gnu-tools-for-stm32.10.3-2021.10.win32_1.0.200.202301161003/tools/bin/../lib/gcc/arm-none-eabi/10.3.1/../../../../arm-none-eabi/lib/thumb/v7e-m+fp/hard\libc_nano.a(lib_a-sbrkr.o)
                0x000000000800d0f8                _sbrk_r
 .text.__sread  0x000000000800d118       0x22 c:/st/stm32cubeide_1.9.0/stm32cubeide/plugins/com.st.stm32cube.ide.mcu.externaltools.gnu-tools-for-stm32.10.3-2021.10.win32_1.0.200.202301161003/tools/bin/../lib/gcc/arm-none-eabi/10.3.1/../../../../arm-none-eabi/lib/thumb/v7e-m+fp/hard\libc_nano.a(lib_a-stdio.o)
                0x000000000800d118                __sread
 .text.__swrite
                0x000000000800d13a       0x38 c:/st/stm32cubeide_1.9.0/stm32cubeide/plugins/com.st.stm32cube.ide.mcu.externaltools.gnu-tools-for-stm32.10.3-2021.10.win32_1.0.200.202301161003/tools/bin/../lib/gcc/arm-none-eabi/10.3.1/../../../../arm-none-eabi/lib/thumb/v7e-m+fp/hard\libc_nano.a(lib_a-stdio.o)
                0x000000000800d13a                __swrite
 .text.__sseek  0x000000000800d172       0x24 c:/st/stm32cubeide_1.9.0/stm32cubeide/plugins/com.st.stm32cube.ide.mcu.externaltools.gnu-tools-for-stm32.10.3-2021.10.win32_1.0.200.202301161003/tools/bin/../lib/gcc/arm-none-eabi/10.3.1/../../../../arm-none-eabi/lib/thumb/v7e-m+fp/hard\libc_nano.a(lib_a-stdio.o)
                0x000000000800d172                __sseek
 .text.__sclose
                0x000000000800d196        0x8 c:/st/stm32cubeide_1.9.0/stm32cubeide/plugins/com.st.stm32cube.ide.mcu.externaltools.gnu-tools-for-stm32.10.3-2021.10.win32_1.0.200.202301161003/tools/bin/../lib/gcc/arm-none-eabi/10.3.1/../../../../arm-none-eabi/lib/thumb/v7e-m+fp/hard\libc_nano.a(lib_a-stdio.o)
                0x000000000800d196                __sclose
 *fill*         0x000000000800d19e        0x2 
 .text.__swbuf_r
                0x000000000800d1a0       0xa4 c:/st/stm32cubeide_1.9.0/stm32cubeide/plugins/com.st.stm32cube.ide.mcu.externaltools.gnu-tools-for-stm32.10.3-2021.10.win32_1.0.200.202301161003/tools/bin/../lib/gcc/arm-none-eabi/10.3.1/../../../../arm-none-eabi/lib/thumb/v7e-m+fp/hard\libc_nano.a(lib_a-wbuf.o)
                0x000000000800d1a0                __swbuf_r
 .text._write_r
                0x000000000800d244       0x24 c:/st/stm32cubeide_1.9.0/stm32cubeide/plugins/com.st.stm32cube.ide.mcu.externaltools.gnu-tools-for-stm32.10.3-2021.10.win32_1.0.200.202301161003/tools/bin/../lib/gcc/arm-none-eabi/10.3.1/../../../../arm-none-eabi/lib/thumb/v7e-m+fp/hard\libc_nano.a(lib_a-writer.o)
                0x000000000800d244                _write_r
 .text.__swsetup_r
                0x000000000800d268       0xdc c:/st/stm32cubeide_1.9.0/stm32cubeide/plugins/com.st.stm32cube.ide.mcu.externaltools.gnu-tools-for-stm32.10.3-2021.10.win32_1.0.200.202301161003/tools/bin/../lib/gcc/arm-none-eabi/10.3.1/../../../../arm-none-eabi/lib/thumb/v7e-m+fp/hard\libc_nano.a(lib_a-wsetup.o)
                0x000000000800d268                __swsetup_r
 .text.abort    0x000000000800d344        0xe c:/st/stm32cubeide_1.9.0/stm32cubeide/plugins/com.st.stm32cube.ide.mcu.externaltools.gnu-tools-for-stm32.10.3-2021.10.win32_1.0.200.202301161003/tools/bin/../lib/gcc/arm-none-eabi/10.3.1/../../../../arm-none-eabi/lib/thumb/v7e-m+fp/hard\libc_nano.a(lib_a-abort.o)
                0x000000000800d344                abort
 *fill*         0x000000000800d352        0x2 
 .text._close_r
                0x000000000800d354       0x20 c:/st/stm32cubeide_1.9.0/stm32cubeide/plugins/com.st.stm32cube.ide.mcu.externaltools.gnu-tools-for-stm32.10.3-2021.10.win32_1.0.200.202301161003/tools/bin/../lib/gcc/arm-none-eabi/10.3.1/../../../../arm-none-eabi/lib/thumb/v7e-m+fp/hard\libc_nano.a(lib_a-closer.o)
                0x000000000800d354                _close_r
 .text.__sflush_r
                0x000000000800d374      0x10c c:/st/stm32cubeide_1.9.0/stm32cubeide/plugins/com.st.stm32cube.ide.mcu.externaltools.gnu-tools-for-stm32.10.3-2021.10.win32_1.0.200.202301161003/tools/bin/../lib/gcc/arm-none-eabi/10.3.1/../../../../arm-none-eabi/lib/thumb/v7e-m+fp/hard\libc_nano.a(lib_a-fflush.o)
                0x000000000800d374                __sflush_r
 .text._fflush_r
                0x000000000800d480       0x78 c:/st/stm32cubeide_1.9.0/stm32cubeide/plugins/com.st.stm32cube.ide.mcu.externaltools.gnu-tools-for-stm32.10.3-2021.10.win32_1.0.200.202301161003/tools/bin/../lib/gcc/arm-none-eabi/10.3.1/../../../../arm-none-eabi/lib/thumb/v7e-m+fp/hard\libc_nano.a(lib_a-fflush.o)
                0x000000000800d480                _fflush_r
 .text._lseek_r
                0x000000000800d4f8       0x24 c:/st/stm32cubeide_1.9.0/stm32cubeide/plugins/com.st.stm32cube.ide.mcu.externaltools.gnu-tools-for-stm32.10.3-2021.10.win32_1.0.200.202301161003/tools/bin/../lib/gcc/arm-none-eabi/10.3.1/../../../../arm-none-eabi/lib/thumb/v7e-m+fp/hard\libc_nano.a(lib_a-lseekr.o)
                0x000000000800d4f8                _lseek_r
 .text.__swhatbuf_r
                0x000000000800d51c       0x4a c:/st/stm32cubeide_1.9.0/stm32cubeide/plugins/com.st.stm32cube.ide.mcu.externaltools.gnu-tools-for-stm32.10.3-2021.10.win32_1.0.200.202301161003/tools/bin/../lib/gcc/arm-none-eabi/10.3.1/../../../../arm-none-eabi/lib/thumb/v7e-m+fp/hard\libc_nano.a(lib_a-makebuf.o)
                0x000000000800d51c                __swhatbuf_r
 *fill*         0x000000000800d566        0x2 
 .text.__smakebuf_r
                0x000000000800d568       0x80 c:/st/stm32cubeide_1.9.0/stm32cubeide/plugins/com.st.stm32cube.ide.mcu.externaltools.gnu-tools-for-stm32.10.3-2021.10.win32_1.0.200.202301161003/tools/bin/../lib/gcc/arm-none-eabi/10.3.1/../../../../arm-none-eabi/lib/thumb/v7e-m+fp/hard\libc_nano.a(lib_a-makebuf.o)
                0x000000000800d568                __smakebuf_r
 .text.__malloc_lock
                0x000000000800d5e8        0xc c:/st/stm32cubeide_1.9.0/stm32cubeide/plugins/com.st.stm32cube.ide.mcu.externaltools.gnu-tools-for-stm32.10.3-2021.10.win32_1.0.200.202301161003/tools/bin/../lib/gcc/arm-none-eabi/10.3.1/../../../../arm-none-eabi/lib/thumb/v7e-m+fp/hard\libc_nano.a(lib_a-mlock.o)
                0x000000000800d5e8                __malloc_lock
 .text.__malloc_unlock
                0x000000000800d5f4        0xc c:/st/stm32cubeide_1.9.0/stm32cubeide/plugins/com.st.stm32cube.ide.mcu.externaltools.gnu-tools-for-stm32.10.3-2021.10.win32_1.0.200.202301161003/tools/bin/../lib/gcc/arm-none-eabi/10.3.1/../../../../arm-none-eabi/lib/thumb/v7e-m+fp/hard\libc_nano.a(lib_a-mlock.o)
                0x000000000800d5f4                __malloc_unlock
 .text._realloc_r
                0x000000000800d600       0x5e c:/st/stm32cubeide_1.9.0/stm32cubeide/plugins/com.st.stm32cube.ide.mcu.externaltools.gnu-tools-for-stm32.10.3-2021.10.win32_1.0.200.202301161003/tools/bin/../lib/gcc/arm-none-eabi/10.3.1/../../../../arm-none-eabi/lib/thumb/v7e-m+fp/hard\libc_nano.a(lib_a-nano-reallocr.o)
                0x000000000800d600                _realloc_r
 *fill*         0x000000000800d65e        0x2 
 .text._read_r  0x000000000800d660       0x24 c:/st/stm32cubeide_1.9.0/stm32cubeide/plugins/com.st.stm32cube.ide.mcu.externaltools.gnu-tools-for-stm32.10.3-2021.10.win32_1.0.200.202301161003/tools/bin/../lib/gcc/arm-none-eabi/10.3.1/../../../../arm-none-eabi/lib/thumb/v7e-m+fp/hard\libc_nano.a(lib_a-readr.o)
                0x000000000800d660                _read_r
 .text._raise_r
                0x000000000800d684       0x50 c:/st/stm32cubeide_1.9.0/stm32cubeide/plugins/com.st.stm32cube.ide.mcu.externaltools.gnu-tools-for-stm32.10.3-2021.10.win32_1.0.200.202301161003/tools/bin/../lib/gcc/arm-none-eabi/10.3.1/../../../../arm-none-eabi/lib/thumb/v7e-m+fp/hard\libc_nano.a(lib_a-signal.o)
                0x000000000800d684                _raise_r
 .text.raise    0x000000000800d6d4       0x10 c:/st/stm32cubeide_1.9.0/stm32cubeide/plugins/com.st.stm32cube.ide.mcu.externaltools.gnu-tools-for-stm32.10.3-2021.10.win32_1.0.200.202301161003/tools/bin/../lib/gcc/arm-none-eabi/10.3.1/../../../../arm-none-eabi/lib/thumb/v7e-m+fp/hard\libc_nano.a(lib_a-signal.o)
                0x000000000800d6d4                raise
 .text._kill_r  0x000000000800d6e4       0x24 c:/st/stm32cubeide_1.9.0/stm32cubeide/plugins/com.st.stm32cube.ide.mcu.externaltools.gnu-tools-for-stm32.10.3-2021.10.win32_1.0.200.202301161003/tools/bin/../lib/gcc/arm-none-eabi/10.3.1/../../../../arm-none-eabi/lib/thumb/v7e-m+fp/hard\libc_nano.a(lib_a-signalr.o)
                0x000000000800d6e4                _kill_r
 .text._getpid_r
                0x000000000800d708        0x4 c:/st/stm32cubeide_1.9.0/stm32cubeide/plugins/com.st.stm32cube.ide.mcu.externaltools.gnu-tools-for-stm32.10.3-2021.10.win32_1.0.200.202301161003/tools/bin/../lib/gcc/arm-none-eabi/10.3.1/../../../../arm-none-eabi/lib/thumb/v7e-m+fp/hard\libc_nano.a(lib_a-signalr.o)
                0x000000000800d708                _getpid_r
 .text._fstat_r
                0x000000000800d70c       0x24 c:/st/stm32cubeide_1.9.0/stm32cubeide/plugins/com.st.stm32cube.ide.mcu.externaltools.gnu-tools-for-stm32.10.3-2021.10.win32_1.0.200.202301161003/tools/bin/../lib/gcc/arm-none-eabi/10.3.1/../../../../arm-none-eabi/lib/thumb/v7e-m+fp/hard\libc_nano.a(lib_a-fstatr.o)
                0x000000000800d70c                _fstat_r
 .text._isatty_r
                0x000000000800d730       0x20 c:/st/stm32cubeide_1.9.0/stm32cubeide/plugins/com.st.stm32cube.ide.mcu.externaltools.gnu-tools-for-stm32.10.3-2021.10.win32_1.0.200.202301161003/tools/bin/../lib/gcc/arm-none-eabi/10.3.1/../../../../arm-none-eabi/lib/thumb/v7e-m+fp/hard\libc_nano.a(lib_a-isattyr.o)
                0x000000000800d730                _isatty_r
 .text._malloc_usable_size_r
                0x000000000800d750       0x10 c:/st/stm32cubeide_1.9.0/stm32cubeide/plugins/com.st.stm32cube.ide.mcu.externaltools.gnu-tools-for-stm32.10.3-2021.10.win32_1.0.200.202301161003/tools/bin/../lib/gcc/arm-none-eabi/10.3.1/../../../../arm-none-eabi/lib/thumb/v7e-m+fp/hard\libc_nano.a(lib_a-nano-msizer.o)
                0x000000000800d750                _malloc_usable_size_r
 *(.glue_7)
 .glue_7        0x000000000800d760        0x0 linker stubs
 *(.glue_7t)
 .glue_7t       0x000000000800d760        0x0 linker stubs
 *(.eh_frame)
 .eh_frame      0x000000000800d760        0x0 c:/st/stm32cubeide_1.9.0/stm32cubeide/plugins/com.st.stm32cube.ide.mcu.externaltools.gnu-tools-for-stm32.10.3-2021.10.win32_1.0.200.202301161003/tools/bin/../lib/gcc/arm-none-eabi/10.3.1/thumb/v7e-m+fp/hard/crtbegin.o
 *(.init)
 .init          0x000000000800d760        0x4 c:/st/stm32cubeide_1.9.0/stm32cubeide/plugins/com.st.stm32cube.ide.mcu.externaltools.gnu-tools-for-stm32.10.3-2021.10.win32_1.0.200.202301161003/tools/bin/../lib/gcc/arm-none-eabi/10.3.1/thumb/v7e-m+fp/hard/crti.o
                0x000000000800d760                _init
 .init          0x000000000800d764        0x8 c:/st/stm32cubeide_1.9.0/stm32cubeide/plugins/com.st.stm32cube.ide.mcu.externaltools.gnu-tools-for-stm32.10.3-2021.10.win32_1.0.200.202301161003/tools/bin/../lib/gcc/arm-none-eabi/10.3.1/thumb/v7e-m+fp/hard/crtn.o
 *(.fini)
 .fini          0x000000000800d76c        0x4 c:/st/stm32cubeide_1.9.0/stm32cubeide/plugins/com.st.stm32cube.ide.mcu.externaltools.gnu-tools-for-stm32.10.3-2021.10.win32_1.0.200.202301161003/tools/bin/../lib/gcc/arm-none-eabi/10.3.1/thumb/v7e-m+fp/hard/crti.o
                0x000000000800d76c                _fini
 .fini          0x000000000800d770        0x8 c:/st/stm32cubeide_1.9.0/stm32cubeide/plugins/com.st.stm32cube.ide.mcu.externaltools.gnu-tools-for-stm32.10.3-2021.10.win32_1.0.200.202301161003/tools/bin/../lib/gcc/arm-none-eabi/10.3.1/thumb/v7e-m+fp/hard/crtn.o
                0x000000000800d778                . = ALIGN (0x4)
                0x000000000800d778                _etext = .

.vfp11_veneer   0x000000000800d778        0x0
 .vfp11_veneer  0x000000000800d778        0x0 linker stubs

.v4_bx          0x000000000800d778        0x0
 .v4_bx         0x000000000800d778        0x0 linker stubs

.iplt           0x000000000800d778        0x0
 .iplt          0x000000000800d778        0x0 c:/st/stm32cubeide_1.9.0/stm32cubeide/plugins/com.st.stm32cube.ide.mcu.externaltools.gnu-tools-for-stm32.10.3-2021.10.win32_1.0.200.202301161003/tools/bin/../lib/gcc/arm-none-eabi/10.3.1/thumb/v7e-m+fp/hard/crtbegin.o

.rodata         0x000000000800d778     0x2200
                0x000000000800d778                . = ALIGN (0x4)
 *(.rodata)
 *(.rodata*)
 .rodata.CECCR_INST
                0x000000000800d778        0x1 ./Core/Src/CY15B104QSN.o
 .rodata.WREN_INST
                0x000000000800d779        0x1 ./Core/Src/CY15B104QSN.o
 .rodata.AHBPrescTable
                0x000000000800d77a       0x10 ./Core/Src/system_stm32f4xx.o
                0x000000000800d77a                AHBPrescTable
 .rodata.APBPrescTable
                0x000000000800d78a        0x8 ./Core/Src/system_stm32f4xx.o
                0x000000000800d78a                APBPrescTable
 .rodata.tcp_server_handle.str1.1
                0x000000000800d792       0x22 ./Core/Src/tcpServerRAW.o
                                         0x24 (size before relaxing)
 .rodata.tcp_server_recv.str1.1
                0x000000000800d7b4       0x4f ./Core/Src/tcpServerRAW.o
 .rodata.flagBitshiftOffset.0
                0x000000000800d803        0x8 ./Drivers/STM32F4xx_HAL_Driver/Src/stm32f4xx_hal_dma.o
 .rodata.ethernetif_init.str1.1
                0x000000000800d80b       0x2a ./LWIP/Target/ethernetif.o
                                         0x52 (size before relaxing)
 *fill*         0x000000000800d835        0x1 
 .rodata.CSWTCH.22
                0x000000000800d836        0x8 ./LWIP/Target/ethernetif.o
 .rodata.CSWTCH.23
                0x000000000800d83e        0x8 ./LWIP/Target/ethernetif.o
 *fill*         0x000000000800d846        0x2 
 .rodata.memp_RX_POOL
                0x000000000800d848        0xc ./LWIP/Target/ethernetif.o
                0x000000000800d848                memp_RX_POOL
 .rodata.mem_free.str1.1
                0x000000000800d854      0x120 ./Middlewares/Third_Party/LwIP/src/core/mem.o
                                        0x148 (size before relaxing)
 .rodata.mem_trim.str1.1
                0x000000000800d974       0x48 ./Middlewares/Third_Party/LwIP/src/core/mem.o
 .rodata.mem_malloc.str1.1
                0x000000000800d9bc       0x9b ./Middlewares/Third_Party/LwIP/src/core/mem.o
 .rodata.do_memp_free_pool.str1.1
                0x000000000800da57       0x50 ./Middlewares/Third_Party/LwIP/src/core/memp.o
                                         0x78 (size before relaxing)
 .rodata.do_memp_malloc_pool.isra.0.str1.1
                0x000000000800daa7       0x23 ./Middlewares/Third_Party/LwIP/src/core/memp.o
 .rodata.memp_malloc_pool.str1.1
                0x000000000800daca       0x12 ./Middlewares/Third_Party/LwIP/src/core/memp.o
 .rodata.memp_malloc.str1.1
                0x000000000800dadc       0x1d ./Middlewares/Third_Party/LwIP/src/core/memp.o
 .rodata.memp_free.str1.1
                0x000000000800daf9       0x1b ./Middlewares/Third_Party/LwIP/src/core/memp.o
 .rodata.memp_FRAG_PBUF
                0x000000000800db14        0xc ./Middlewares/Third_Party/LwIP/src/core/memp.o
                0x000000000800db14                memp_FRAG_PBUF
 .rodata.memp_PBUF
                0x000000000800db20        0xc ./Middlewares/Third_Party/LwIP/src/core/memp.o
                0x000000000800db20                memp_PBUF
 .rodata.memp_PBUF_POOL
                0x000000000800db2c        0xc ./Middlewares/Third_Party/LwIP/src/core/memp.o
                0x000000000800db2c                memp_PBUF_POOL
 .rodata.memp_REASSDATA
                0x000000000800db38        0xc ./Middlewares/Third_Party/LwIP/src/core/memp.o
                0x000000000800db38                memp_REASSDATA
 .rodata.memp_SYS_TIMEOUT
                0x000000000800db44        0xc ./Middlewares/Third_Party/LwIP/src/core/memp.o
                0x000000000800db44                memp_SYS_TIMEOUT
 .rodata.memp_TCP_PCB
                0x000000000800db50        0xc ./Middlewares/Third_Party/LwIP/src/core/memp.o
                0x000000000800db50                memp_TCP_PCB
 .rodata.memp_TCP_PCB_LISTEN
                0x000000000800db5c        0xc ./Middlewares/Third_Party/LwIP/src/core/memp.o
                0x000000000800db5c                memp_TCP_PCB_LISTEN
 .rodata.memp_TCP_SEG
                0x000000000800db68        0xc ./Middlewares/Third_Party/LwIP/src/core/memp.o
                0x000000000800db68                memp_TCP_SEG
 .rodata.memp_UDP_PCB
                0x000000000800db74        0xc ./Middlewares/Third_Party/LwIP/src/core/memp.o
                0x000000000800db74                memp_UDP_PCB
 .rodata.memp_pools
                0x000000000800db80       0x24 ./Middlewares/Third_Party/LwIP/src/core/memp.o
                0x000000000800db80                memp_pools
 .rodata.netif_issue_reports.str1.1
                0x000000000800dba4       0x54 ./Middlewares/Third_Party/LwIP/src/core/netif.o
                                         0x7c (size before relaxing)
 .rodata.netif_do_set_ipaddr.isra.0.str1.1
                0x000000000800dbf8       0x10 ./Middlewares/Third_Party/LwIP/src/core/netif.o
 .rodata.netif_add.str1.1
                0x000000000800dc08       0x7d ./Middlewares/Third_Party/LwIP/src/core/netif.o
 .rodata.netif_set_up.str1.1
                0x000000000800dc85       0x1c ./Middlewares/Third_Party/LwIP/src/core/netif.o
 .rodata.netif_set_down.str1.1
                0x000000000800dca1       0x1e ./Middlewares/Third_Party/LwIP/src/core/netif.o
 .rodata.netif_set_link_up.str1.1
                0x000000000800dcbf       0x21 ./Middlewares/Third_Party/LwIP/src/core/netif.o
 .rodata.netif_set_link_down.str1.1
                0x000000000800dce0       0x23 ./Middlewares/Third_Party/LwIP/src/core/netif.o
 .rodata.pbuf_add_header_impl.str1.1
                0x000000000800dd03       0x30 ./Middlewares/Third_Party/LwIP/src/core/pbuf.o
                                         0x62 (size before relaxing)
 .rodata.pbuf_alloc_reference.str1.1
                0x000000000800dd33       0x12 ./Middlewares/Third_Party/LwIP/src/core/pbuf.o
 .rodata.pbuf_remove_header.str1.1
                0x000000000800dd45       0x1e ./Middlewares/Third_Party/LwIP/src/core/pbuf.o
 .rodata.pbuf_free.str1.1
                0x000000000800dd63       0x49 ./Middlewares/Third_Party/LwIP/src/core/pbuf.o
 .rodata.pbuf_alloc.str1.1
                0x000000000800ddac       0x1b ./Middlewares/Third_Party/LwIP/src/core/pbuf.o
 .rodata.pbuf_realloc.str1.1
                0x000000000800ddc7       0x4c ./Middlewares/Third_Party/LwIP/src/core/pbuf.o
 .rodata.pbuf_ref.str1.1
                0x000000000800de13       0x12 ./Middlewares/Third_Party/LwIP/src/core/pbuf.o
 .rodata.pbuf_cat.str1.1
                0x000000000800de25       0x72 ./Middlewares/Third_Party/LwIP/src/core/pbuf.o
 .rodata.pbuf_copy.str1.1
                0x000000000800de97       0x99 ./Middlewares/Third_Party/LwIP/src/core/pbuf.o
 .rodata.pbuf_copy_partial.str1.1
                0x000000000800df30       0x42 ./Middlewares/Third_Party/LwIP/src/core/pbuf.o
 .rodata.pbuf_clone.str1.1
                0x000000000800df72       0x11 ./Middlewares/Third_Party/LwIP/src/core/pbuf.o
 .rodata.tcp_close_shutdown_fin.str1.1
                0x000000000800df83       0x3b ./Middlewares/Third_Party/LwIP/src/core/tcp.o
                                         0x63 (size before relaxing)
 .rodata.tcp_free.str1.1
                0x000000000800dfbe       0x11 ./Middlewares/Third_Party/LwIP/src/core/tcp.o
 .rodata.tcp_bind.str1.1
                0x000000000800dfcf       0x3e ./Middlewares/Third_Party/LwIP/src/core/tcp.o
 .rodata.tcp_listen_with_backlog_and_err.str1.1
                0x000000000800e00d       0x64 ./Middlewares/Third_Party/LwIP/src/core/tcp.o
 .rodata.tcp_update_rcv_ann_wnd.str1.1
                0x000000000800e071       0x3e ./Middlewares/Third_Party/LwIP/src/core/tcp.o
 .rodata.tcp_recved.str1.1
                0x000000000800e0af       0x3e ./Middlewares/Third_Party/LwIP/src/core/tcp.o
 .rodata.tcp_setprio.str1.1
                0x000000000800e0ed       0x19 ./Middlewares/Third_Party/LwIP/src/core/tcp.o
 .rodata.tcp_seg_copy.str1.1
                0x000000000800e106       0x1a ./Middlewares/Third_Party/LwIP/src/core/tcp.o
 .rodata.tcp_recv.str1.1
                0x000000000800e120       0x27 ./Middlewares/Third_Party/LwIP/src/core/tcp.o
 .rodata.tcp_sent.str1.1
                0x000000000800e147       0x27 ./Middlewares/Third_Party/LwIP/src/core/tcp.o
 .rodata.tcp_err.str1.1
                0x000000000800e16e       0x26 ./Middlewares/Third_Party/LwIP/src/core/tcp.o
 .rodata.tcp_poll.str1.1
                0x000000000800e194       0x34 ./Middlewares/Third_Party/LwIP/src/core/tcp.o
 .rodata.tcp_next_iss.str1.1
                0x000000000800e1c8       0x1a ./Middlewares/Third_Party/LwIP/src/core/tcp.o
 .rodata.tcp_eff_send_mss_netif.str1.1
                0x000000000800e1e2       0x27 ./Middlewares/Third_Party/LwIP/src/core/tcp.o
 .rodata.tcp_pcb_purge.str1.1
                0x000000000800e209       0x1b ./Middlewares/Third_Party/LwIP/src/core/tcp.o
 .rodata.tcp_pcb_remove.str1.1
                0x000000000800e224       0x84 ./Middlewares/Third_Party/LwIP/src/core/tcp.o
 .rodata.tcp_abandon.str1.1
                0x000000000800e2a8       0x4a ./Middlewares/Third_Party/LwIP/src/core/tcp.o
 .rodata.tcp_accept_null.str1.1
                0x000000000800e2f2       0x1d ./Middlewares/Third_Party/LwIP/src/core/tcp.o
 .rodata.tcp_netif_ip_addr_changed_pcblist.str1.1
                0x000000000800e30f       0x34 ./Middlewares/Third_Party/LwIP/src/core/tcp.o
 .rodata.tcp_close_shutdown.str1.1
                0x000000000800e343       0x52 ./Middlewares/Third_Party/LwIP/src/core/tcp.o
 .rodata.tcp_close.str1.1
                0x000000000800e395       0x17 ./Middlewares/Third_Party/LwIP/src/core/tcp.o
 .rodata.tcp_recv_null.str1.1
                0x000000000800e3ac       0x1b ./Middlewares/Third_Party/LwIP/src/core/tcp.o
 .rodata.tcp_process_refused_data.str1.1
                0x000000000800e3c7       0x26 ./Middlewares/Third_Party/LwIP/src/core/tcp.o
 .rodata.tcp_slowtmr.str1.1
                0x000000000800e3ed      0x1b9 ./Middlewares/Third_Party/LwIP/src/core/tcp.o
 .rodata.tcp_backoff
                0x000000000800e5a6        0xd ./Middlewares/Third_Party/LwIP/src/core/tcp.o
 *fill*         0x000000000800e5b3        0x1 
 .rodata.tcp_pcb_lists
                0x000000000800e5b4       0x10 ./Middlewares/Third_Party/LwIP/src/core/tcp.o
                0x000000000800e5b4                tcp_pcb_lists
 .rodata.tcp_persist_backoff
                0x000000000800e5c4        0x7 ./Middlewares/Third_Party/LwIP/src/core/tcp.o
 .rodata.tcp_oos_insert_segment.str1.1
                0x000000000800e5cb       0x57 ./Middlewares/Third_Party/LwIP/src/core/tcp_in.o
                                         0x7f (size before relaxing)
 .rodata.tcp_parseopt.str1.1
                0x000000000800e622       0x1a ./Middlewares/Third_Party/LwIP/src/core/tcp_in.o
 .rodata.tcp_input_delayed_close.str1.1
                0x000000000800e63c       0x25 ./Middlewares/Third_Party/LwIP/src/core/tcp_in.o
 .rodata.tcp_free_acked_segments.constprop.0.str1.1
                0x000000000800e661       0x48 ./Middlewares/Third_Party/LwIP/src/core/tcp_in.o
 .rodata.tcp_receive.str1.1
                0x000000000800e6a9      0x117 ./Middlewares/Third_Party/LwIP/src/core/tcp_in.o
 .rodata.tcp_input.str1.1
                0x000000000800e7c0      0x1ce ./Middlewares/Third_Party/LwIP/src/core/tcp_in.o
 .rodata.tcp_output_segment_busy.str1.1
                0x000000000800e98e       0x58 ./Middlewares/Third_Party/LwIP/src/core/tcp_out.o
                                         0x80 (size before relaxing)
 .rodata.tcp_pbuf_prealloc.str1.1
                0x000000000800e9e6       0x33 ./Middlewares/Third_Party/LwIP/src/core/tcp_out.o
 .rodata.tcp_create_segment.str1.1
                0x000000000800ea19       0x56 ./Middlewares/Third_Party/LwIP/src/core/tcp_out.o
 .rodata.tcp_output_alloc_header_common.constprop.0.str1.1
                0x000000000800ea6f       0x2e ./Middlewares/Third_Party/LwIP/src/core/tcp_out.o
 .rodata.tcp_output_alloc_header.constprop.0.str1.1
                0x000000000800ea9d       0x25 ./Middlewares/Third_Party/LwIP/src/core/tcp_out.o
 .rodata.tcp_output_fill_options.constprop.0.str1.1
                0x000000000800eac2       0x26 ./Middlewares/Third_Party/LwIP/src/core/tcp_out.o
 .rodata.tcp_output_control_segment.str1.1
                0x000000000800eae8       0x29 ./Middlewares/Third_Party/LwIP/src/core/tcp_out.o
 .rodata.tcp_write.str1.1
                0x000000000800eb11      0x249 ./Middlewares/Third_Party/LwIP/src/core/tcp_out.o
 .rodata.tcp_split_unsent_seg.str1.1
                0x000000000800ed5a       0x5f ./Middlewares/Third_Party/LwIP/src/core/tcp_out.o
 .rodata.tcp_enqueue_flags.str1.1
                0x000000000800edb9      0x117 ./Middlewares/Third_Party/LwIP/src/core/tcp_out.o
 .rodata.tcp_send_fin.str1.1
                0x000000000800eed0       0x1a ./Middlewares/Third_Party/LwIP/src/core/tcp_out.o
 .rodata.tcp_rexmit_rto_prepare.str1.1
                0x000000000800eeea       0x24 ./Middlewares/Third_Party/LwIP/src/core/tcp_out.o
 .rodata.tcp_rexmit.str1.1
                0x000000000800ef0e       0x18 ./Middlewares/Third_Party/LwIP/src/core/tcp_out.o
 .rodata.tcp_rexmit_fast.str1.1
                0x000000000800ef26       0x1d ./Middlewares/Third_Party/LwIP/src/core/tcp_out.o
 .rodata.tcp_rst.str1.1
                0x000000000800ef43       0x35 ./Middlewares/Third_Party/LwIP/src/core/tcp_out.o
 .rodata.tcp_send_empty_ack.str1.1
                0x000000000800ef78       0x20 ./Middlewares/Third_Party/LwIP/src/core/tcp_out.o
 .rodata.tcp_output.str1.1
                0x000000000800ef98       0x68 ./Middlewares/Third_Party/LwIP/src/core/tcp_out.o
 .rodata.tcp_rexmit_rto_commit.str1.1
                0x000000000800f000       0x23 ./Middlewares/Third_Party/LwIP/src/core/tcp_out.o
 .rodata.tcp_rexmit_rto.str1.1
                0x000000000800f023       0x1c ./Middlewares/Third_Party/LwIP/src/core/tcp_out.o
 .rodata.tcp_keepalive.str1.1
                0x000000000800f03f       0x1b ./Middlewares/Third_Party/LwIP/src/core/tcp_out.o
 .rodata.tcp_zero_window_probe.str1.1
                0x000000000800f05a       0x23 ./Middlewares/Third_Party/LwIP/src/core/tcp_out.o
 .rodata.sys_timeout_abs.str1.1
                0x000000000800f07d       0x71 ./Middlewares/Third_Party/LwIP/src/core/timeouts.o
                                         0x99 (size before relaxing)
 .rodata.sys_timeout.str1.1
                0x000000000800f0ee       0x36 ./Middlewares/Third_Party/LwIP/src/core/timeouts.o
 .rodata.lwip_cyclic_timers
                0x000000000800f124       0x18 ./Middlewares/Third_Party/LwIP/src/core/timeouts.o
                0x000000000800f124                lwip_cyclic_timers
 .rodata.udp_input.str1.1
                0x000000000800f13c       0xa0 ./Middlewares/Third_Party/LwIP/src/core/udp.o
                                         0xc8 (size before relaxing)
 .rodata.etharp_find_entry.str1.1
                0x000000000800f1dc       0x77 ./Middlewares/Third_Party/LwIP/src/core/ipv4/etharp.o
                                         0x9f (size before relaxing)
 .rodata.etharp_raw.str1.1
                0x000000000800f253       0x72 ./Middlewares/Third_Party/LwIP/src/core/ipv4/etharp.o
                                         0x80 (size before relaxing)
 .rodata.etharp_get_entry.str1.1
                0x000000000800f2c5       0x1f ./Middlewares/Third_Party/LwIP/src/core/ipv4/etharp.o
 .rodata.etharp_input.str1.1
                0x000000000800f2e4       0x24 ./Middlewares/Third_Party/LwIP/src/core/ipv4/etharp.o
 .rodata.etharp_output_to_arp_index.str1.1
                0x000000000800f308       0x30 ./Middlewares/Third_Party/LwIP/src/core/ipv4/etharp.o
 .rodata.etharp_query.str1.1
                0x000000000800f338       0x28 ./Middlewares/Third_Party/LwIP/src/core/ipv4/etharp.o
 .rodata.etharp_output.str1.1
                0x000000000800f360       0x28 ./Middlewares/Third_Party/LwIP/src/core/ipv4/etharp.o
                                          0xa (size before relaxing)
 .rodata.icmp_send_response.str1.1
                0x000000000800f360       0x61 ./Middlewares/Third_Party/LwIP/src/core/ipv4/icmp.o
                                         0x89 (size before relaxing)
 .rodata.icmp_input.str1.1
                0x000000000800f3c1       0x67 ./Middlewares/Third_Party/LwIP/src/core/ipv4/icmp.o
 .rodata.ip4_output_if_src.str1.1
                0x000000000800f428       0x6d ./Middlewares/Third_Party/LwIP/src/core/ipv4/ip4.o
                                         0x95 (size before relaxing)
 *fill*         0x000000000800f495        0x3 
 .rodata.ip_addr_any
                0x000000000800f498        0x4 ./Middlewares/Third_Party/LwIP/src/core/ipv4/ip4_addr.o
                0x000000000800f498                ip_addr_any
 .rodata.ip_reass_dequeue_datagram.str1.1
                0x000000000800f49c       0x52 ./Middlewares/Third_Party/LwIP/src/core/ipv4/ip4_frag.o
                                         0x7a (size before relaxing)
 .rodata.ip_reass_free_complete_datagram.str1.1
                0x000000000800f4ee       0x5d ./Middlewares/Third_Party/LwIP/src/core/ipv4/ip4_frag.o
 .rodata.ip_frag_free_pbuf_custom_ref.str1.1
                0x000000000800f54b        0xa ./Middlewares/Third_Party/LwIP/src/core/ipv4/ip4_frag.o
 .rodata.ipfrag_free_pbuf_custom.str1.1
                0x000000000800f54b        0xc ./Middlewares/Third_Party/LwIP/src/core/ipv4/ip4_frag.o
 .rodata.ip4_reass.str1.1
                0x000000000800f557       0xbf ./Middlewares/Third_Party/LwIP/src/core/ipv4/ip4_frag.o
 .rodata.ip4_frag.str1.1
                0x000000000800f616       0x4a ./Middlewares/Third_Party/LwIP/src/core/ipv4/ip4_frag.o
 .rodata.ethernet_output.str1.1
                0x000000000800f660       0x66 ./Middlewares/Third_Party/LwIP/src/netif/ethernet.o
                                         0x8e (size before relaxing)
 .rodata.ethbroadcast
                0x000000000800f6c6        0x6 ./Middlewares/Third_Party/LwIP/src/netif/ethernet.o
                0x000000000800f6c6                ethbroadcast
 .rodata.ethzero
                0x000000000800f6cc        0x6 ./Middlewares/Third_Party/LwIP/src/netif/ethernet.o
                0x000000000800f6cc                ethzero
 .rodata._ctype_
                0x000000000800f6d2      0x101 c:/st/stm32cubeide_1.9.0/stm32cubeide/plugins/com.st.stm32cube.ide.mcu.externaltools.gnu-tools-for-stm32.10.3-2021.10.win32_1.0.200.202301161003/tools/bin/../lib/gcc/arm-none-eabi/10.3.1/../../../../arm-none-eabi/lib/thumb/v7e-m+fp/hard\libc_nano.a(lib_a-ctype_.o)
                0x000000000800f6d2                _ctype_
 *fill*         0x000000000800f7d3        0x1 
 .rodata._global_impure_ptr
                0x000000000800f7d4        0x4 c:/st/stm32cubeide_1.9.0/stm32cubeide/plugins/com.st.stm32cube.ide.mcu.externaltools.gnu-tools-for-stm32.10.3-2021.10.win32_1.0.200.202301161003/tools/bin/../lib/gcc/arm-none-eabi/10.3.1/../../../../arm-none-eabi/lib/thumb/v7e-m+fp/hard\libc_nano.a(lib_a-impure.o)
                0x000000000800f7d4                _global_impure_ptr
 .rodata.srand.str1.1
                0x000000000800f7d8       0x72 c:/st/stm32cubeide_1.9.0/stm32cubeide/plugins/com.st.stm32cube.ide.mcu.externaltools.gnu-tools-for-stm32.10.3-2021.10.win32_1.0.200.202301161003/tools/bin/../lib/gcc/arm-none-eabi/10.3.1/../../../../arm-none-eabi/lib/thumb/v7e-m+fp/hard\libc_nano.a(lib_a-rand.o)
 .rodata.strtok.str1.1
                0x000000000800f84a       0x5d c:/st/stm32cubeide_1.9.0/stm32cubeide/plugins/com.st.stm32cube.ide.mcu.externaltools.gnu-tools-for-stm32.10.3-2021.10.win32_1.0.200.202301161003/tools/bin/../lib/gcc/arm-none-eabi/10.3.1/../../../../arm-none-eabi/lib/thumb/v7e-m+fp/hard\libc_nano.a(lib_a-strtok.o)
                                         0x74 (size before relaxing)
 .rodata.__assert_func.str1.1
                0x000000000800f8a7       0x3c c:/st/stm32cubeide_1.9.0/stm32cubeide/plugins/com.st.stm32cube.ide.mcu.externaltools.gnu-tools-for-stm32.10.3-2021.10.win32_1.0.200.202301161003/tools/bin/../lib/gcc/arm-none-eabi/10.3.1/../../../../arm-none-eabi/lib/thumb/v7e-m+fp/hard\libc_nano.a(lib_a-assert.o)
                                         0x3d (size before relaxing)
 *fill*         0x000000000800f8e3        0x1 
 .rodata.__sf_fake_stderr
                0x000000000800f8e4       0x20 c:/st/stm32cubeide_1.9.0/stm32cubeide/plugins/com.st.stm32cube.ide.mcu.externaltools.gnu-tools-for-stm32.10.3-2021.10.win32_1.0.200.202301161003/tools/bin/../lib/gcc/arm-none-eabi/10.3.1/../../../../arm-none-eabi/lib/thumb/v7e-m+fp/hard\libc_nano.a(lib_a-findfp.o)
                0x000000000800f8e4                __sf_fake_stderr
 .rodata.__sf_fake_stdin
                0x000000000800f904       0x20 c:/st/stm32cubeide_1.9.0/stm32cubeide/plugins/com.st.stm32cube.ide.mcu.externaltools.gnu-tools-for-stm32.10.3-2021.10.win32_1.0.200.202301161003/tools/bin/../lib/gcc/arm-none-eabi/10.3.1/../../../../arm-none-eabi/lib/thumb/v7e-m+fp/hard\libc_nano.a(lib_a-findfp.o)
                0x000000000800f904                __sf_fake_stdin
 .rodata.__sf_fake_stdout
                0x000000000800f924       0x20 c:/st/stm32cubeide_1.9.0/stm32cubeide/plugins/com.st.stm32cube.ide.mcu.externaltools.gnu-tools-for-stm32.10.3-2021.10.win32_1.0.200.202301161003/tools/bin/../lib/gcc/arm-none-eabi/10.3.1/../../../../arm-none-eabi/lib/thumb/v7e-m+fp/hard\libc_nano.a(lib_a-findfp.o)
                0x000000000800f924                __sf_fake_stdout
 .rodata._svfprintf_r.str1.1
                0x000000000800f944       0x11 c:/st/stm32cubeide_1.9.0/stm32cubeide/plugins/com.st.stm32cube.ide.mcu.externaltools.gnu-tools-for-stm32.10.3-2021.10.win32_1.0.200.202301161003/tools/bin/../lib/gcc/arm-none-eabi/10.3.1/../../../../arm-none-eabi/lib/thumb/v7e-m+fp/hard\libc_nano.a(lib_a-nano-svfprintf.o)
 .rodata._vfprintf_r.str1.1
                0x000000000800f955       0x11 c:/st/stm32cubeide_1.9.0/stm32cubeide/plugins/com.st.stm32cube.ide.mcu.externaltools.gnu-tools-for-stm32.10.3-2021.10.win32_1.0.200.202301161003/tools/bin/../lib/gcc/arm-none-eabi/10.3.1/../../../../arm-none-eabi/lib/thumb/v7e-m+fp/hard\libc_nano.a(lib_a-nano-vfprintf.o)
 .rodata._printf_i.str1.1
                0x000000000800f955       0x22 c:/st/stm32cubeide_1.9.0/stm32cubeide/plugins/com.st.stm32cube.ide.mcu.externaltools.gnu-tools-for-stm32.10.3-2021.10.win32_1.0.200.202301161003/tools/bin/../lib/gcc/arm-none-eabi/10.3.1/../../../../arm-none-eabi/lib/thumb/v7e-m+fp/hard\libc_nano.a(lib_a-nano-vfprintf_i.o)
                0x000000000800f978                . = ALIGN (0x4)
 *fill*         0x000000000800f977        0x1 

.ARM.extab      0x000000000800f978        0x0
                0x000000000800f978                . = ALIGN (0x4)
 *(.ARM.extab* .gnu.linkonce.armextab.*)
                0x000000000800f978                . = ALIGN (0x4)

.ARM            0x000000000800f978        0x8
                0x000000000800f978                . = ALIGN (0x4)
                0x000000000800f978                __exidx_start = .
 *(.ARM.exidx*)
 .ARM.exidx     0x000000000800f978        0x8 c:/st/stm32cubeide_1.9.0/stm32cubeide/plugins/com.st.stm32cube.ide.mcu.externaltools.gnu-tools-for-stm32.10.3-2021.10.win32_1.0.200.202301161003/tools/bin/../lib/gcc/arm-none-eabi/10.3.1/thumb/v7e-m+fp/hard\libgcc.a(_udivmoddi4.o)
                0x000000000800f980                __exidx_end = .
                0x000000000800f980                . = ALIGN (0x4)

.rel.dyn        0x000000000800f980        0x0
 .rel.iplt      0x000000000800f980        0x0 c:/st/stm32cubeide_1.9.0/stm32cubeide/plugins/com.st.stm32cube.ide.mcu.externaltools.gnu-tools-for-stm32.10.3-2021.10.win32_1.0.200.202301161003/tools/bin/../lib/gcc/arm-none-eabi/10.3.1/thumb/v7e-m+fp/hard/crtbegin.o

.preinit_array  0x000000000800f980        0x0
                0x000000000800f980                . = ALIGN (0x4)
                0x000000000800f980                PROVIDE (__preinit_array_start = .)
 *(.preinit_array*)
                0x000000000800f980                PROVIDE (__preinit_array_end = .)
                0x000000000800f980                . = ALIGN (0x4)

.init_array     0x000000000800f980        0x4
                0x000000000800f980                . = ALIGN (0x4)
                0x000000000800f980                PROVIDE (__init_array_start = .)
 *(SORT_BY_NAME(.init_array.*))
 *(.init_array*)
 .init_array    0x000000000800f980        0x4 c:/st/stm32cubeide_1.9.0/stm32cubeide/plugins/com.st.stm32cube.ide.mcu.externaltools.gnu-tools-for-stm32.10.3-2021.10.win32_1.0.200.202301161003/tools/bin/../lib/gcc/arm-none-eabi/10.3.1/thumb/v7e-m+fp/hard/crtbegin.o
                0x000000000800f984                PROVIDE (__init_array_end = .)
                0x000000000800f984                . = ALIGN (0x4)

.fini_array     0x000000000800f984        0x4
                0x000000000800f984                . = ALIGN (0x4)
                [!provide]                        PROVIDE (__fini_array_start = .)
 *(SORT_BY_NAME(.fini_array.*))
 *(.fini_array*)
 .fini_array    0x000000000800f984        0x4 c:/st/stm32cubeide_1.9.0/stm32cubeide/plugins/com.st.stm32cube.ide.mcu.externaltools.gnu-tools-for-stm32.10.3-2021.10.win32_1.0.200.202301161003/tools/bin/../lib/gcc/arm-none-eabi/10.3.1/thumb/v7e-m+fp/hard/crtbegin.o
                [!provide]                        PROVIDE (__fini_array_end = .)
                0x000000000800f988                . = ALIGN (0x4)
                0x000000000800f988                _sidata = LOADADDR (.data)

.data           0x0000000020000000       0x90 load address 0x000000000800f988
                0x0000000020000000                . = ALIGN (0x4)
                0x0000000020000000                _sdata = .
 *(.data)
 *(.data*)
 .data.NUMBER_OF_TESTED_BYTES
                0x0000000020000000        0x4 ./Core/Src/CY15B104QSN.o
 .data.SystemCoreClock
                0x0000000020000004        0x4 ./Core/Src/system_stm32f4xx.o
                0x0000000020000004                SystemCoreClock
 .data.uwTickFreq
                0x0000000020000008        0x1 ./Drivers/STM32F4xx_HAL_Driver/Src/stm32f4xx_hal.o
                0x0000000020000008                uwTickFreq
 *fill*         0x0000000020000009        0x3 
 .data.uwTickPrio
                0x000000002000000c        0x4 ./Drivers/STM32F4xx_HAL_Driver/Src/stm32f4xx_hal.o
                0x000000002000000c                uwTickPrio
 .data.LAN8742_IOCtx
                0x0000000020000010       0x14 ./LWIP/Target/ethernetif.o
                0x0000000020000010                LAN8742_IOCtx
 .data.iss.0    0x0000000020000024        0x4 ./Middlewares/Third_Party/LwIP/src/core/tcp.o
 .data.tcp_port
                0x0000000020000028        0x2 ./Middlewares/Third_Party/LwIP/src/core/tcp.o
 .data.udp_port
                0x000000002000002a        0x2 ./Middlewares/Third_Party/LwIP/src/core/udp.o
 .data._impure_ptr
                0x000000002000002c        0x4 c:/st/stm32cubeide_1.9.0/stm32cubeide/plugins/com.st.stm32cube.ide.mcu.externaltools.gnu-tools-for-stm32.10.3-2021.10.win32_1.0.200.202301161003/tools/bin/../lib/gcc/arm-none-eabi/10.3.1/../../../../arm-none-eabi/lib/thumb/v7e-m+fp/hard\libc_nano.a(lib_a-impure.o)
                0x000000002000002c                _impure_ptr
 .data.impure_data
                0x0000000020000030       0x60 c:/st/stm32cubeide_1.9.0/stm32cubeide/plugins/com.st.stm32cube.ide.mcu.externaltools.gnu-tools-for-stm32.10.3-2021.10.win32_1.0.200.202301161003/tools/bin/../lib/gcc/arm-none-eabi/10.3.1/../../../../arm-none-eabi/lib/thumb/v7e-m+fp/hard\libc_nano.a(lib_a-impure.o)
 *(.RamFunc)
 *(.RamFunc*)
                0x0000000020000090                . = ALIGN (0x4)
                0x0000000020000090                _edata = .
                0x000000000800fa18                _siccmram = LOADADDR (.ccmram)

.igot.plt       0x0000000020000090        0x0 load address 0x000000000800fa18
 .igot.plt      0x0000000020000090        0x0 c:/st/stm32cubeide_1.9.0/stm32cubeide/plugins/com.st.stm32cube.ide.mcu.externaltools.gnu-tools-for-stm32.10.3-2021.10.win32_1.0.200.202301161003/tools/bin/../lib/gcc/arm-none-eabi/10.3.1/thumb/v7e-m+fp/hard/crtbegin.o

.ccmram         0x0000000010000000        0x0 load address 0x000000000800fa18
                0x0000000010000000                . = ALIGN (0x4)
                0x0000000010000000                _sccmram = .
 *(.ccmram)
 *(.ccmram*)
                0x0000000010000000                . = ALIGN (0x4)
                0x0000000010000000                _eccmram = .
                0x0000000010000000                . = ALIGN (0x4)

.bss            0x0000000020000090     0x90d4
                0x0000000020000090                _sbss = .
                0x0000000020000090                __bss_start__ = _sbss
 *(.bss)
 .bss           0x0000000020000090       0x1c c:/st/stm32cubeide_1.9.0/stm32cubeide/plugins/com.st.stm32cube.ide.mcu.externaltools.gnu-tools-for-stm32.10.3-2021.10.win32_1.0.200.202301161003/tools/bin/../lib/gcc/arm-none-eabi/10.3.1/thumb/v7e-m+fp/hard/crtbegin.o
 *(.bss*)
 .bss.activeChannel
                0x00000000200000ac        0x1 ./Core/Src/CY15B104QSN.o
 *fill*         0x00000000200000ad        0x3 
 .bss.addres    0x00000000200000b0        0x4 ./Core/Src/CY15B104QSN.o
 .bss.dataOUT   0x00000000200000b4      0x100 ./Core/Src/CY15B104QSN.o
 .bss.packet    0x00000000200001b4      0x104 ./Core/Src/CY15B104QSN.o
 .bss.receiveData
                0x00000000200002b8      0x104 ./Core/Src/CY15B104QSN.o
 .bss.currCH1   0x00000000200003bc       0x80 ./Core/Src/general.o
                0x00000000200003bc                currCH1
 .bss.currCH2   0x000000002000043c       0x80 ./Core/Src/general.o
                0x000000002000043c                currCH2
 .bss.currCH3   0x00000000200004bc       0x80 ./Core/Src/general.o
                0x00000000200004bc                currCH3
 .bss.currPointerCH1
                0x000000002000053c        0x1 ./Core/Src/general.o
                0x000000002000053c                currPointerCH1
 .bss.currPointerCH2
                0x000000002000053d        0x1 ./Core/Src/general.o
                0x000000002000053d                currPointerCH2
 .bss.currPointerCH3
                0x000000002000053e        0x1 ./Core/Src/general.o
                0x000000002000053e                currPointerCH3
 *fill*         0x000000002000053f        0x1 
 .bss.sumCurrCH1
                0x0000000020000540        0x4 ./Core/Src/general.o
                0x0000000020000540                sumCurrCH1
 .bss.sumCurrCH2
                0x0000000020000544        0x4 ./Core/Src/general.o
                0x0000000020000544                sumCurrCH2
 .bss.sumCurrCH3
                0x0000000020000548        0x4 ./Core/Src/general.o
                0x0000000020000548                sumCurrCH3
 .bss.adc1result
                0x000000002000054c        0x1 ./Core/Src/main.o
                0x000000002000054c                adc1result
 .bss.adc3result
                0x000000002000054d        0x1 ./Core/Src/main.o
                0x000000002000054d                adc3result
 *fill*         0x000000002000054e        0x2 
 .bss.dataADCCH1
                0x0000000020000550        0x8 ./Core/Src/main.o
                0x0000000020000550                dataADCCH1
 .bss.dataADCCH3
                0x0000000020000558        0x4 ./Core/Src/main.o
                0x0000000020000558                dataADCCH3
 .bss.hadc1     0x000000002000055c       0x48 ./Core/Src/main.o
                0x000000002000055c                hadc1
 .bss.hadc3     0x00000000200005a4       0x48 ./Core/Src/main.o
                0x00000000200005a4                hadc3
 .bss.hdma_adc1
                0x00000000200005ec       0x60 ./Core/Src/main.o
                0x00000000200005ec                hdma_adc1
 .bss.hdma_adc3
                0x000000002000064c       0x60 ./Core/Src/main.o
                0x000000002000064c                hdma_adc3
 .bss.hdma_spi1_rx
                0x00000000200006ac       0x60 ./Core/Src/main.o
                0x00000000200006ac                hdma_spi1_rx
 .bss.hdma_spi1_tx
                0x000000002000070c       0x60 ./Core/Src/main.o
                0x000000002000070c                hdma_spi1_tx
 .bss.hi2c2     0x000000002000076c       0x54 ./Core/Src/main.o
                0x000000002000076c                hi2c2
 .bss.hpcd_USB_OTG_FS
                0x00000000200007c0      0x50c ./Core/Src/main.o
                0x00000000200007c0                hpcd_USB_OTG_FS
 .bss.hspi1     0x0000000020000ccc       0x58 ./Core/Src/main.o
                0x0000000020000ccc                hspi1
 .bss.htim6     0x0000000020000d24       0x48 ./Core/Src/main.o
                0x0000000020000d24                htim6
 .bss.htim7     0x0000000020000d6c       0x48 ./Core/Src/main.o
                0x0000000020000d6c                htim7
 .bss.huart3    0x0000000020000db4       0x44 ./Core/Src/main.o
                0x0000000020000db4                huart3
 .bss.readDone  0x0000000020000df8        0x1 ./Core/Src/main.o
                0x0000000020000df8                readDone
 *fill*         0x0000000020000df9        0x3 
 .bss.reg       0x0000000020000dfc       0x58 ./Core/Src/main.o
                0x0000000020000dfc                reg
 .bss.writeDone
                0x0000000020000e54        0x1 ./Core/Src/main.o
                0x0000000020000e54                writeDone
 *fill*         0x0000000020000e55        0x3 
 .bss.__sbrk_heap_end
                0x0000000020000e58        0x4 ./Core/Src/sysmem.o
 .bss.uwTick    0x0000000020000e5c        0x4 ./Drivers/STM32F4xx_HAL_Driver/Src/stm32f4xx_hal.o
                0x0000000020000e5c                uwTick
 .bss.EthernetLinkTimer
                0x0000000020000e60        0x4 ./LWIP/App/lwip.o
                0x0000000020000e60                EthernetLinkTimer
 .bss.GATEWAY_ADDRESS
                0x0000000020000e64        0x4 ./LWIP/App/lwip.o
                0x0000000020000e64                GATEWAY_ADDRESS
 .bss.IP_ADDRESS
                0x0000000020000e68        0x4 ./LWIP/App/lwip.o
                0x0000000020000e68                IP_ADDRESS
 .bss.NETMASK_ADDRESS
                0x0000000020000e6c        0x4 ./LWIP/App/lwip.o
                0x0000000020000e6c                NETMASK_ADDRESS
 .bss.gnetif    0x0000000020000e70       0x34 ./LWIP/App/lwip.o
                0x0000000020000e70                gnetif
 .bss.gw        0x0000000020000ea4        0x4 ./LWIP/App/lwip.o
                0x0000000020000ea4                gw
 .bss.ipaddr    0x0000000020000ea8        0x4 ./LWIP/App/lwip.o
                0x0000000020000ea8                ipaddr
 .bss.netmask   0x0000000020000eac        0x4 ./LWIP/App/lwip.o
                0x0000000020000eac                netmask
 .bss.DMARxDscrTab
                0x0000000020000eb0       0xa0 ./LWIP/Target/ethernetif.o
                0x0000000020000eb0                DMARxDscrTab
 .bss.DMATxDscrTab
                0x0000000020000f50       0xa0 ./LWIP/Target/ethernetif.o
                0x0000000020000f50                DMATxDscrTab
 .bss.LAN8742   0x0000000020000ff0       0x20 ./LWIP/Target/ethernetif.o
                0x0000000020000ff0                LAN8742
 .bss.RxAllocStatus
                0x0000000020001010        0x1 ./LWIP/Target/ethernetif.o
 *fill*         0x0000000020001011        0x3 
 .bss.TxConfig  0x0000000020001014       0x38 ./LWIP/Target/ethernetif.o
                0x0000000020001014                TxConfig
 .bss.heth      0x000000002000104c       0xb0 ./LWIP/Target/ethernetif.o
                0x000000002000104c                heth
 .bss.memp_memory_RX_POOL_base
                0x00000000200010fc     0x4983 ./LWIP/Target/ethernetif.o
                0x00000000200010fc                memp_memory_RX_POOL_base
 *fill*         0x0000000020005a7f        0x1 
 .bss.memp_tab_RX_POOL
                0x0000000020005a80        0x4 ./LWIP/Target/ethernetif.o
 .bss.ip_data   0x0000000020005a84       0x18 ./Middlewares/Third_Party/LwIP/src/core/ip.o
                0x0000000020005a84                ip_data
 .bss.lfree     0x0000000020005a9c        0x4 ./Middlewares/Third_Party/LwIP/src/core/mem.o
 .bss.ram       0x0000000020005aa0        0x4 ./Middlewares/Third_Party/LwIP/src/core/mem.o
 .bss.ram_end   0x0000000020005aa4        0x4 ./Middlewares/Third_Party/LwIP/src/core/mem.o
 .bss.ram_heap  0x0000000020005aa8      0x653 ./Middlewares/Third_Party/LwIP/src/core/mem.o
                0x0000000020005aa8                ram_heap
 .bss.memp_memory_FRAG_PBUF_base
                0x00000000200060fb      0x16b ./Middlewares/Third_Party/LwIP/src/core/memp.o
                0x00000000200060fb                memp_memory_FRAG_PBUF_base
 .bss.memp_memory_PBUF_POOL_base
                0x0000000020006266     0x2603 ./Middlewares/Third_Party/LwIP/src/core/memp.o
                0x0000000020006266                memp_memory_PBUF_POOL_base
 .bss.memp_memory_PBUF_base
                0x0000000020008869      0x103 ./Middlewares/Third_Party/LwIP/src/core/memp.o
                0x0000000020008869                memp_memory_PBUF_base
 .bss.memp_memory_REASSDATA_base
                0x000000002000896c       0xa3 ./Middlewares/Third_Party/LwIP/src/core/memp.o
                0x000000002000896c                memp_memory_REASSDATA_base
 .bss.memp_memory_SYS_TIMEOUT_base
                0x0000000020008a0f       0x33 ./Middlewares/Third_Party/LwIP/src/core/memp.o
                0x0000000020008a0f                memp_memory_SYS_TIMEOUT_base
 .bss.memp_memory_TCP_PCB_LISTEN_base
                0x0000000020008a42       0xe3 ./Middlewares/Third_Party/LwIP/src/core/memp.o
                0x0000000020008a42                memp_memory_TCP_PCB_LISTEN_base
 .bss.memp_memory_TCP_PCB_base
                0x0000000020008b25      0x30f ./Middlewares/Third_Party/LwIP/src/core/memp.o
                0x0000000020008b25                memp_memory_TCP_PCB_base
 .bss.memp_memory_TCP_SEG_base
                0x0000000020008e34      0x103 ./Middlewares/Third_Party/LwIP/src/core/memp.o
                0x0000000020008e34                memp_memory_TCP_SEG_base
 .bss.memp_memory_UDP_PCB_base
                0x0000000020008f37       0x83 ./Middlewares/Third_Party/LwIP/src/core/memp.o
                0x0000000020008f37                memp_memory_UDP_PCB_base
 *fill*         0x0000000020008fba        0x2 
 .bss.memp_tab_FRAG_PBUF
                0x0000000020008fbc        0x4 ./Middlewares/Third_Party/LwIP/src/core/memp.o
 .bss.memp_tab_PBUF
                0x0000000020008fc0        0x4 ./Middlewares/Third_Party/LwIP/src/core/memp.o
 .bss.memp_tab_PBUF_POOL
                0x0000000020008fc4        0x4 ./Middlewares/Third_Party/LwIP/src/core/memp.o
 .bss.memp_tab_REASSDATA
                0x0000000020008fc8        0x4 ./Middlewares/Third_Party/LwIP/src/core/memp.o
 .bss.memp_tab_SYS_TIMEOUT
                0x0000000020008fcc        0x4 ./Middlewares/Third_Party/LwIP/src/core/memp.o
 .bss.memp_tab_TCP_PCB
                0x0000000020008fd0        0x4 ./Middlewares/Third_Party/LwIP/src/core/memp.o
 .bss.memp_tab_TCP_PCB_LISTEN
                0x0000000020008fd4        0x4 ./Middlewares/Third_Party/LwIP/src/core/memp.o
 .bss.memp_tab_TCP_SEG
                0x0000000020008fd8        0x4 ./Middlewares/Third_Party/LwIP/src/core/memp.o
 .bss.memp_tab_UDP_PCB
                0x0000000020008fdc        0x4 ./Middlewares/Third_Party/LwIP/src/core/memp.o
 .bss.netif_default
                0x0000000020008fe0        0x4 ./Middlewares/Third_Party/LwIP/src/core/netif.o
                0x0000000020008fe0                netif_default
 .bss.netif_list
                0x0000000020008fe4        0x4 ./Middlewares/Third_Party/LwIP/src/core/netif.o
                0x0000000020008fe4                netif_list
 .bss.netif_num
                0x0000000020008fe8        0x1 ./Middlewares/Third_Party/LwIP/src/core/netif.o
 .bss.pbuf_free_ooseq_pending
                0x0000000020008fe9        0x1 ./Middlewares/Third_Party/LwIP/src/core/pbuf.o
                0x0000000020008fe9                pbuf_free_ooseq_pending
 *fill*         0x0000000020008fea        0x2 
 .bss.tcp_active_pcbs
                0x0000000020008fec        0x4 ./Middlewares/Third_Party/LwIP/src/core/tcp.o
                0x0000000020008fec                tcp_active_pcbs
 .bss.tcp_active_pcbs_changed
                0x0000000020008ff0        0x1 ./Middlewares/Third_Party/LwIP/src/core/tcp.o
                0x0000000020008ff0                tcp_active_pcbs_changed
 *fill*         0x0000000020008ff1        0x3 
 .bss.tcp_bound_pcbs
                0x0000000020008ff4        0x4 ./Middlewares/Third_Party/LwIP/src/core/tcp.o
                0x0000000020008ff4                tcp_bound_pcbs
 .bss.tcp_listen_pcbs
                0x0000000020008ff8        0x4 ./Middlewares/Third_Party/LwIP/src/core/tcp.o
                0x0000000020008ff8                tcp_listen_pcbs
 .bss.tcp_ticks
                0x0000000020008ffc        0x4 ./Middlewares/Third_Party/LwIP/src/core/tcp.o
                0x0000000020008ffc                tcp_ticks
 .bss.tcp_timer
                0x0000000020009000        0x1 ./Middlewares/Third_Party/LwIP/src/core/tcp.o
 .bss.tcp_timer_ctr
                0x0000000020009001        0x1 ./Middlewares/Third_Party/LwIP/src/core/tcp.o
 *fill*         0x0000000020009002        0x2 
 .bss.tcp_tw_pcbs
                0x0000000020009004        0x4 ./Middlewares/Third_Party/LwIP/src/core/tcp.o
                0x0000000020009004                tcp_tw_pcbs
 .bss.ackno     0x0000000020009008        0x4 ./Middlewares/Third_Party/LwIP/src/core/tcp_in.o
 .bss.flags     0x000000002000900c        0x1 ./Middlewares/Third_Party/LwIP/src/core/tcp_in.o
 *fill*         0x000000002000900d        0x3 
 .bss.inseg     0x0000000020009010       0x10 ./Middlewares/Third_Party/LwIP/src/core/tcp_in.o
 .bss.recv_acked
                0x0000000020009020        0x2 ./Middlewares/Third_Party/LwIP/src/core/tcp_in.o
 *fill*         0x0000000020009022        0x2 
 .bss.recv_data
                0x0000000020009024        0x4 ./Middlewares/Third_Party/LwIP/src/core/tcp_in.o
 .bss.recv_flags
                0x0000000020009028        0x1 ./Middlewares/Third_Party/LwIP/src/core/tcp_in.o
 *fill*         0x0000000020009029        0x3 
 .bss.seqno     0x000000002000902c        0x4 ./Middlewares/Third_Party/LwIP/src/core/tcp_in.o
 .bss.tcp_input_pcb
                0x0000000020009030        0x4 ./Middlewares/Third_Party/LwIP/src/core/tcp_in.o
                0x0000000020009030                tcp_input_pcb
 .bss.tcp_optidx
                0x0000000020009034        0x2 ./Middlewares/Third_Party/LwIP/src/core/tcp_in.o
 *fill*         0x0000000020009036        0x2 
 .bss.tcphdr    0x0000000020009038        0x4 ./Middlewares/Third_Party/LwIP/src/core/tcp_in.o
 .bss.tcphdr_opt1len
                0x000000002000903c        0x2 ./Middlewares/Third_Party/LwIP/src/core/tcp_in.o
 *fill*         0x000000002000903e        0x2 
 .bss.tcphdr_opt2
                0x0000000020009040        0x4 ./Middlewares/Third_Party/LwIP/src/core/tcp_in.o
 .bss.tcphdr_optlen
                0x0000000020009044        0x2 ./Middlewares/Third_Party/LwIP/src/core/tcp_in.o
 .bss.tcplen    0x0000000020009046        0x2 ./Middlewares/Third_Party/LwIP/src/core/tcp_in.o
 .bss.current_timeout_due_time
                0x0000000020009048        0x4 ./Middlewares/Third_Party/LwIP/src/core/timeouts.o
 .bss.next_timeout
                0x000000002000904c        0x4 ./Middlewares/Third_Party/LwIP/src/core/timeouts.o
 .bss.tcpip_tcp_timer_active
                0x0000000020009050        0x4 ./Middlewares/Third_Party/LwIP/src/core/timeouts.o
 .bss.udp_pcbs  0x0000000020009054        0x4 ./Middlewares/Third_Party/LwIP/src/core/udp.o
                0x0000000020009054                udp_pcbs
 .bss.arp_table
                0x0000000020009058       0xf0 ./Middlewares/Third_Party/LwIP/src/core/ipv4/etharp.o
 .bss.etharp_cached_entry
                0x0000000020009148        0x1 ./Middlewares/Third_Party/LwIP/src/core/ipv4/etharp.o
 *fill*         0x0000000020009149        0x1 
 .bss.ip_id     0x000000002000914a        0x2 ./Middlewares/Third_Party/LwIP/src/core/ipv4/ip4.o
 .bss.ip_reass_pbufcount
                0x000000002000914c        0x2 ./Middlewares/Third_Party/LwIP/src/core/ipv4/ip4_frag.o
 *fill*         0x000000002000914e        0x2 
 .bss.reassdatagrams
                0x0000000020009150        0x4 ./Middlewares/Third_Party/LwIP/src/core/ipv4/ip4_frag.o
 .bss.errno     0x0000000020009154        0x4 c:/st/stm32cubeide_1.9.0/stm32cubeide/plugins/com.st.stm32cube.ide.mcu.externaltools.gnu-tools-for-stm32.10.3-2021.10.win32_1.0.200.202301161003/tools/bin/../lib/gcc/arm-none-eabi/10.3.1/../../../../arm-none-eabi/lib/thumb/v7e-m+fp/hard\libc_nano.a(lib_a-reent.o)
                0x0000000020009154                errno
 .bss.__lock___malloc_recursive_mutex
                0x0000000020009158        0x1 c:/st/stm32cubeide_1.9.0/stm32cubeide/plugins/com.st.stm32cube.ide.mcu.externaltools.gnu-tools-for-stm32.10.3-2021.10.win32_1.0.200.202301161003/tools/bin/../lib/gcc/arm-none-eabi/10.3.1/../../../../arm-none-eabi/lib/thumb/v7e-m+fp/hard\libc_nano.a(lib_a-lock.o)
                0x0000000020009158                __lock___malloc_recursive_mutex
 .bss.__lock___sfp_recursive_mutex
                0x0000000020009159        0x1 c:/st/stm32cubeide_1.9.0/stm32cubeide/plugins/com.st.stm32cube.ide.mcu.externaltools.gnu-tools-for-stm32.10.3-2021.10.win32_1.0.200.202301161003/tools/bin/../lib/gcc/arm-none-eabi/10.3.1/../../../../arm-none-eabi/lib/thumb/v7e-m+fp/hard\libc_nano.a(lib_a-lock.o)
                0x0000000020009159                __lock___sfp_recursive_mutex
 .bss.__lock___sinit_recursive_mutex
                0x000000002000915a        0x1 c:/st/stm32cubeide_1.9.0/stm32cubeide/plugins/com.st.stm32cube.ide.mcu.externaltools.gnu-tools-for-stm32.10.3-2021.10.win32_1.0.200.202301161003/tools/bin/../lib/gcc/arm-none-eabi/10.3.1/../../../../arm-none-eabi/lib/thumb/v7e-m+fp/hard\libc_nano.a(lib_a-lock.o)
                0x000000002000915a                __lock___sinit_recursive_mutex
 *fill*         0x000000002000915b        0x1 
 .bss.__malloc_free_list
                0x000000002000915c        0x4 c:/st/stm32cubeide_1.9.0/stm32cubeide/plugins/com.st.stm32cube.ide.mcu.externaltools.gnu-tools-for-stm32.10.3-2021.10.win32_1.0.200.202301161003/tools/bin/../lib/gcc/arm-none-eabi/10.3.1/../../../../arm-none-eabi/lib/thumb/v7e-m+fp/hard\libc_nano.a(lib_a-nano-mallocr.o)
                0x000000002000915c                __malloc_free_list
 .bss.__malloc_sbrk_start
                0x0000000020009160        0x4 c:/st/stm32cubeide_1.9.0/stm32cubeide/plugins/com.st.stm32cube.ide.mcu.externaltools.gnu-tools-for-stm32.10.3-2021.10.win32_1.0.200.202301161003/tools/bin/../lib/gcc/arm-none-eabi/10.3.1/../../../../arm-none-eabi/lib/thumb/v7e-m+fp/hard\libc_nano.a(lib_a-nano-mallocr.o)
                0x0000000020009160                __malloc_sbrk_start
 *(COMMON)
                0x0000000020009164                . = ALIGN (0x4)
                0x0000000020009164                _ebss = .
                0x0000000020009164                __bss_end__ = _ebss

._user_heap_stack
                0x0000000020009164      0x604
                0x0000000020009168                . = ALIGN (0x8)
 *fill*         0x0000000020009164        0x4 
                [!provide]                        PROVIDE (end = .)
                0x0000000020009168                PROVIDE (_end = .)
                0x0000000020009368                . = (. + _Min_Heap_Size)
 *fill*         0x0000000020009168      0x200 
                0x0000000020009768                . = (. + _Min_Stack_Size)
 *fill*         0x0000000020009368      0x400 
                0x0000000020009768                . = ALIGN (0x8)

/DISCARD/
 libc.a(*)
 libm.a(*)
 libgcc.a(*)

.ARM.attributes
                0x0000000000000000       0x30
 *(.ARM.attributes)
 .ARM.attributes
                0x0000000000000000       0x1e c:/st/stm32cubeide_1.9.0/stm32cubeide/plugins/com.st.stm32cube.ide.mcu.externaltools.gnu-tools-for-stm32.10.3-2021.10.win32_1.0.200.202301161003/tools/bin/../lib/gcc/arm-none-eabi/10.3.1/thumb/v7e-m+fp/hard/crti.o
 .ARM.attributes
                0x000000000000001e       0x34 c:/st/stm32cubeide_1.9.0/stm32cubeide/plugins/com.st.stm32cube.ide.mcu.externaltools.gnu-tools-for-stm32.10.3-2021.10.win32_1.0.200.202301161003/tools/bin/../lib/gcc/arm-none-eabi/10.3.1/thumb/v7e-m+fp/hard/crtbegin.o
 .ARM.attributes
                0x0000000000000052       0x34 ./Core/Src/CY15B104QSN.o
 .ARM.attributes
                0x0000000000000086       0x34 ./Core/Src/SPI.o
 .ARM.attributes
                0x00000000000000ba       0x34 ./Core/Src/general.o
 .ARM.attributes
                0x00000000000000ee       0x34 ./Core/Src/main.o
 .ARM.attributes
                0x0000000000000122       0x34 ./Core/Src/stm32f4xx_hal_msp.o
 .ARM.attributes
                0x0000000000000156       0x34 ./Core/Src/stm32f4xx_it.o
 .ARM.attributes
                0x000000000000018a       0x34 ./Core/Src/syscalls.o
 .ARM.attributes
                0x00000000000001be       0x34 ./Core/Src/sysmem.o
 .ARM.attributes
                0x00000000000001f2       0x34 ./Core/Src/system_stm32f4xx.o
 .ARM.attributes
                0x0000000000000226       0x34 ./Core/Src/tcpServerRAW.o
 .ARM.attributes
                0x000000000000025a       0x21 ./Core/Startup/startup_stm32f439zitx.o
 .ARM.attributes
                0x000000000000027b       0x34 ./Drivers/BSP/Components/lan8742/lan8742.o
 .ARM.attributes
                0x00000000000002af       0x34 ./Drivers/STM32F4xx_HAL_Driver/Src/stm32f4xx_hal.o
 .ARM.attributes
                0x00000000000002e3       0x34 ./Drivers/STM32F4xx_HAL_Driver/Src/stm32f4xx_hal_adc.o
 .ARM.attributes
                0x0000000000000317       0x34 ./Drivers/STM32F4xx_HAL_Driver/Src/stm32f4xx_hal_cortex.o
 .ARM.attributes
                0x000000000000034b       0x34 ./Drivers/STM32F4xx_HAL_Driver/Src/stm32f4xx_hal_dma.o
 .ARM.attributes
                0x000000000000037f       0x34 ./Drivers/STM32F4xx_HAL_Driver/Src/stm32f4xx_hal_eth.o
 .ARM.attributes
                0x00000000000003b3       0x34 ./Drivers/STM32F4xx_HAL_Driver/Src/stm32f4xx_hal_gpio.o
 .ARM.attributes
                0x00000000000003e7       0x34 ./Drivers/STM32F4xx_HAL_Driver/Src/stm32f4xx_hal_i2c.o
 .ARM.attributes
                0x000000000000041b       0x34 ./Drivers/STM32F4xx_HAL_Driver/Src/stm32f4xx_hal_i2c_ex.o
 .ARM.attributes
                0x000000000000044f       0x34 ./Drivers/STM32F4xx_HAL_Driver/Src/stm32f4xx_hal_pcd.o
 .ARM.attributes
                0x0000000000000483       0x34 ./Drivers/STM32F4xx_HAL_Driver/Src/stm32f4xx_hal_rcc.o
 .ARM.attributes
                0x00000000000004b7       0x34 ./Drivers/STM32F4xx_HAL_Driver/Src/stm32f4xx_hal_spi.o
 .ARM.attributes
                0x00000000000004eb       0x34 ./Drivers/STM32F4xx_HAL_Driver/Src/stm32f4xx_hal_tim.o
 .ARM.attributes
                0x000000000000051f       0x34 ./Drivers/STM32F4xx_HAL_Driver/Src/stm32f4xx_hal_tim_ex.o
 .ARM.attributes
                0x0000000000000553       0x34 ./Drivers/STM32F4xx_HAL_Driver/Src/stm32f4xx_hal_uart.o
 .ARM.attributes
                0x0000000000000587       0x34 ./Drivers/STM32F4xx_HAL_Driver/Src/stm32f4xx_ll_usb.o
 .ARM.attributes
                0x00000000000005bb       0x34 ./LWIP/App/lwip.o
 .ARM.attributes
                0x00000000000005ef       0x34 ./LWIP/Target/ethernetif.o
 .ARM.attributes
                0x0000000000000623       0x34 ./Middlewares/Third_Party/LwIP/src/core/def.o
 .ARM.attributes
                0x0000000000000657       0x34 ./Middlewares/Third_Party/LwIP/src/core/init.o
 .ARM.attributes
                0x000000000000068b       0x34 ./Middlewares/Third_Party/LwIP/src/core/ip.o
 .ARM.attributes
                0x00000000000006bf       0x34 ./Middlewares/Third_Party/LwIP/src/core/mem.o
 .ARM.attributes
                0x00000000000006f3       0x34 ./Middlewares/Third_Party/LwIP/src/core/memp.o
 .ARM.attributes
                0x0000000000000727       0x34 ./Middlewares/Third_Party/LwIP/src/core/netif.o
 .ARM.attributes
                0x000000000000075b       0x34 ./Middlewares/Third_Party/LwIP/src/core/pbuf.o
 .ARM.attributes
                0x000000000000078f       0x34 ./Middlewares/Third_Party/LwIP/src/core/tcp.o
 .ARM.attributes
                0x00000000000007c3       0x34 ./Middlewares/Third_Party/LwIP/src/core/tcp_in.o
 .ARM.attributes
                0x00000000000007f7       0x34 ./Middlewares/Third_Party/LwIP/src/core/tcp_out.o
 .ARM.attributes
                0x000000000000082b       0x34 ./Middlewares/Third_Party/LwIP/src/core/timeouts.o
 .ARM.attributes
                0x000000000000085f       0x34 ./Middlewares/Third_Party/LwIP/src/core/udp.o
 .ARM.attributes
                0x0000000000000893       0x34 ./Middlewares/Third_Party/LwIP/src/core/ipv4/etharp.o
 .ARM.attributes
                0x00000000000008c7       0x34 ./Middlewares/Third_Party/LwIP/src/core/ipv4/icmp.o
 .ARM.attributes
                0x00000000000008fb       0x34 ./Middlewares/Third_Party/LwIP/src/core/ipv4/ip4.o
 .ARM.attributes
                0x000000000000092f       0x34 ./Middlewares/Third_Party/LwIP/src/core/ipv4/ip4_addr.o
 .ARM.attributes
                0x0000000000000963       0x34 ./Middlewares/Third_Party/LwIP/src/core/ipv4/ip4_frag.o
 .ARM.attributes
                0x0000000000000997       0x34 ./Middlewares/Third_Party/LwIP/src/netif/ethernet.o
 .ARM.attributes
                0x00000000000009cb       0x34 c:/st/stm32cubeide_1.9.0/stm32cubeide/plugins/com.st.stm32cube.ide.mcu.externaltools.gnu-tools-for-stm32.10.3-2021.10.win32_1.0.200.202301161003/tools/bin/../lib/gcc/arm-none-eabi/10.3.1/../../../../arm-none-eabi/lib/thumb/v7e-m+fp/hard\libc_nano.a(lib_a-ctype_.o)
 .ARM.attributes
                0x00000000000009ff       0x34 c:/st/stm32cubeide_1.9.0/stm32cubeide/plugins/com.st.stm32cube.ide.mcu.externaltools.gnu-tools-for-stm32.10.3-2021.10.win32_1.0.200.202301161003/tools/bin/../lib/gcc/arm-none-eabi/10.3.1/../../../../arm-none-eabi/lib/thumb/v7e-m+fp/hard\libc_nano.a(lib_a-impure.o)
 .ARM.attributes
                0x0000000000000a33       0x34 c:/st/stm32cubeide_1.9.0/stm32cubeide/plugins/com.st.stm32cube.ide.mcu.externaltools.gnu-tools-for-stm32.10.3-2021.10.win32_1.0.200.202301161003/tools/bin/../lib/gcc/arm-none-eabi/10.3.1/../../../../arm-none-eabi/lib/thumb/v7e-m+fp/hard\libc_nano.a(lib_a-init.o)
 .ARM.attributes
                0x0000000000000a67       0x34 c:/st/stm32cubeide_1.9.0/stm32cubeide/plugins/com.st.stm32cube.ide.mcu.externaltools.gnu-tools-for-stm32.10.3-2021.10.win32_1.0.200.202301161003/tools/bin/../lib/gcc/arm-none-eabi/10.3.1/../../../../arm-none-eabi/lib/thumb/v7e-m+fp/hard\libc_nano.a(lib_a-memcmp.o)
 .ARM.attributes
                0x0000000000000a9b       0x34 c:/st/stm32cubeide_1.9.0/stm32cubeide/plugins/com.st.stm32cube.ide.mcu.externaltools.gnu-tools-for-stm32.10.3-2021.10.win32_1.0.200.202301161003/tools/bin/../lib/gcc/arm-none-eabi/10.3.1/../../../../arm-none-eabi/lib/thumb/v7e-m+fp/hard\libc_nano.a(lib_a-memcpy-stub.o)
 .ARM.attributes
                0x0000000000000acf       0x34 c:/st/stm32cubeide_1.9.0/stm32cubeide/plugins/com.st.stm32cube.ide.mcu.externaltools.gnu-tools-for-stm32.10.3-2021.10.win32_1.0.200.202301161003/tools/bin/../lib/gcc/arm-none-eabi/10.3.1/../../../../arm-none-eabi/lib/thumb/v7e-m+fp/hard\libc_nano.a(lib_a-memmove.o)
 .ARM.attributes
                0x0000000000000b03       0x34 c:/st/stm32cubeide_1.9.0/stm32cubeide/plugins/com.st.stm32cube.ide.mcu.externaltools.gnu-tools-for-stm32.10.3-2021.10.win32_1.0.200.202301161003/tools/bin/../lib/gcc/arm-none-eabi/10.3.1/../../../../arm-none-eabi/lib/thumb/v7e-m+fp/hard\libc_nano.a(lib_a-memset.o)
 .ARM.attributes
                0x0000000000000b37       0x34 c:/st/stm32cubeide_1.9.0/stm32cubeide/plugins/com.st.stm32cube.ide.mcu.externaltools.gnu-tools-for-stm32.10.3-2021.10.win32_1.0.200.202301161003/tools/bin/../lib/gcc/arm-none-eabi/10.3.1/../../../../arm-none-eabi/lib/thumb/v7e-m+fp/hard\libc_nano.a(lib_a-printf.o)
 .ARM.attributes
                0x0000000000000b6b       0x34 c:/st/stm32cubeide_1.9.0/stm32cubeide/plugins/com.st.stm32cube.ide.mcu.externaltools.gnu-tools-for-stm32.10.3-2021.10.win32_1.0.200.202301161003/tools/bin/../lib/gcc/arm-none-eabi/10.3.1/../../../../arm-none-eabi/lib/thumb/v7e-m+fp/hard\libc_nano.a(lib_a-rand.o)
 .ARM.attributes
                0x0000000000000b9f       0x34 c:/st/stm32cubeide_1.9.0/stm32cubeide/plugins/com.st.stm32cube.ide.mcu.externaltools.gnu-tools-for-stm32.10.3-2021.10.win32_1.0.200.202301161003/tools/bin/../lib/gcc/arm-none-eabi/10.3.1/../../../../arm-none-eabi/lib/thumb/v7e-m+fp/hard\libc_nano.a(lib_a-reent.o)
 .ARM.attributes
                0x0000000000000bd3       0x34 c:/st/stm32cubeide_1.9.0/stm32cubeide/plugins/com.st.stm32cube.ide.mcu.externaltools.gnu-tools-for-stm32.10.3-2021.10.win32_1.0.200.202301161003/tools/bin/../lib/gcc/arm-none-eabi/10.3.1/../../../../arm-none-eabi/lib/thumb/v7e-m+fp/hard\libc_nano.a(lib_a-sprintf.o)
 .ARM.attributes
                0x0000000000000c07       0x17 c:/st/stm32cubeide_1.9.0/stm32cubeide/plugins/com.st.stm32cube.ide.mcu.externaltools.gnu-tools-for-stm32.10.3-2021.10.win32_1.0.200.202301161003/tools/bin/../lib/gcc/arm-none-eabi/10.3.1/../../../../arm-none-eabi/lib/thumb/v7e-m+fp/hard\libc_nano.a(lib_a-strlen.o)
 .ARM.attributes
